:0400000007EF00F016
:0A000800018234ED16F01DEF1AF02E
:10080000003031323334353637383941424344458C
:1008100046000F010C0000001C0CFFFFFFFF080C3E
:10082000000000000C0F05140F000F0B0B0A0A0943
:100830000908089900080040066400AD0112001084
:100840000E6400A3020A0032000100B7030A00C8C8
:1008500000010020202020202020202020202020F7
:1008600020202020202020004675657261206465CC
:1008700020536572766963696F00496E736572749F
:1008800065206D6F6E6564617300446573706163AC
:1008900068616E646F2E2E2E0050726563696F2042
:1008A000313A005469656D706F20313A00507265BD
:1008B00063696F20323A005469656D706F20323A77
:1008C0000043616E63656C617200437265646974B4
:1008D0006F3A0047756172646172004D002A003EF4
:1008E0000044004900410045003F0043004F0052D2
:1008F0000056000059EF09F04BEC23F00009D8B482
:100900002FD020EC22F007C031F008C032F031C007
:100910001EF032C01FF020EE2EF03150D92632509A
:10092000DA22DF50206E37EC1DF020EE2EF0315031
:10093000D9263250DA22DE04D8A40FD031C0D9FF34
:1009400032C0DAFFDF50D8A408D045EC23F0166A95
:10095000C80E156E020EBAEC21F048EC23F012001E
:10096000820E0F6E010E106EA3EC19F00009D8B4C0
:100970001200166AC80E156E000EBAEC21F01200B5
:100980004BEC23F00009D8B440D020EC22F007C093
:1009900031F008C032F047EC22F031C01EF032C016
:1009A0001FF020EE2EF03150D9263250DA22DF50DF
:1009B000206E37EC1DF020EE2EF03150D92632504B
:1009C000DA22DE04D8A410D031C0D9FF32C0DAFF59
:1009D000DF50D8A409D045EC23F0166AC80E156E76
:1009E000040EBAEC21F0B9D720EE2EF03150D92602
:1009F0003250DA22DFB0B1D745EC23F0166AC80EC8
:100A0000156E020EBAEC21F0A8D7790E0F6E010E0A
:100A1000106EA3EC19F00009D8B41200166AC80EC3
:100A2000156E020EBAEC21F012004BEC23F0000917
:100A3000D8B4CED020EC22F007C031F008C032F09C
:100A400031C01EF032C01FF020EE2EF03150D926FA
:100A50003250DA22DF50206E37EC1DF020EE2EF0FF
:100A60003150D9263250DA22180EDE18D8A4A9D077
:100A700031C011F032C012F020EE2EF03150D926E4
:100A80003250DA22DF50136EFFEC1DF00009D8B4AB
:100A900098D045EC23F031C0D9FF32C0DAFFDF50E7
:100AA0000101006F20EE02F03150D9263250DA22D7
:100AB000DF50226E20EE01F03150D9263250DA227A
:100AC000DF50236E2250016F23C002F120EE03F0AD
:100AD0003150D9263250DA22DF50036F20EE04F075
:100AE0003150D9263250DA22DF50046F20EE06F062
:100AF0003150D9263250DA22DF50226E20EE05F036
:100B00003150D9263250DA22DF50236E2250256E22
:100B100023C026F0306A0F0E306401D018D0050EC5
:100B20003024D96EDA6A010EDA2230C022F025C0F4
:100B300023F026C024F0222A03D0D8902432233276
:100B4000222EFBD72350010BDF6E302AE4D7505002
:100B5000F80F0101256F100E256502D0100E256FCC
:100B6000306A15D030503124226E000E3220236EB0
:100B7000070E2224D96E000E2320DA6E150E3024C3
:100B8000E16EE26A010EE222DFCFE7FF302A255153
:100B9000305CD8A0E7D725C130F00F0E306401D00B
:100BA00009D0150E3024D96EDA6A010EDA22DF6A16
:100BB000302AF3D7166AC80E156E060EBAEC21F06D
:100BC000CCD6166AC80E156E040EBAEC21F0C5D646
:100BD000700E0F6E010E106EA3EC19F00009D8B460
:100BE000120031C01EF032C01FF020EE2EF0315046
:100BF000D9263250DA22DF50206E37EC1DF0166A0B
:100C0000C80E156E040EBAEC21F012004BEC23F066
:100C10000009D8B448D020EC22F007C031F008C059
:100C200032F031C01EF032C01FF020EE2EF03150F5
:100C3000D9263250DA22DF50206E37EC1DF020EE3C
:100C40002EF03150D9263250DA22220EDE18D8A4E6
:100C500084D62D6A31C0D9FF32C0DAFF430EDE18C8
:100C6000D8A416D020EE01F03150D9263250DA2225
:100C7000410EDE18D8A40CD020EE02F03150D92657
:100C80003250DA22490EDE18D8A402D0010E2D6EA1
:100C90002DC092F045EC23F0166AC80E156E080EB2
:100CA000BAEC21F05AD6670E0F6E010E106EA3EC4F
:100CB00019F00009D8B41200166AC80E156E060E97
:100CC000BAEC21F012004BEC23F00009D8B42BD081
:100CD00020EC22F007C031F008C032F020EE2EF0F8
:100CE0003150D9263250DA22DE04D8A436D631C0AB
:100CF000D9FF32C0DAFFDF50D8A42FD631C01EF0A2
:100D000032C01FF020EE2EF03150D9263250DA22B8
:100D1000DF50206E37EC1DF0166AC80E156E0C0EF3
:100D2000BAEC21F01AD65E0E0F6E010E106EA3EC17
:100D300019F00009D8B41200166AC80E156E080E14
:100D4000BAEC21F012004BEC23F00009D8B427D004
:100D500020EC22F007C031F008C032F031C01EF0A4
:100D600032C01FF020EE2EF03150D9263250DA2258
:100D7000DF50206E37EC1DF020EE2EF03150D926DA
:100D80003250DA22010EDF64E8D545EC23F0010E83
:100D9000166EF40E156E0E0EBAEC21F0DED5D50EE1
:100DA0000F6E106AA3EC19F00009D8B41200166A8D
:100DB000C80E156E0C0EBAEC21F0120031C01EF0F8
:100DC00032C01FF020EE2EF03150D9263250DA22F8
:100DD000DF50206E37EC1DF04BEC23F00009D8B447
:100DE0007BD020EC22F007C031F008C032F031C0D7
:100DF0001EF032C01FF020EE2EF03150D9263250B6
:100E0000DA22DF50206E37EC1DF031C011F032C015
:100E100012F020EE2EF03150D9263250DA22DF5077
:100E2000136EFFEC1DF00009D8B44FD045EC23F051
:100E300020EE01F03150D9263250DA22DF50226EF6
:100E400031C0D9FF32C0DAFFDF50236E22500101DA
:100E5000266F23C027F120EE2EF03150D9263250D4
:100E6000DA22DF50FD0F386F2E6A15D02E50312454
:100E7000226E000E3220236E020E2224D96E000E46
:100E80002320DA6E280E2E24E16EE26A010EE222A1
:100E9000DFCFE7FF2E2A25512E5CD8A0E7D725C14A
:100EA0002FF00F0E2F6401D009D0280E2F24D96EF9
:100EB000DA6A010EDA22DF6A2F2AF3D7166AC80E21
:100EC000156E100EBAEC21F048D5166AC80E156ED4
:100ED0000E0EBAEC21F041D5550E0F6E010E106EBC
:100EE000A3EC19F00009D8B41200166AC80E156EEA
:100EF0000E0EBAEC21F012004BEC23F00009D8B42E
:100F000039D020EC22F007C031F008C032F031C0F7
:100F10001EF032C01FF020EE2EF03150D926325094
:100F2000DA22DF50206E37EC1DF020EE2EF031502B
:100F3000D9263250DA22DE04D8A40FD531C0D9FF29
:100F400032C0DAFFDF50D8A408D545EC23F0000109
:100F5000916B8E6B166AC80E156E140EBAEC21F0EA
:100F60000A6A0C0E096E0C6A000E0B6E020EDEECA5
:100F70001CF0F3D4CC0E0F6E106AA3EC19F000092C
:100F8000D8B41200166AC80E156E100EBAEC21F015
:100F900012004BEC23F00009D8B42DD020EC22F045
:100FA00007C031F008C032F031C01EF032C01FF06F
:100FB00020EE2EF03150D9263250DA22DF50206E4A
:100FC00037EC1DF020EE2EF03150D9263250DA22C7
:100FD000DE04D8A4C2D431C0D9FF32C0DAFFDF505A
:100FE000D8A4BBD445EC23F0166AC80E156E140EB7
:100FF000BAEC21F0B2D4CC0E0F6E106AA3EC19F04B
:101000000009D8B41200166AC80E156E100EBAEC9C
:1010100021F012004BEC23F00009D8B4F1D020EC01
:1010200022F007C031F008C032F047EC22F031C0A6
:1010300008F032C009F020EE2EF03150D92632509F
:10104000DA22DF500A6ED1EC13F02B6EC7D000010C
:101050007E51D8B418D07C517D11D8B414D07CC046
:1010600011F07DC012F057EC1CF000017D6B000EFA
:101070007C6F7CC07EF0010E166EF40E156E140EA1
:10108000BAEC21F006D0166AC80E156E140EBAEC32
:1010900021F000018E51D8B460D48E6B166AC80E50
:1010A000156E0A0EBAEC21F058D420EE02F0315041
:1010B000D9263250DA2210EE01F03150E1263250BA
:1010C000E222E750236E31C0E1FF32C0E2FFE75079
:1010D0002324246EDE502418D8A429D045EC23F014
:1010E00031C0D9FF32C0DAFFDF500F0B2C6E150E66
:1010F0002C24D96EDA6A010EDA22DF50226E2250D9
:1011000001010303F3CF27F0F4CF28F00A6A0D0E94
:10111000096E27C00BF028C00CF0020EDEEC1CF0AC
:10112000166AC80E156E140EBAEC21F008D045EC04
:1011300023F0166AC80E156E140EBAEC21F031C0F9
:101140001EF032C01FF020EE2EF03150D926325062
:10115000DA22DF50206E37EC1DF0ADEF04F045ECE5
:1011600023F00001B351D8B413D02BEC23F007C007
:1011700029F008C02AF029C007F02AC008F0010EA3
:1011800096EC1BF0166AC80E156E140EBAEC21F020
:101190000001B751D8B408D045EC23F0166AC80E48
:1011A000156E000EBAEC21F047EC22F0166AC80E5C
:1011B000156E140EBAEC21F0ADEF04F031C01EF044
:1011C00032C01FF020EE2EF03150D9263250DA22F4
:1011D000DF50206E37EC1DF0ADEF04F02B50226E87
:1011E000236A2350000AD8A4E9D72250000AD8B4B1
:1011F0002ED70D0AD8B459D7020AD8B4B0D7DED743
:101200004C0E0F6E010E106EA3EC19F00009D8B44D
:101210001200166AC80E156E140EBAEC21F01200F8
:101220004BEC23F00009D8B429D020EC22F007C001
:1012300031F008C032F031C01EF032C01FF020EE95
:101240002EF03150D9263250DA22DF50206E37ECA2
:101250001DF020EE2EF03150D9263250DA22010E48
:10126000DF64ADEF04F045EC23F0010E166EF40ED2
:10127000156E140EBAEC21F0ADEF04F0D50E0F6E22
:10128000106AA3EC19F00009D8B41200166AC80E4F
:10129000156E0C0EBAEC21F01200430E0F6E010E0B
:1012A000106EA3EC19F00009D8B412008FC090F0B2
:1012B000120000019051226E236A2350000AD8A424
:1012C00012002250010AD8B47CEF04F0020AD8B40C
:1012D000C0EF04F0060AD8B415EF05F0020AD8B43E
:1012E00095D40E0AD8B4EFD4020AD8B499D7060A16
:1012F000D8B429D5020AD8B461D51E0AD8B4FCD511
:10130000020AD8B446D6060AD8B484D6020AD8B49B
:1013100012000F0AD8A41200C0D768D1916B0A6AD4
:101320000B0E096E0C6A000E0B6E020EDEEC1CF04A
:10133000000E126E080EDBEC0FF0820E0F6E010E27
:10134000106E050E116E000E126E000E136E000E62
:10135000146EDAEC1DF0166A050E156E010EBAEC6D
:1013600021F01200000E126E0B0EDBEC0FF0790E66
:101370000F6E010E106E320E116E000E126E000E08
:10138000136E000E146EDAEC1DF0166A320E156E36
:10139000030EBAEC21F01200000E126E090EDBEC07
:1013A0000FF0700E0F6E010E106E280E116E000EF3
:1013B000126E000E136E000E146EDAEC1DF0166A3B
:1013C0003C0E156E050EBAEC21F01200020E010162
:1013D00000651AD0000E126E0F0EDBEC0FF0670ED8
:1013E0000F6E010E106E460E116E000E126E000E84
:1013F000136E000E146EDAEC1DF0166A640E156E94
:10140000070EBAEC21F01200166AC80E156E0E0E09
:10141000BAEC21F01200020E010100651AD0010E93
:10142000126E0F0EDBEC0FF05E0E0F6E010E106EE3
:10143000050E116E000E126E000E136E000E146E6D
:10144000DAEC1DF0166A050E156E090EBAEC21F0E5
:101450001200166AC80E156E0E0EBAEC21F01200BC
:10146000020E0101006519D0050E126E0F0EDBECA5
:101470000FF0D50E0F6E106A500E116E000E126E28
:10148000000E136E000E146EDAEC1DF0166A500E8C
:10149000156E0D0EBAEC21F01200166AC80E156E0C
:1014A0000E0EBAEC21F01200000E126E0A0EDBECEA
:1014B0000FF0550E0F6E010E106E460E116E000EDF
:1014C000126E000E136E000E146EDAEC1DF0166A2A
:1014D000320E156E0F0EBAEC21F01200010E126ED4
:1014E0000C0EDBEC0FF0CC0E0F6E106A0F0E116EAF
:1014F000000E126E000E136E000E146EDAEC1DF06C
:10150000166A0F0E156E110EBAEC21F01200000EC5
:10151000126E0C0EDBEC0FF0CC0E0F6E106A050E87
:10152000116E000E126E000E136E000E146EDAECC9
:101530001DF0166A050E156E130EBAEC21F012009E
:10154000000E126E0B0EDBEC0FF04C0E0F6E010E48
:10155000106E0A0E116E000E126E000E136E000E4B
:10156000146EDAEC1DF0166A0A0E156E150EBAEC42
:1015700021F012007E51D8B40DD07D5104E1020E4D
:101580007C5DD8A007D07E6B7CC011F07DC012F0CE
:1015900057EC1CF0010E166EF40E156E140EBAEC1C
:1015A00021F01200020E0101006519D0050E126E25
:1015B0000F0EDBEC0FF0D50E0F6E106A500E116E91
:1015C000000E126E000E136E000E146EDAEC1DF09B
:1015D000166A500E156E0B0EBAEC21F01200166A48
:1015E000C80E156E140EBAEC21F0120000019051D5
:1015F000386E396A3950000AD8A412003850000AEF
:10160000D8B48CD6020AD8B4ADD6060AD8B4C4D69B
:10161000020AD8B4DBD60E0AD8B4FDD6020AD8B472
:10162000C1D7060AD8B41CD7020AD8B43DD71E0ABF
:10163000D8B454D7020AD8B46AD7060AD8B480D727
:10164000020AD8A4120096D780A002D0010E01D0C1
:10165000000E216E80A202D0010E01D0000E226E7B
:1016600080A402D0010E01D0000E236E83A002D010
:10167000010E01D0000E266E83A202D0010E01D011
:10168000000E246E83A402D0010E01D0000E256E40
:1016900000019D51D8A418D0A351D8B415D0215021
:1016A000D8A412D0010E9D6F010EAE6FC10E0F6E49
:1016B000010E106E1E0E116E000E126E000E136ED5
:1016C000000E146EDAEC1DF000019D51D8B40BD061
:1016D000C10E0F6E010E106EA3EC19F00009D8B404
:1016E00002D000019D6B00019C51D8A418D0A251DA
:1016F000D8B415D02250D8A412D0010E9C6F010E80
:10170000AD6FB80E0F6E010E106E1E0E116E000E34
:10171000126E000E136E000E146EDAEC1DF0000156
:101720009C51D8B40BD0B80E0F6E010E106EA3EC06
:1017300019F00009D8B402D000019C6B00019B5144
:10174000D8A418D0A151D8B415D02350D8A412D001
:10175000010E9B6F010EAC6FAF0E0F6E010E106E7F
:101760001E0E116E000E126E000E136E000E146E21
:10177000DAEC1DF000019B51D8B40BD0AF0E0F6E08
:10178000010E106EA3EC19F00009D8B402D00001CC
:101790009B6B00019A51D8A424D0A051D8B421D079
:1017A0002650D8A41ED0010E9A6F010E4C6ECDECBF
:1017B00021F007C06CF008C06DF009C06EF00AC0DF
:1017C0006FF00001956BA60E0F6E010E106E1E0ECF
:1017D000116E000E126E000E136E000E146EDAEC17
:1017E0001DF000019A51D8B423D02650D8A420D09F
:1017F0009551D8A41DD0CDEC21F000016C51075CAF
:101800001D6E6D5108581E6E6E5109581F6E6F5136
:101810000A58206E20501F1006E1B80E1D5C0B0EFA
:101820001E58D8A005D0010EA56F4C6A010E956F09
:101830009A51D8B40FD02650D8B40CD0A60E0F6E43
:10184000010E106EA3EC19F00009D8B403D000010A
:101850009A6BA56B00019951D8A418D09F51D8B4A8
:1018600015D02450D8A412D0010E996F010EA86F84
:101870009D0E0F6E010E106E1E0E116E000E126E7A
:10188000000E136E000E146EDAEC1DF0000199517B
:10189000D8B40BD09D0E0F6E010E106EA3EC19F094
:1018A0000009D8B402D00001996B00019851D8A466
:1018B00018D09E51D8B415D02550D8A412D0010EFE
:1018C000986F010EA96F940E0F6E010E106E1E0E12
:1018D000116E000E126E000E136E000E146EDAEC16
:1018E0001DF000019851D8B40BD0940E0F6E010E6C
:1018F000106EA3EC19F00009D8B402D00001986B67
:1019000021C0A3F022C0A2F023C0A1F026C0A0F005
:1019100024C09FF025C09EF02450D8A402D0010E10
:1019200001D0000E0001976F2550D8A402D0010EFF
:1019300001D0000E966F1200010E0101ED6F030E33
:101940004B6004D0E96B000EE86F06D0FE0E4B240E
:10195000E86FE96BFF0EE923E8C1ECF1ECC1EEF1B1
:10196000FED0EE514B18D8B402D0660E01D0DF0E77
:10197000EA6F010E0B6EEAC10CF00C50D8A4080EF1
:101980000D6EED51C6EC17F0040E0101EE619DD015
:10199000D30E0B6E010E0C6EEE51080DF350330F8B
:1019A000316E31C0F6FF080EF76E0800F5CF0DF06E
:1019B000EE51080DF350330F326E32C0F6FF080EB1
:1019C000F76E0900F5CF07F0080E086E11EC1FF056
:1019D00007C00EF008C00FF0C8EC1BF00101EE517B
:1019E000080DF350330F316E31C0F6FF080EF76E5D
:1019F0000900F5CF07F0080E086E11EC1FF0D30EAA
:101A00000724D96E010E0820DA6EDF6A020E0B6E13
:101A1000D30E0C6E010E0D6E0101ED51C6EC17F0E8
:101A20004A50D8B41AD00101EE514B18D8A415D0A1
:101A30000001A651D8A402D0DD0E01D0660E01012E
:101A4000EB6F0B0E0B6EEBC10CF00C50D8A4080E14
:101A50000D6EED51C6EC17F00CD00B0E0B6E660E32
:101A60000C6E0C50D8A4080E0D6E0101ED51C6ECA1
:101A700017F00101EE51020DF350600FD96EDA6AD2
:101A8000DECF0EF0DDCF0FF0D30E106E010E116E13
:101A9000DEEC16F0D30E2F6E010E306EF2EC21F05C
:101AA000D30E0B6E010E0C6E060E0D6E200E0E6E1A
:101AB0000FEC18F00C0E0B6ED30E0C6E010E0D6EAB
:101AC0000101ED51C6EC17F047D0040EEE19D8A471
:101AD00022D0D30E0B6E010E0C6ED30E0D6E0F6A5C
:101AE000070E0E6EC8EC1BF00101DA6BD30E0B6E05
:101AF000010E0C6E100E0D6E200E0E6E63EC1DF0BE
:101B0000020E0B6ED30E0C6E010E0D6E0101ED5127
:101B1000C6EC17F021D0D30E0B6E010E0C6EC10E69
:101B20000D6E0F6A080E0E6EC8EC1BF00101DB6B28
:101B3000D30E0B6E010E0C6E100E0D6E200E0E6E7F
:101B400063EC1DF0020E0B6ED30E0C6E010E0D6ECB
:101B50000101ED51C6EC17F00101ED2BEE2BEC511C
:101B6000316E326A040E3126000E3222EE51336E8F
:101B7000346A3150335C3450800A356E3250800AFA
:101B80003558D8B011D0050EEE65EBD60DD0010E4C
:101B90000B6E530E0C6E0C50D8A4080E0D6EED514A
:101BA000C6EC17F00101ED2B040EED65F0D7120025
:101BB000CDEC21F000017051075C236E7151085883
:101BC000246E72510958256E73510A58266E26509C
:101BD000251006E12C0E235C010E2458D8A012D04B
:101BE000CDEC21F007C070F008C071F009C072F0B0
:101BF0000AC073F00001A651D8A402D0010E01D092
:101C0000000EA66F4C50D8B416D04C6AEF6BE66B42
:101C1000040E4B6008D04A50D8A402D0010E01D067
:101C2000000E4A6E08D0040E4B18D8B469EC1EF0B2
:101C3000010E0001A76F2B6AA951D8B405D0A96B7A
:101C4000010E2B6EEF6B0BD0E70E0F6E63EC23F0E3
:101C50007CEC11F00009D8B402D0010E2B6E2B5091
:101C6000D8B455D04A50D8B44BD0040E4B6048D0AD
:101C70004B50080DF350330F2D6E4B50020DF350A7
:101C8000600FD96EDA6ADECF23F0DDCF24F02DC0ED
:101C900025F0060E252625C0F6FF080EF76E235008
:101CA0000900F524266E24500900F520276E2DC06A
:101CB00028F0040E282628C0F6FF080EF76E2650DE
:101CC0000900F55C27500900F558D8A020D02DC098
:101CD00023F0060E232623C0F6FF080EF76E090038
:101CE000F5CF24F00900F5CF25F04B50020DF3504D
:101CF000600FD96EDA6A2450DE262550DD2207D027
:101D00004B50D8B404D04B060001EF6BE66B2C6A45
:101D10000001A851D8B405D0A86B010E2C6EE66B5B
:101D20000BD0DE0E0F6E65EC23F07CEC11F0000999
:101D3000D8B402D0010E2C6E2C50D8B412004A50E8
:101D4000D8B44BD0040E4B6048D04B50080DF35024
:101D5000330F2E6E2EC023F0060E232623C0F6FF6F
:101D6000080EF76E0900F5CF24F00900F5CF25F035
:101D70002EC026F0020E262626C0F6FF080EF76EAD
:101D800024500900F524276E25500900F520286EFF
:101D90004B50020DF350600FD96EDA6A2750DE5CAB
:101DA0002850DE58D8A012002EC023F0060E23269D
:101DB00023C0F6FF080EF76E0900F5CF24F00900E6
:101DC000F5CF25F04B50020DF350600FD96EDA6A53
:101DD0002450DE5E2550DD5A1200050E4B601200C5
:101DE0004B2A0001EF6BE66B12000F0EC16E070E5F
:101DF000B46E23EC1EF003EC22F0E6EC22F0800E31
:101E0000076E250E086E000E096E000E0A6EA7EC16
:101E100021F09E9A9F8A9D8A5FEC23F00001FB6B64
:101E2000100E446E940EE82EFED7442EFCD700D040
:101E30000001FB2BFB29D8A4F3D7C5EC1AF019EC51
:101E400023F0FC6B100E446E940EE82EFED7442E49
:101E5000FCD700D00001FC2BFC29D8A4F3D78EECD2
:101E60001AF01FEC23F06BEC23F039EC23F02DEC8F
:101E700022F03DEC23F00DEC23F035EC23F057EC91
:101E800018F0C4EC22F051EC23F0FD6B100E446E00
:101E9000940EE82EFED7442EFCD700D00001FD2B77
:101EA000FD29D8A4F3D7D08EF1849F90F294F28AC2
:101EB0009E909D80F28CF28E7CEC17F08DEC09F0F8
:101EC0007AEC04F08CEC1EF0DDEC12F0EDEC1FF07F
:101ED00024EC0BF07BEC20F027EC20F08AEC16F0E1
:101EE000D10E8A5D070E8B59D8A0E6D70BEC1DF0FA
:101EF00000018B6B000E8A6F61EC23F0FA6FFAC061
:101F00000FF0106AF00E116E126A1BEC15F0F00E55
:101F10002F6E306AF2EC21F0010E0B6EF00E0C6E9B
:101F20000D6A040EC6EC17F0040E0B6E73EC1FF076
:101F3000446E44C00CF00C50D8A4080E0D6E040E74
:101F4000C6EC17F0060E0B6E43EC20F0446E44C056
:101F50000CF00C50D8A4080E0D6E040EC6EC17F051
:101F6000080E0B6E27EC21F0446E44C00CF00C50B0
:101F7000D8A4080E0D6E040EC6EC17F00A0E0B6EF8
:101F800053EC1FF0446E44C00CF00C50D8A4080E63
:101F90000D6E040EC6EC17F00C0E0B6EAEEC1EF0C0
:101FA000446E44C00CF00C50D8A4080E0D6E040E04
:101FB000C6EC17F081D7376EB3D0310EF66E080E2F
:101FC000F76E0900F5CF2CF00A00F5CF2DF02C0E9E
:101FD000096E020E0A6ED0EC1FF0B5D02F0EF66E11
:101FE000080EF76E0900F5CF2EF00A00F5CF2FF09E
:101FF0002E0E096E020E0A6ED0EC1FF0A4D02D0E2C
:10200000F66E080EF76E0900F5CF30F00A00F5CF36
:1020100031F0300E096E020E0A6ED0EC1FF093D034
:102020002B0EF66E080EF76E0900F5CF32F00A009F
:10203000F5CF33F0320E096E020E0A6ED0EC1FF0AF
:1020400082D01250D8A413D01F0EF66E080EF76E71
:1020500020EE1AF0050E0900F5CFDEFFE806FBE2E0
:102060001A0E096E060E0A6ED0EC1FF06CD0190E17
:10207000F66E080EF76E20EE20F0050E0900F5CF83
:10208000DEFFE806FBE2200E096E060E0A6ED0ECBB
:102090001FF059D0280EF66E080EF76E0900F5CF26
:1020A00026F00900F5CF27F00A00F5CF28F0260E1C
:1020B000096E030E0A6ED0EC1FF045D0120EF66EBC
:1020C000080EF76E20EE13F0060E0900F5CFDEFFC6
:1020D000E806FBE2130E096E070E0A6ED0EC1FF045
:1020E00032D0250EF66E080EF76E0900F5CF29F0F6
:1020F0000900F5CF2AF00A00F5CF2BF0290E096E62
:10210000030E0A6ED0EC1FF01ED01250000AD8B495
:10211000C1D7010AD8B4D2D7040AD8B4E2D713D0B1
:102120003750080AD8B449D7010AD8B457D7030A98
:10213000D8B465D7010AD8B473D7070AD8B481D701
:10214000030AD8B4E2D70C0E3718D8B407D00F0E54
:102150003718D8B403D0356A010E02D0356A020EA2
:10216000346E34C036F012C00FF036C010F0375065
:10217000B0EC20F01200A7D0010E45EC14F01200D4
:10218000060E45EC14F0126A000E116E080EB3EC48
:1021900014F012003C50D96EDA6A030ED926DECF55
:1021A00011F0DDCF12F0030EB3EC14F0010E46EC8B
:1021B0001EF012003C50D96EDA6A030ED926DECF2B
:1021C00007F0DDCF08F0010E96EC1BF012003C503A
:1021D000D96EDA6A010ED926DECF3DF0DDCF3EF0B2
:1021E0003E50000AD8A412003D50010AD8B4E2D7EC
:1021F0000A0AD8B4C5D7070AD8B4BED7010AD8B4DA
:10220000C9D71D0A1200020E45EC14F01200020E8E
:102210002EEC17F01200030E45EC14F0000E46EC05
:102220001EF012003C50D96EDA6A010ED926DECFBC
:102230003DF0DDCF3EF03E50000AD8A412003D50E4
:10224000000AD8B4E8D7010AD8B4DDD7030AD8A465
:102250001200DDD7050E45EC14F01200126A000ED4
:10226000116E080EB3EC14F012003C50D96EDA6A0D
:10227000010ED926DECF3DF0DDCF3EF03E50000A04
:10228000D8A412003D50040AD8B4E4D7010AD8A457
:102290001200E4D7086A000E076E100E96EC1BF0D1
:1022A00012003C50D96EDA6A010ED926DECF3DF01D
:1022B000DDCF3EF03E50000AD8A412003D50100A77
:1022C000D8A41200E7D73C50D96EDA6ADF503D6ED1
:1022D0003E6A3E50000AD8A412003D50010AD8B40C
:1022E000E0D7030AD8B473D7010AD8B49BD7070A3A
:1022F000D8B4BBD7010A12001C6ECDEC21F007C088
:102300001FF008C020F009C021F00AC022F01C50C4
:10231000D8A408D00F50D96EDA6A080ED926DF6A21
:10232000000E12000F50D96EDA6A080ED926DF505F
:10233000D8A420D00F50D96EDA6A080ED926010E23
:10234000DF6E0F50D96EDA6A1FC0DEFF20C0DEFFDD
:1023500021C0DEFF22C0DEFF0F50D96EDA6A040E04
:10236000D9261FC0DEFF20C0DEFF21C0DEFF22C055
:10237000DEFFD6D70F50D96EDA6ADECF10F0DECF8F
:1023800011F0DECF12F0DECF13F010501F5C146E90
:1023900011502058156E12502158166E13502258A5
:1023A000176E1750161006E1F40E145C010E155846
:1023B000D8A0B6D70F50D96EDA6ADECF10F0DECFD4
:1023C00011F0DECF12F0DECF13F010501F5C146E50
:1023D00011502058156E12502158166E1350225865
:1023E000176E1750161009E1D10E145C070E155820
:1023F000D8B003D01E6AC80E02D01E6A500E1D6EE1
:102400001DC018F01EC019F0000E19BEFF0E1A6E86
:102410001B6E0F50D96EDA6A040ED926DECF10F08B
:10242000DECF11F0DECF12F0DECF13F010501F5CC4
:10243000146E11502058156E12502158166E1350FC
:102440002258176E1850145C195015581A50165807
:102450001B501758D8A064D70F50D96EDA6A040EF3
:10246000D9261FC0DEFF20C0DEFF21C0DEFF22C054
:10247000DEFF010E1200000E286E000E296E000E07
:102480002A6E000E256E000E266E000E276E0DC001
:1024900025F00EC026F00BC028F00CC029F0FF0E6E
:1024A0002814116EFF0E2914126E7F0E2A14136E5B
:1024B000FF0E2514146EFF0E2614156E7F0E2714C2
:1024C000166E1150145C1250155813501658D8B08F
:1024D0005CD0FF0E2514116EFF0E2614126E7F0EB7
:1024E0002714136E1150146E1250156E1350166E81
:1024F000176A0F501424186E10501520196E000E14
:1025000016201A6E000E17201B6EFF0E28141C6E6C
:10251000FF0E29141D6E7F0E2A141E6E1C501F6E96
:102520001D50206E1E50216E226A18501F5C1950DB
:1025300020581A5021582250800A236E1B50800ABE
:102540002358D8B022D00F502526105026220F50E5
:102550002826105029222506D8A0260625C0D9FFF6
:1025600026C0DAFFDF50246E2806D8A0290628C02E
:10257000D9FF29C0DAFF24C0DFFF0F06D8A010065C
:102580000F501010D8B41200E6D70F501010D8B466
:10259000120025C0D9FF26C0DAFFDF50246E254A7D
:1025A000262A28C0D9FF29C0DAFF24C0DFFF284A25
:1025B000292A0F06D8A01006E8D76AD00001AC6B14
:1025C000AD6BAE6B120067EC23F01F6E0001AE51D5
:1025D000D8B411D01F50D96EDA6ADECF07F0DDCF44
:1025E00008F0B0EC22F00009D8B405D0AE6B010EB3
:1025F000DDEC15F01200AD51D8B413D01F50D96ED8
:10260000DA6A020ED926DECF07F0DDCF08F0B0EC93
:1026100022F00009D8B405D0AD6B020EDDEC15F048
:102620001200AC51D8B41200AC6B0A6A050E096EE8
:102630002BEC23F007C00BF008C00CF0040EDEEC0E
:102640001CF0000EFEEC22F01200CA0E0F6E010EFE
:10265000106EA3EC19F00009D8B4120000017F51EC
:102660008011D8B412D07F07D8A08007CA0E0F6E91
:10267000010E106EE80E116E030E126E000E136E38
:10268000000E146EDAEC1DF0120069EC21F012005D
:102690004E501D6E1E6A1E50000AD8A412001D5016
:1026A000000AD8B48BD7010AD8B48DD7030AD8B49E
:1026B000CCD7010A12000001AA514D18D8A4B2ECDF
:1026C0001FF0AA514D18D8A451D0455084194EE19D
:1026D00046508519D8B4120049D0010E0B6E7A0EFF
:1026E0000C6E0C50D8A4080E0D6E010EC6EC17F03F
:1026F00051D0010E0B6ECA0E0C6E0C50D8A4080EF1
:102700000D6E010EC6EC17F045C00FF046C010F07C
:10271000390E116E010E126E1BEC15F0390E2F6E74
:10272000010E306EF2EC21F00A0E0B6E390E0C6EBB
:10273000010E0D6E010EC6EC17F02CD0010E0B6EC3
:102740008A0E0C6E0C50D8A4080E0D6E010EC6EC4D
:1027500017F020D0010E0B6E680E0C6E0C50D8A432
:10276000080E0D6E010EC6EC17F014D04D50316EF0
:10277000326A3250000AD8A40DD03150000AD8B4C1
:10278000ACD7010AD8B4B5D7030AD8B4D7D7010A51
:10279000D8B4E0D74DC0AAF045C084F046C085F05B
:1027A00012000A04D8A409D008C0D9FF09C0DAFF72
:1027B000DF50D8A402D0000E1200030E0A18D8A4CD
:1027C00026D008C0D9FF09C0DAFFDF50C00B400A8D
:1027D000D8A41DD020EE02F00850D9260950DA22E4
:1027E00010EE01F00850E1260950E222E7500C6E8D
:1027F00008C0E1FF09C0E2FFE7500C240D6EDE5077
:102800000D18D8A402D00D0E12000E0E12000AB040
:1028100021D008C0D9FF09C0DAFFDF50C00B400A41
:10282000D8B418D00F6A1AD00F5008240B6E000EBF
:1028300009200C6E010E0B24D96E000E0C20DA6EEE
:102840000F500824E16E000E0920E26EDE50E618FB
:10285000D8B402D0110E1200020E0F260A500F5CDF
:10286000D8A0E2D70F6A0BD00F500824D96E000E03
:102870000920DA6EDF5082EC15F0020E0F260A50A6
:102880000F5CD8A0F1D70F0E12003B6E57D03B045F
:10289000D8A41200010E84EC1CF01200020E84EC8D
:1028A0001CF01200040E84EC1CF012003B50396E38
:1028B0003A6A3A50000AD8A412003950020AD8B431
:1028C000EDD7040AD8A41200EDD7030E84EC1CF057
:1028D0001200010E84EC1CF01200040E84EC1CF0BB
:1028E00012003B50396E3A6A3A50000AD8A41200DE
:1028F0003950030AD8B4EDD7070AD8B4E6D7020A8C
:10290000D8A41200EAD7010E84EC1CF01200040EC9
:1029100084EC1CF012003B50396E3A6A3A50000ABF
:10292000D8A412003950050AD8B4EDD7030AD8A4A8
:102930001200EDD7040E84EC1CF012005450396ED6
:102940003A6A3A50000AD8A4F5D73950010AD8B4E7
:10295000ADD7030AD8B4C5D7010AD8B4DCD7070A63
:10296000D8B495D7E7D7156E57D0030E1518D8A44D
:10297000120011501210D8B4120011C007F012C08A
:1029800008F025EC23F0A5EC22F0010EB1EC1CF0D0
:10299000120011501210D8B4120011C007F012C06A
:1029A00008F025EC23F0A5EC22F00A6A020E096E6D
:1029B0002BEC23F007C00BF008C00CF0030EDEEC8C
:1029C0001CF0120011C007F012C008F053EC22F006
:1029D00093EC21F0000EB1EC1CF0120093EC21F00E
:1029E000000EB1EC1CF012001550136E146A145056
:1029F000000AD8A412001350030AD8B4CAD7070A91
:102A0000D8B4E0D7010AD8B4DDD7020AD8B4E6D7E3
:102A10000F0AD8A41200E2D75150136E146A145052
:102A2000000AD8A412001350000AD8B49ED7010A95
:102A3000D8A41200D9D71C6A1B6A1A6A0F5010104A
:102A4000D8A40ED011C0D9FF12C0DAFF300EDF6E4D
:102A500020EE01F01150D9261250DA22DF6A12005E
:102A600010AE25D0010E1A6E0F6C101ED8B0102AB1
:102A70001ED01C50130FD96EDA6A0FC007F010C0B9
:102A800008F00A6A0A0E096E57EC1AF00750300F68
:102A9000DF6E1C2A0FC007F010C008F00A6A0A0E89
:102AA000096E63EC19F007C00FF008C010F010BEFB
:102AB00005D01050DEE10F04D8B0DBD71A50D8B4DF
:102AC00016D01C50130FD96EDA6A2D0EDF6E1C2A39
:102AD0000ED01C061C50130FD96EDA6A1B5011243D
:102AE000E16E000E1220E26EDFCFE7FF1B2A1C50C2
:102AF000D8A4EFD71B501124D96E000E1220DA6E25
:102B0000DF6A1200076E30D0010E0001B36F1200B1
:102B1000010E0001B66F1200010E0001B56F120028
:102B2000010E0001B76F1200010E0001B86F120014
:102B3000010E0001BD6F1200010E0001BA6F1200FC
:102B4000010E0001BE6F1200010E0001BC6F1200E9
:102B5000010E0001B96F1200010E0001BB6F1200DF
:102B6000010E0001BF6F12000750010AD8B4CCD784
:102B7000030AD8B4CDD7010AD8B4CED7070AD8B43F
:102B8000D3D7010AD8B4E4D7030AD8B4D1D7010AFD
:102B9000D8B4D2D70F0AD8B4D3D7010AD8B4DCD767
:102BA000030AD8B4B5D7010AD8B4BAD7070AD8B43B
:102BB000CBD7010AD8A41200D3D7186E67EC23F044
:102BC000196E32D01950D96EDA6A040ED926DECFCA
:102BD0007FF0DDCF80F0010E0001816F1950D96EBA
:102BE000DA6ADECF11F0DDCF12F0040EB3EC14F090
:102BF0008A8028D01950D96EDA6A060ED926DECF1F
:102C00007FF0DDCF80F0020E0001816F1950D96E88
:102C1000DA6A020ED926DECF11F0DDCF12F0050EF2
:102C2000B3EC14F08A820ED01850166E176A175043
:102C3000000AD8A407D01650010AD8B4C3D7030A93
:102C4000D8B4D8D7CA0E0F6E010E106EE80E116EF2
:102C5000030E126E000E136E000E146EDAEC1DF0F1
:102C6000020EFEEC22F012000600D9CF03F0DACFFC
:102C700004F0F2A40ED0F294D10ED76E200ED66ED0
:102C8000010E00017427000E7523762377238A4BEB
:102C90008B2B9EA008D09E906D0ECF6E840ECE6EB4
:102CA0000001884B892B9EAA2FD089AA02D0010E41
:102CB00001D0000EFF0A026E023A02468950021845
:102CC000DF0B0218896EABA203D0AB98AB881CD087
:102CD000000EABB0010E056EAECF06F0ABB414D053
:102CE0002E0E506011D02E0E5024D96EDA6A020ECC
:102CF000DA2206C0DFFF000E5024D96EDA6A020E17
:102D0000DA2205C0DFFF502A04C0DAFF03C0D9FF72
:102D1000019211000001FE51D8B412003DD049507B
:102D2000D8A403D04850800F0FD04904D8A403D0B2
:102D30004850C00F09D0020E4918D8A403D04850FB
:102D4000940F02D04850D40F0C6E0C509AEC22F025
:102D5000020E0001946F12004950140D000EF3246E
:102D60000A6E030EF4200B6E48500A24D96E000E32
:102D70000B20DA6EDF508FEC22F0482A130E4864E5
:102D800002D0486A492A030E496403D0496A000107
:102D9000FE6B0001946B120094510A6E0B6A0B508B
:102DA000000AD8A412000A50000AD8B4B8D7010A01
:102DB000D8B41200030AD8A41200CED7186A176A32
:102DC0000E500F10D8A42CD010C0D9FF11C0DAFFBC
:102DD000300EDF6E20EE01F01050D9261150DA22AD
:102DE000DF6A12001850120FD96EDA6A0EC007F0AF
:102DF0000FC008F00A6A0A0E096EF0EC1EF00750C8
:102E0000300FDF6E182A0EC007F00FC008F00A6AF4
:102E10000A0E096E8CEC1DF007C00EF008C00FF012
:102E20000E500F10D8B40FD0DDD718061850120F5F
:102E3000D96EDA6A17501024E16E000E1120E26E8E
:102E4000DFCFE7FF172A1850D8A4EFD71750102468
:102E5000D96E000E1120DA6EDF6A1200356E34D0A2
:102E60004D6A120045C084F046C085F02BEC23F07B
:102E700007C045F008C046F0010E4D6E010E0B6E06
:102E8000CA0E0C6E0C50D8A4080E0D6E010EC6ECC6
:102E900017F045C031F046C032F096EC20F0120039
:102EA0004D04D8A4120045C084F046C085F02BEC38
:102EB00023F007C045F008C046F0EBD7020E4D6E78
:102EC0001200030E4D6E12003550336E346A3450CA
:102ED000000AD8A412003350000AD8B4C1D7010A9E
:102EE000D8B4C0D7030AD8B4DBD7010AD8B4E6D720
:102EF000070AD8A41200E5D736D01E0E076E1D0EA5
:102F0000086E93EC1FF00009D8B432D08B0E0F6E10
:102F1000010E106E0A0E116E000E126E000E136E70
:102F2000000E146EDAEC1DF02D0E476402D0476AD5
:102F30001200940E4724D96EDA6A020EDA221EC0FD
:102F4000DFFF472A1D50D8B405D0FAEC20F04EEC34
:102F500023F012004704D8A406D01E50D8A403D0F2
:102F6000FAEC20F01200EEEC22F00009D8A4C5D74C
:102F70004750D8B412008B0E0F6E010E106EA3ECEA
:102F800019F00009D8B41200476AE1D7126E125046
:102F9000D8B41200040E126401D012001204106E94
:102FA0000B04116E22D00CC0F6FF0DC0F7FFF86ABB
:102FB0001050140D000EF3240E6E030EF4200F6E4D
:102FC00011500E24D96E000E0F20DA6E070EF76432
:102FD00003D00800F55005D0F6CFE9FFF7CFEAFFA0
:102FE000EF50DF6E0C4A0D2A112A0CC0F6FF0DC0FF
:102FF000F7FFF86A070EF76403D00800F55005D014
:10300000F6CFE9FFF7CFEAFFEF500009D8B403D0BD
:10301000130E1164C8D7010E0001FE6F12000BC021
:1030200007F00CC008F011EC1FF00750176E0D50A0
:10303000175CD8B01200140E0D6402D0140E0D6E81
:1030400017500D5C156E17C018F018BE20D018C0B0
:103050000FF0106A0FBE10060F500B24D96E1050DF
:103060000C20DA6E18C011F0126A11BE120611504F
:103070000B24136E12500C20146E15501324E16EA5
:10308000000E1420E26EDFCFE7FF1806DED7166AC7
:1030900009D016500B24D96E000E0C20DA6E0EC02B
:1030A000DFFF162A1550165CD8B01200F2D7AC6BB1
:1030B000AD6BAE6BA96BA86B4C6AA56B9B6B9C6BE5
:1030C0009D6B986B996B9A6B956B000E6C6F000EF5
:1030D0006D6F000E6E6F000E6F6F0F0EC16E070EDC
:1030E000B46E92809282928495809582958480A01D
:1030F00002D0010E01D0000EA36F80A202D0010EFB
:1031000001D0000EA26F80A402D0010E01D0000EEB
:10311000A16F83A002D0010E01D0000EA06F83A288
:1031200002D0010E01D0000E9F6F83A402D0010EC9
:1031300001D0000E9E6F976B966B12000D6E67ECC0
:1031400023F00E6E2AD00E50D96EDA6ADECF09F067
:10315000DDCF0AF012000E50D96EDA6A020ED926BF
:10316000DECF09F0DDCF0AF012000E50D96EDA6A18
:10317000040ED926DECF09F0DDCF0AF012000E5082
:10318000D96EDA6A060ED926DECF09F0DDCF0AF055
:1031900012000A6A000E096E12000D500B6E0C6AC6
:1031A0000C50000AD8A4F5D70B50000AD8B4CBD7DE
:1031B000010AD8B4D0D7030AD8B4D7D7010AD8B4F3
:1031C000DED7E7D7000E0F6E000E106E000E116EE8
:1031D000000E126E0B500C100D100E10D8B42AD029
:1031E000010E136E06D0D8900B360C360D360E3607
:1031F000132A0EAEF8D7D8900F3610361136123685
:103200000B50075C0C5008580D5009580E500A58C6
:10321000D8A009D00B50075E0C50085A0D50095A1F
:103220000E500A5A0F80D8900E320D320C320B32EB
:10323000132EE1D70FC007F010C008F011C009F03D
:1032400012C00AF01200010E1D6E010E0B6E530E1D
:103250000C6E0C50D8A4080E0D6E030EC6EC17F0C1
:10326000180E076E13C0D9FF14C0DAFFDF5028EC28
:103270001CF0010E0B6E180E0C6E0D6A030EC6ECE0
:1032800017F0030E1D261C6A16D0180E076E1C5070
:103290001524D96E000E1620DA6EDF5028EC1CF0D3
:1032A0001DC00BF0180E0C6E0D6A030EC6EC17F065
:1032B000030E1D261C2A17501C5CD8B01200120EDB
:1032C0001D64E3D712000C6A0AAE06D0096C0A1E10
:1032D000D8B00A2A010E0C6E08AE06D0076C081E84
:1032E000D8B0082A010E0C1A0E6A000E0D6E095095
:1032F0000A10D8B41CD0010E0B6E04D0D890093639
:103300000A360B2A0AAEFAD7D8900D360E36095077
:10331000075C0A500858D8A005D00950075E0A502B
:10332000085A0D80D8900A3209320B2EEDD70C5076
:10333000D8B404D00D6C0E1ED8B00E2A0DC007F004
:103340000EC008F0120020EE08F00F50D9261050E1
:10335000DA22DF50D8A402D0000E120020EE04F0D2
:103360000F50D9261050DA220FC0E1FF10C0E2FF43
:10337000E6CF15F0E6CF16F0E6CF17F0E6CF18F05F
:10338000CDEC21F01550075C196E165008581A6ED6
:10339000175009581B6E18500A581C6EDE50195CE5
:1033A000DE501A58DE501B58DE501C58D8A0D4D717
:1033B00020EE08F00F50D9261050DA22DF6A010EF5
:1033C0001200086E08C007F0010E0716073A8A506F
:1033D0000718EF0B07188A6E08C007F0D89007325D
:1033E000010E0716073A07468A500718DF0B071821
:1033F0008A6E08C007F0D8900732D8900732010EC5
:103400000716073A074607468A500718BF0B0718E2
:103410008A6E08C007F0D8900732D8900732D8904B
:103420000732010E0716073207328A5007187F0B42
:1034300007188A6ECDEC22F01200D20EF66E460E00
:10344000F76E000EF86E0900F5CFFEF00900F5CF1B
:10345000FFF0D80EF66E460EF76E000EF86E0900FD
:10346000F5CF54F003EE00F0A00EEE6AE806FDE1A1
:1034700002EE00F0C40EEE6AE806FDE101EE00F097
:10348000D30EEE6AE806FDE100EE60F0900EEE6A03
:10349000E806FDE100EE45F00F0EEE6AE806FDE1FC
:1034A00001900192000EF86E0001F5EF0EF00C6A2B
:1034B00008AE06D0076C081ED8B0082A010E0C6EA4
:1034C0000AAE04D0096C0A1ED8B00A2A09500A10A4
:1034D000D8B418D0010E0B6E04D0D89009360A3635
:1034E0000B2A0AAEFAD70950075C0A500858D8A030
:1034F00004D00950075E0A50085AD8900A3209329F
:103500000B2EF1D70C50D8B404D0076C081ED8B0DD
:10351000082A07C007F008C008F012000A6A000E67
:10352000096E120E0B6E0D6A020E0C6EC9EC20F0C5
:103530005A0E121804E1A50E1318D8B41BD053EC80
:1035400021F0A50E136E5A0E126E0D6A020E0C6E4D
:10355000C00E0E6E106A0C0E0F6E5FEC20F00D6A3E
:10356000000E0C6E120E0E6E106A020E0F6E5FECE5
:1035700020F012000A6A020E096EC00E0B6E0D6A70
:103580000C0E0C6EC9EC20F01200936A8A6A020ECF
:103590000B6E380E0A6EAD0EE82EFED70A2EFCD743
:1035A0000B2EFAD700000C6A8A94030EE1EC19F096
:1035B0004E0E0A6EEB0EE82EFED70A2EFCD7000048
:1035C0000C2A020E0C64F0D7020EE1EC19F0280E62
:1035D0009AEC22F00C0E9AEC22F0060E9AEC22F0F5
:1035E000010E9AEC22F0200E0A6E2A0EE82EFED76B
:1035F0000A2EFCD712005104D8B402D0000E1200DB
:10360000CDEC21F000017851075C146E7951085817
:10361000156E7A510958166E7B510A58176E17505D
:103620001610ECE1300E145C750E1558D8B0E6D7C4
:1036300014501708076E790E1554086E000E1654B4
:10364000096E000E17540A6EE80E0B6E030E0C6E18
:10365000000E0D6E000E0E6EE2EC18F00750120018
:103660000D6E1CD009C007F00AC008F083EC22F0F0
:10367000120009C007F00AC008F077EC22F012002F
:1036800009C007F00AC008F06BEC22F0120009C074
:1036900007F00AC008F05FEC22F012000D500B6E2C
:1036A0000C6A0C50000AD8A412000B50000AD8B4BF
:1036B000D9D7010AD8B4DDD7030AD8B4E1D7010AB3
:1036C000D8A41200E4D72BC02DF02CC02EF02B5024
:1036D0002C10D8B4120002D02D4A2E2A2DC0D9FFAA
:1036E0002EC0DAFFDF507EEC21F00009D8A4F4D719
:1036F0002B502D1804E12C502E18D8B412002BC0DA
:103700000BF02CC00CF02DC00DF02EC00EF02DC013
:1037100007F02EC008F011EC1FF0010E07240F6E09
:10372000000E0820106E3BEC12F012000B6E1DD044
:103730000B04D8A40CD0085004E1020E075CD8A0FA
:1037400006D007C07CF008C07DF0010E7E6F100E21
:103750000B18D8A408D0020E010100651200010E5A
:1037600000018E6F12008E6B120000019051096EE5
:103770000A6A0A50000AD8A412000950140AD8B4E0
:10378000D7D7010AD8B4D4D70D0AD8A41200D0D7FD
:103790000BC011F00CC012F016D00E06D8A00F0608
:1037A0000D2A0D04106E10C0F6FF080EF76E11C042
:1037B000D9FF12C0DAFF114A122A0800F5CFDFFF45
:1037C000DF50D8B40CD00E500F10D8B408D0E5D7C5
:1037D00011C0D9FF12C0DAFFDF6A114A122A0E06A1
:1037E000D8A00F060E28F4E10F28D8B41200F0D7A5
:1037F0000B500C10D8B412000BC007F00CC008F02E
:1038000011EC1FF007C00FF008C010F003D00F0636
:10381000D8A010060F501010D8B412D00F500B249F
:103820000D6E10500C200E6EFF0E0D24D96EFF0E83
:103830000E20DA6EDF507EEC21F00009D8A4E7D725
:103840000F500B24D96E10500C20DA6EDF6A120074
:103850000A6E0AC008F0083A0F0E08160F0E081676
:103860000850010F096E09C0F6FF080EF76E0750E9
:10387000D96EDA6A0800F5CFDFFF0AC008F00F0E34
:1038800008160850010F096E09C0F6FF080EF76E02
:103890000750D96EDA6A010ED9260800F5CFDFFF8E
:1038A0000750D96EDA6A020ED926DF6A120011506B
:1038B0001210D8B4120011C007F012C008F003C1F2
:1038C00009F00A6A8CEC1DF00750136E000E146E9E
:1038D000000E156E000E166E000E176E0F0E146E93
:1038E000020E156E13C016F0176A140E076E086AE2
:1038F000040E096ECFEC1EF0176E140E096E040E46
:103900000A6ED0EC1FF01200386E38505418D8B43C
:10391000120038C054F010D0000E2EEC17F0120038
:10392000010E2EEC17F01200030E2EEC17F0120011
:10393000040E2EEC17F012005450366E376A3750D2
:10394000000AD8A412003650010AD8B4E5D7030AF9
:10395000D8B4E6D7010AD8B4E7D7070AD8A412002A
:10396000E7D7106E10505118D8B4120010C051F0A3
:1039700016D030EC23F00A6A000E096E0C6A000EB5
:103980000B6E030EDEEC1CF012000A6A010E096ECB
:103990000C6A000E0B6E030EDEEC1CF01200515090
:1039A0000E6E0F6A0F50000AD8A412000E50000AC3
:1039B000D8B4DFD7010AD8A41200E7D70D6EBAEC4D
:1039C00022F00009D8A412005250050D500EF32425
:1039D000D96E030EF420DA6E0DC0DFFF5250050DD4
:1039E000510EF324D96E030EF420DA6E09C0DEFF07
:1039F0000AC0DDFF5250050D530EF324D96E030E9D
:103A0000F420DA6E0BC0DEFF0CC0DDFF525041EC3B
:103A100023F0526E120045504610D8B41200FBEC51
:103A20001AF0366EFF513618D8B4120036C0FFF0C7
:103A300036C00FF0106A310E116E126A1BEC15F0D1
:103A4000310E2F6E306AF2EC21F0310E0B6E0C6AE3
:103A5000020E0D6E200E0E6E0FEC18F0120E0B6E95
:103A6000310E0C6E0D6A010EC6EC17F012002E0E10
:103A7000206402D02E0E206E216A0FD021501E2409
:103A8000D96E000E1F20DA6E640E2124E16EE26A08
:103A9000020EE222DFCFE7FF212A2050215CD8A0CE
:103AA000EDD720C092F2010E0201936F5C0E136EEF
:103AB000020E146E640E156E020E166E20C017F004
:103AC00023EC19F012000BC007F00CC008F011EC49
:103AD0001FF007500F6E0D500F5CD8B01200140E7F
:103AE0000D6402D0140E0D6E0FC010F009D01050EE
:103AF0000B24D96E000E0C20DA6E0EC0DFFF102AE8
:103B00000D50105CD8A0F3D70D500B24D96E000EC9
:103B10000C20DA6EDF6A12000D6A000E0C6E09507E
:103B20000A10D8B41CD0010E0B6E04D0D890093600
:103B30000A360B2A0AAEFAD7D8900C360D36095041
:103B4000075C0A500858D8A005D00950075E0A50F3
:103B5000085A0C80D8900A3209320B2EEDD70CC0CF
:103B600007F00DC008F012000750D96EDA6ADE5077
:103B7000DE10D8B409D00750D96EDA6A020ED92601
:103B8000DE50DE10D8A402D0000E12000750D96E0D
:103B9000DA6A040ED926DE50DE10D8B4F5D7075005
:103BA000D96EDA6A060ED926DE50DE10D8B4ECD70C
:103BB000010E1200CDEC21F00FC0D9FF10C0DAFFCA
:103BC00007C0DEFF08C0DEFF09C0DEFF0AC0DEFF5F
:103BD00020EE04F00F50D9261050DA2211C0DEFF7B
:103BE00012C0DEFF13C0DEFF14C0DEFF20EE08F0BF
:103BF0000F50D9261050DA22010EDF6E1200020E8D
:103C0000136002D0000E120011C007F012C008F0BD
:103C100013C009F0CFEC1EF0166E13501124146E71
:103C2000000E1220156EFF0E1424D96EFF0E152003
:103C3000DA6EDF50176E17501618D8A402D0010E96
:103C40001200000E1200846A836A826A816A806AA6
:103C500095689468936892680F0E966E928092822F
:103C6000928492869288929A939093929394939648
:103C70009398939A939C939E8A908A92949C948E04
:103C80009580958295849690968212000A6E0ED049
:103C90000A04D8A41200010EFEEC22F012000A5011
:103CA000D8A41200000EFEEC22F012004E50086E56
:103CB000096A0950000AD8A412000850000AD8B4B2
:103CC000E7D7010AD8B4EBD7030AD8B41200010A27
:103CD0001200146A1450020DF350600FD96EDA6AA4
:103CE000DECF09F0DDCF0AF01450080DF3CF12F04B
:103CF000010E12261250330F136E13C0F6FF080E7A
:103D0000F76E0800F55030EC1BF0142A030E146413
:103D1000E1D754EC23F012005104D8A41200CDECEA
:103D200021F000017851075C166E79510858176E22
:103D30007A510958186E7B510A58196E195018108B
:103D400006E1300E165C750E1758D8A01200126AE4
:103D5000000E116E070EB3EC14F012000AD0E30E41
:103D60001200EB0E1200E10E1200ED0E1200E90E31
:103D700012005DEC23F0096E0A6A0A50000AD8A40A
:103D8000F6D70950000AD8B4EAD7010AD8B4E9D75F
:103D9000030AD8B4E8D7010AD8B4E7D7E8D70F6A3E
:103DA000106A09D010500724D96E000E0820DA6E70
:103DB000DF500F26102AFF0E09240A6E0B6AFF0E31
:103DC0000B2210500C6E0D6A0A500C5C0D50800ACC
:103DD0000E6E0B50800A0E58D8A0E4D70F50120078
:103DE00009500A10D8B418D0010E0B6E04D0D89028
:103DF00009360A360B2A0AAEFAD70950075C0A5070
:103E00000858D8A004D00950075E0A50085AD89024
:103E10000A3209320B2EF1D707C007F008C008F0AC
:103E2000120007C009F008C00AF002D0074A082AA9
:103E300007C0F6FF08C0F7FFF86A070EF76403D063
:103E40000800F55005D0F6CFE9FFF7CFEAFFEF50B5
:103E50000009D8A4EBD70950075C076E0A50085830
:103E6000086E1200116A1150080DF3CF0FF0010E09
:103E70000F260F50330F106E10C0F6FF080EF76EAE
:103E80000800F5509EEC18F01150020DF350600F31
:103E9000D96EDA6A09C0DEFF0AC0DDFF112A030EFF
:103EA0001164E1D712000AD0E30E1200EF0E1200E7
:103EB000E10E1200E70E1200E90E12004E50096EDC
:103EC0000A6A0A50000AD8A4F7D70950000AD8B4E1
:103ED000EBD7010AD8B4EAD7030AD8B4E9D7010A64
:103EE000D8B4E8D7E9D70AD0EF0E1200EB0E1200D3
:103EF000F10E1200ED0E1200E90E12005450096E80
:103F00000A6A0A50000AD8A4F7D70950010AD8B49F
:103F1000EBD7030AD8B4EAD7010AD8B4E9D7070A1D
:103F2000D8B4E8D7E9D750504F5CD8A002D0000EE3
:103F300012002E0E4F24D96EDA6A020EDA220750D2
:103F4000E16EE26ADFCFE7FF000E4F24D96EDA6A36
:103F5000020EDA220850E16EE26ADFCFE7FF4F2A55
:103F6000010E1200096A0A6A0950140D000EF324AA
:103F7000076E030EF420086E0A500724D96E000E57
:103F80000820DA6E200EDF6E0A2A130E0A64ECD7C0
:103F9000092A030E0964E7D7010E0001FE6F120023
:103FA000010E076E0950D96EDA6ADF503AEC22F042
:103FB000010E0B6E0AD0000E076E09500B24D96E4D
:103FC000DA6ADF503AEC22F00B2A0A500B5CD8A0D8
:103FD000F2D7C80EE82EFED71200F6EC22F0000948
:103FE000D8A412005350050D500EF324D96E030EC1
:103FF000F420DA6E10EE3FF0040EDBCFE3FFE806AC
:10400000FCE2535041EC23F0536E3F0E3C6EBBEC90
:1040100010F01200000EF2BE010E0B6EF29E07C0F1
:10402000A9FF09C0A8FFA69EA69CA684550EA76E50
:10403000AA0EA76EA6820A50D8B402D0A6B2FED7A6
:10404000A6940BB002D0F29E01D0F28E12000AD0DC
:104050006AEC23F05BEC13F01200D8EC0DF012ECDC
:1040600022F012000001A451366E376A3750000A60
:10407000D8A412003650000AD8B4EAD7010AD8B43E
:10408000ECD7030A120008D0EF0E1200DB0E12006C
:10409000E70E1200E90E120057EC23F0096E0A6ACF
:1040A0000A50000AD8A4F6D70950000AD8B4ECD7B1
:1040B000010AD8B4EBD7030AD8B4EAD7EBD70EC0BD
:1040C00011F010D00CC007F00DC008F01150D96EDF
:1040D000DA6ADF50096E010E0A6E0AEC20F0112A2E
:1040E0000C4A0D2A0F06D8A010060F28EBE1102865
:1040F000D8B41200E7D7A551D8B407D0A56B4C6A45
:104100003DEC21F0010E0001A46FA451D8A41200CF
:104110004C50D8B412004C6A0A6A100E096E0C6A30
:10412000000E0B6E010EDEEC1CF0120031C00FF021
:1041300032C010F0390E116E010E126E1BEC15F02C
:10414000390E2F6E010E306EF2EC21F00A0E0B6E5E
:10415000390E0C6E010E0D6E010EC6EC17F012003A
:10416000116E5C0E076E020E086E0A6A000E096E72
:104170000C6A380E0B6E11EC21F0020E106402D0A6
:10418000020E106E11C05CF20FC05DF210C063F23F
:1041900012000BC00EF00DD00E50D96EDA6A09C0B5
:1041A00007F00AC008F006EC23F0DF6E094A0A2A7D
:1041B0000E2A0C06D8A00D060C28EEE10D28D8B466
:1041C0001200EAD7096E05D00950D8A41200A46BDA
:1041D00012000001A451076E086A0850000AD8A412
:1041E00012000750000AD8B41200010AD8B4ECD764
:1041F000030A120047C0C2F2C2C213F0940E116E3D
:10420000020E126EFFEC1DF00009D8B402D0010EB0
:1042100001D0000E0201C36F010E0001936F476AC7
:10422000120007C00DF008C00EF008D00DC0D9FF75
:104230000EC0DAFF09C0DFFF0D4A0E2A0B06D8A018
:104240000C060B28F3E10C28D8B41200EFD706D0E7
:10425000E70E1200E50E1200E90E12005150096E31
:104260000A6A0A50000AD8A4F7D70950000AD8B43D
:10427000EFD7010AD8B4EED7EFD7A76B5AEC23F0EB
:1042800032EC1FF04B6A4A6A0001A66BCDEC21F0BC
:1042900007C070F008C071F009C072F00AC073F076
:1042A0009CEC0CF01200030E0001C16F200EC06FD9
:1042B000070EC36F080EC26FC56B140EC46FC76BB9
:1042C0003C0EC66FC96B000EC86FCB6B000ECA6F79
:1042D00012008A908A928105D8A403D0DEEC22F0E5
:1042E00005D0020E8119D8B4D6EC22F0E0EC21F012
:1042F0000001816B000EFEEC22F01200086E010E30
:10430000076E200E0818D8B40CD0090E0818D8B4BF
:1043100008D00D0E0818D8B404D00A0E0818D8A476
:10432000076A075012002BEC23F007C00CF008C0FE
:104330000DF00C500D10D8B412000CC007F00DC0D9
:1043400008F0010E96EC1BF030EC23F01200AB9E4F
:10435000AC9AAB98949C948EB896AC94B06A4D0E7F
:10436000AF6EAC98AC8CAB8CAB86AB8EAC8AAB88AA
:104370009D981200176E180E0001906F17C08FF0F5
:10438000430E0F6E010E106E15C011F016C012F024
:10439000136A146ADAEC1DF01200F29E74C00BF07E
:1043A00075C00CF076C00DF077C00EF0F28E0BC029
:1043B00007F00CC008F00DC009F00EC00AF01200A2
:1043C000C00E076EB4EC1DF00009D8B412000D6ADF
:1043D000020E0C6EC00E0E6E106A0C0E0F6E5FECAD
:1043E00020F012002F503010D8B412002FC00BF064
:1043F00030C00CF0F8EC1BF02FC02BF030C02CF0CC
:1044000063EC1BF01200D59ED59CD59AD598D58625
:10441000F80ED516D10ED76E200ED66EF294F28A13
:10442000D58E12000001A751D8A403D09CEC0CF04B
:104430001200B2EC1FF0A76B000EE2EC20F01200AD
:104440009351D8A405D0000E076E000E086E12001E
:10445000940E076E020E086E1200000E126E080E09
:10446000DBEC0FF0020E166E580E156E000EBAEC55
:1044700021F01200086E9EA8FED707B002D0AC90C3
:1044800001D0AC8008C0ADFFACB21200FDD7B30EB6
:10449000076E086A0A6A000E096E0C6A0D0E0B6E32
:1044A00011EC21F0120007500001865D0850875979
:1044B000D8A012000750865F0850875B1200075093
:1044C0000810D8A402D0000E120007C0C6F008C021
:1044D000C7F0010E120007500810D8A402D0000E39
:1044E000120007C0C4F008C0C5F0010E120007504A
:1044F0000810D8A402D0000E120007C0C2F008C0F5
:10450000C3F0010E120007500810D8A402D0000E0C
:10451000120007C0C0F008C0C1F0010E1200096E01
:104520008A8409380F0BE1EC19F009500F0BE1EC0C
:1045300019F01200096E8A9409380F0BE1EC19F09A
:1045400009500F0BE1EC19F01200CDEC21F007C07F
:1045500078F008C079F009C07AF00AC07BF0120048
:104560000750865D08508759D8A002D0010E12006E
:10457000000E1200525041EC23F05318D8A402D080
:10458000010E1200000E1200030E4D6EAA6B466A59
:10459000000E456E8469856912008A86040EE82E35
:1045A000FED78A96C80EE82EFED71200CA2903E16C
:1045B000CB29D8B41200CA4BCB2B1200C82903E177
:1045C000C929D8B41200C84BC92B1200310ECD6EC8
:1045D0009E906D0ECF6E840ECE6E120050504F5CCA
:1045E000D8B002D0010E1200000E12005250531823
:1045F000D8A402D0010E1200000E1200076E075060
:104600004E18D8B4120007C04EF0120007C0A9FF20
:10461000A69EA69CA680A8501200806B000E7F6FFD
:10462000816B4E6A1200000E076E000E3AEC22F00B
:104630001200B2EC1FF0946B486A496A1200040E33
:10464000546E040E2EEC17F012000750000186275E
:1046500008508723120086C007F087C008F01200B8
:104660000001876B000E866F1200876B000E866F4D
:104670001200476A0001936B120030EC23F0516A7C
:104680001200076E07280F0B120013EC23F0120024
:104690000001936B12000001935112004F6A506A9F
:1046A0001200526A536A1200E0EC21F0120000017D
:1046B000A45112008EEC1AF012004D5012004F6AF5
:1046C00012008F5112009651120097511200C00E25
:0946D000120001FF1200120004A7
:020000040030CA
:0E000000240E1F1EFF8181FF0FC00FE00F4076
:00000001FF
