:0400000007EF00F016
:0A000800018244ED1AF0B7EF21F079
:10080000003031323334353637383941424344458C
:1008100046000F010C0000001C0CFFFFFFFF080C3E
:10082000000000000C0F05140F000F0B0B0A0A0943
:100830000908089900080040066400AD0112001084
:100840000E6400A3020A0032000100B7030A00C8C8
:1008500000010020202020202020202020202020F7
:1008600020202020202020004675657261206465CC
:1008700020536572766963696F00496E736572749F
:1008800065206D6F6E6564617300446573706163AC
:1008900068616E646F2E2E2E0050726563696F2042
:1008A000313A005469656D706F20313A00507265BD
:1008B00063696F20323A005469656D706F20323A77
:1008C0000043616E63656C617200437265646974B4
:1008D0006F3A0047756172646172002A003E0044FD
:1008E00000490043004F00560041003F0045004DC5
:1008F0000052000044EF0BF0A46B000E116E080EC6
:10090000B1EC10F0156A050E146E010EBCEC27F068
:10091000C10E0E6E010E0F6E050E106E000E116EE2
:10092000000E126E000E136EA4EC25F0096A0B0E79
:10093000086E0B6A000E0A6E010E25EC22F0A6EF7F
:100940000BF071EC29F00009D8B4A9EF04F0ABEF7B
:1009500004F0E5EF04F0A8EC27F006C048F007C06B
:1009600049F048C01DF049C01EF020EE2EF048505E
:10097000D9264950DA22DF501F6EEEEC21F020EE2E
:100980002EF04850D9264950DA22DE04D8A4CBEF05
:1009900004F0CDEF04F0E1EF04F048C0D9FF49C006
:1009A000DAFFDF50D8A4D7EF04F0D9EF04F0E1EF7D
:1009B00004F074EC29F0156AC80E146E020EBCEC3B
:1009C00027F06EEC29F0A6EF0BF0C10E0E6E010EB3
:1009D0000F6E47EC1EF00009D8B4F1EF04F0F3EF0E
:1009E00004F0A6EF0BF0156AC80E146E000EBCECF6
:1009F00027F0A6EF0BF0000E116E0B0EB1EC10F00D
:100A0000B80E0E6E010E0F6E050E106E000E116EFA
:100A1000000E126E000E136EA4EC25F0156A050E82
:100A2000146E030EBCEC27F0A6EF0BF071EC29F06E
:100A30000009D8B41EEF05F020EF05F077EF05F0C0
:100A4000A8EC27F006C048F007C049F0C1EC28F038
:100A500048C01DF049C01EF020EE2EF04850D926A7
:100A60004950DA22DF501F6EEEEC21F020EE2EF01E
:100A70004850D9264950DA22DE04D8A442EF05F0C6
:100A800044EF05F05AEF05F048C0D9FF49C0DAFF3E
:100A9000DF50D8A44EEF05F050EF05F05AEF05F007
:100AA00074EC29F0156AC80E146E040EBCEC27F025
:100AB000E1EF04F020EE2EF04850D9264950DA221A
:100AC000DFB065EF05F067EF05F0E1EF04F074ECDF
:100AD00029F0156AC80E146E040EBCEC27F0156AD6
:100AE000C80E146E020EBCEC27F0E1EF04F0B80E55
:100AF0000E6E010E0F6E47EC1EF00009D8B483EFA6
:100B000005F085EF05F0A6EF0BF0156AC80E146E20
:100B1000020EBCEC27F0A6EF0BF0000E116E090ED2
:100B2000B1EC10F0156A3C0E146E050EBCEC27F00B
:100B3000AF0E0E6E010E0F6E280E106E000E116EAF
:100B4000000E126E000E136EA4EC25F0A6EF0BF053
:100B500071EC29F00009D8B4B0EF05F0B2EF05F060
:100B6000A7EF06F0A8EC27F006C048F007C049F050
:100B700048C01DF049C01EF020EE2EF04850D92686
:100B80004950DA22DF501F6EEEEC21F020EE2EF0FD
:100B90004850D9264950DA22180EDE18D8A4D3EFCF
:100BA00005F0D5EF05F09FEF06F048C010F049C002
:100BB00011F020EE2EF04850D9264950DA22DF50AD
:100BC000126E48EC23F00009D8B4E9EF05F0EBEF22
:100BD00005F09FEF06F074EC29F048C0D9FF49C03A
:100BE000DAFFDF500101006F20EE02F04850D926F5
:100BF0004950DA22DF50376E20EE01F04850D926F6
:100C00004950DA22DF50386E3750016F38C002F198
:100C100020EE03F04850D9264950DA22DF50036F06
:100C200020EE04F04850D9264950DA22DF50046FF4
:100C300020EE06F04850D9264950DA22DF50376EB0
:100C400020EE05F04850D9264950DA22DF50386EA0
:100C500037503C6E38C03DF0476A0F0E476433EFA3
:100C600006F035EF06F037EF06F052EF06F0050E0E
:100C70004724D96EDA6A010EDA2247C037F03CC049
:100C800038F03DC039F0372A49EF06F0D8903932B4
:100C90003832372E46EF06F03850010BDF6E472A08
:100CA0002DEF06F05A50F80F0101256F100E256543
:100CB0005CEF06F05EEF06F060EF06F0100E256FB9
:100CC000476A78EF06F047504824376E000E4920F7
:100CD000386E070E3724D96E000E3820DA6E150EE6
:100CE0004724E16EE26A010EE222DFCFE7FF472AE6
:100CF0002551475CD8A07FEF06F081EF06F063EF47
:100D000006F025C147F00F0E476489EF06F08BEF20
:100D100006F08DEF06F097EF06F0150E4724D96E1A
:100D2000DA6A010EDA22DF6A472A83EF06F0156AD3
:100D3000C80E146E060EBCEC27F0E1EF04F0156A45
:100D4000C80E146E040EBCEC27F0E1EF04F0AF0EF9
:100D50000E6E010E0F6E47EC1EF00009D8B4B3EF13
:100D600006F0B5EF06F0A6EF0BF048C01DF049C045
:100D70001EF020EE2EF04850D9264950DA22DF50DE
:100D80001F6EEEEC21F0156AC80E146E040EBCEC5A
:100D900027F0A6EF0BF0020E01010065D2EF06F07E
:100DA000D4EF06F0EFEF06F0156A640E146E070E2E
:100DB000BCEC27F0000E116E0F0EB1EC10F0A60E79
:100DC0000E6E010E0F6E460E106E000E116E000EAE
:100DD000126E000E136EA4EC25F0A6EF0BF0156A50
:100DE000C80E146E0A0EBCEC27F0A6EF0BF071ECE7
:100DF00029F00009D8B4FFEF06F001EF07F05EEF2D
:100E000007F0A8EC27F006C048F007C049F048C03A
:100E10001DF049C01EF020EE2EF04850D926495052
:100E2000DA22DF501F6EEEEC21F020EE2EF048505B
:100E3000D9264950DA22220EDE18D8A422EF07F074
:100E400024EF07F0E1EF04F0446A48C0D9FF49C03D
:100E5000DAFF430EDE18D8A430EF07F032EF07F0C8
:100E600052EF07F020EE01F04850D9264950DA221F
:100E7000410EDE18D8A43FEF07F041EF07F052EF24
:100E800007F020EE02F04850D9264950DA22490EE8
:100E9000DE18D8A44EEF07F050EF07F052EF07F03E
:100EA000010E446E44C0A5F074EC29F0156AC80E1A
:100EB000146E080EBCEC27F0E1EF04F0A60E0E6EE7
:100EC000010E0F6E47EC1EF00009D8B46AEF07F070
:100ED0006CEF07F0A6EF0BF0156AC80E146E060E45
:100EE000BCEC27F0A6EF0BF0030E01010019D8A40B
:100EF0007CEF07F07EEF07F099EF07F0156A050E1B
:100F0000146E090EBCEC27F0010E116E0F0EB1EC41
:100F100010F09D0E0E6E010E0F6E050E106E000E7F
:100F2000116E000E126E000E136EA4EC25F0A6EFEB
:100F30000BF0156AC80E146E0A0EBCEC27F0A6EF73
:100F40000BF071EC29F00009D8B4A9EF07F0ABEF72
:100F500007F0E1EF07F0A8EC27F006C048F007C063
:100F600049F020EE2EF04850D9264950DA22DE040E
:100F7000D8A4BDEF07F0BFEF07F0E1EF04F048C0E1
:100F8000D9FF49C0DAFFDF50D8A4C9EF07F0CBEF93
:100F900007F0E1EF04F0156AC80E146E0A0EBCECFF
:100FA00027F048C01DF049C01EF020EE2EF048503A
:100FB000D9264950DA22DF501F6EEEEC21F0E1EF26
:100FC00004F09D0E0E6E010E0F6E47EC1EF0000930
:100FD000D8B4EDEF07F0EFEF07F0A6EF0BF0156ACE
:100FE000C80E146E080EBCEC27F0A6EF0BF0000E36
:100FF000116E0A0EB1EC10F0156A320E146E0B0E63
:10100000BCEC27F0940E0E6E010E0F6E460E106EA5
:10101000000E116E000E126E000E136EA4EC25F081
:10102000A6EF0BF048C01DF049C01EF020EE2EF0D8
:101030004850D9264950DA22DF501F6EEEEC21F0DD
:1010400071EC29F00009D8B428EF08F02AEF08F075
:10105000B9EF08F0A8EC27F006C048F007C049F047
:1010600048C01DF049C01EF020EE2EF04850D92691
:101070004950DA22DF501F6EEEEC21F048C010F02C
:1010800049C011F020EE2EF04850D9264950DA22FE
:10109000DF50126E48EC23F00009D8B452EF08F08C
:1010A00054EF08F0B1EF08F074EC29F020EE01F0F5
:1010B0004850D9264950DA22DF50376E48C0D9FF50
:1010C00049C0DAFFDF50386E37500101266F38C053
:1010D00027F120EE2EF04850D9264950DA22DF5071
:1010E000FD0F386F456A8AEF08F045504824376E87
:1010F000000E4920386E020E3724D96E000E3820BB
:10110000DA6E280E4524E16EE26A010EE222DFCF9C
:10111000E7FF452A2551455CD8A091EF08F093EFF1
:1011200008F075EF08F025C146F00F0E46649BEFFE
:1011300008F09DEF08F09FEF08F0A9EF08F0280EE7
:101140004624D96EDA6A010EDA22DF6A462A95EF62
:1011500008F0156AC80E146E0C0EBCEC27F0E1EF17
:1011600004F0156AC80E146E0A0EBCEC27F0E1EF0D
:1011700004F0940E0E6E010E0F6E47EC1EF0000987
:10118000D8B4C5EF08F0C7EF08F0A6EF0BF0156A6A
:10119000C80E146E0A0EBCEC27F0A6EF0BF0156A11
:1011A0000F0E146E0D0EBCEC27F0010E116E0C0E1E
:1011B000B1EC10F0E10E0E6E0F6A0F0E106E000E05
:1011C000116E000E126E000E136EA4EC25F0A6EF49
:1011D0000BF071EC29F00009D8B4F1EF08F0F3EF4F
:1011E00008F036EF09F0A8EC27F006C048F007C079
:1011F00049F048C01DF049C01EF020EE2EF04850C6
:10120000D9264950DA22DF501F6EEEEC21F020EE95
:101210002EF04850D9264950DA22DE04D8A413EF24
:1012200009F015EF09F0E1EF04F048C0D9FF49C01B
:10123000DAFFDF50D8A41FEF09F021EF09F0E1EF4A
:1012400004F074EC29F00001A46B156AC80E146E4A
:10125000100EBCEC27F0096A0C0E086E0B6A000E2B
:101260000A6E010E25EC22F0E1EF04F0E10E0E6EA5
:101270000F6A47EC1EF00009D8B441EF09F043EFC4
:1012800009F0A6EF0BF0156AC80E146E0C0EBCEC3C
:1012900027F0A6EF0BF0156A050E146E0F0EBCECCE
:1012A00027F0000E116E0C0EB1EC10F0E10E0E6E78
:1012B0000F6A050E106E000E116E000E126E000EFB
:1012C000136EA4EC25F0A6EF0BF071EC29F00009E9
:1012D000D8B46DEF09F06FEF09F0A7EF09F0A8ECB3
:1012E00027F006C048F007C049F048C01DF049C0CB
:1012F0001EF020EE2EF04850D9264950DA22DF5059
:101300001F6EEEEC21F020EE2EF04850D926495009
:10131000DA22DE04D8A48FEF09F091EF09F0E1EFB3
:1013200004F048C0D9FF49C0DAFFDF50D8A49BEFD2
:1013300009F09DEF09F0E1EF04F074EC29F0156A73
:10134000C80E146E100EBCEC27F0E1EF04F0E10EB5
:101350000E6E0F6A47EC1EF00009D8B4B2EF09F028
:10136000B4EF09F0A6EF0BF0156AC80E146E0C0E60
:10137000BCEC27F0A6EF0BF0000E116E0B0EB1ECDB
:1013800010F0156A0A0E146E110EBCEC27F08B0ECD
:101390000E6E010E0F6E0A0E106E000E116E000E14
:1013A000126E000E136EA4EC25F0A6EF0BF071EC9C
:1013B00029F00009D8B4DFEF09F0E1EF09F0F9EF07
:1013C0000AF0A8EC27F006C048F007C049F0C1ECCD
:1013D00028F048C007F049C008F020EE2EF0485031
:1013E000D9264950DA22DF50096E23EC15F0426EFF
:1013F000E0EF0AF000017D51D8B401EF0AF003EFED
:101400000AF021EF0AF07B517C11D8B40AEF0AF000
:101410000CEF0AF021EF0AF07BC010F07CC011F055
:10142000CCEC23F000017C6B000E7B6F7BC07DF069
:10143000010E156EF40E146E100EBCEC27F0E1EFE9
:1014400004F0156AC80E146E100EBCEC27F0E1EF24
:1014500004F020EE02F04850D9264950DA22DF503D
:10146000376E386A48C0D9FF49C0DAFFDF50396E9D
:101470003A6A20EE01F04850D9264950DA22DF506E
:101480003B6E3B503926000E3A22FF0E3916000EF5
:101490003A163750391807E138503A18D8A453EFA4
:1014A0000AF055EF0AF07FEF0AF074EC29F048C01B
:1014B000D9FF49C0DAFFDF500F0B436E150E4324EE
:1014C000D96EDA6A010EDA22DF50376E3750010129
:1014D0000303F3CF3EF0F4CF3FF0096A0D0E086E20
:1014E0003EC00AF03FC00BF0010E25EC22F0156A59
:1014F000C80E146E100EBCEC27F087EF0AF074ECE7
:1015000029F0156AC80E146E100EBCEC27F048C006
:101510001DF049C01EF020EE2EF04850D92649504B
:10152000DA22DF501F6EEEEC21F0E1EF04F074ECF4
:1015300029F00001AD51D8B4A0EF0AF0A2EF0AF0F3
:10154000B5EF0AF058EC29F006C040F007C041F0B2
:1015500040C006F041C007F0010E45EC21F0156ACD
:10156000C80E146E100EBCEC27F00001B151D8B4B7
:10157000BCEF0AF0BEEF0AF0C6EF0AF074EC29F0F7
:10158000156AC80E146E000EBCEC27F0C1EC28F0F2
:10159000156AC80E146E100EBCEC27F0E1EF04F0D3
:1015A00048C01DF049C01EF020EE2EF04850D9264C
:1015B0004950DA22DF501F6EEEEC21F0E1EF04F02B
:1015C0004250376E386A3850000AD8B4EAEF0AF051
:1015D000D0EF0AF03750000AD8B4FAEF09F00D0A3C
:1015E000D8B429EF0AF0020AD8B497EF0AF0D0EF86
:1015F0000AF08B0E0E6E010E0F6E47EC1EF0000906
:10160000D8B405EF0BF007EF0BF0A6EF0BF0156A5F
:10161000C80E146E100EBCEC27F0A6EF0BF07D5137
:10162000D8B415EF0BF017EF0BF029EF0BF07C514E
:1016300009E1020E7B5DD8A020EF0BF022EF0BF04A
:1016400029EF0BF07D6B7BC010F07CC011F0CCEC6F
:1016500023F0010E156EF40E146E100EBCEC27F084
:10166000A6EF0BF0820E0E6E010E0F6E47EC1EF011
:101670000009D8B43EEF0BF040EF0BF0A6EF0BF0F3
:10168000A2C0A3F0A6EF0BF00001A351376E386A99
:101690003850000AD8B44FEF0BF0A6EF0BF03750DC
:1016A000000AD8B47CEF04F0010AD8B4A1EF04F02A
:1016B000030AD8B4FBEF04F0010AD8B416EF05F022
:1016C000070AD8B48DEF05F0010AD8B4A8EF05F0E9
:1016D000030AD8B4CBEF06F0010AD8B4F7EF06F04E
:1016E0000F0AD8B474EF07F0010AD8B4A1EF07F0DD
:1016F000030AD8B4F7EF07F0010AD8B412EF08F0E4
:10170000070AD8B4CFEF08F0010AD8B4E9EF08F01F
:10171000030AD8B44BEF09F0010AD8B465EF09F019
:101720001F0AD8B4BCEF09F0010AD8B4D7EF09F00A
:10173000030AD8B40FEF0BF0010AD8B4A6EF0BF0F0
:10174000070AD8B432EF0BF0A6EF0BF0120080B00E
:10175000ACEF0BF0AFEF0BF0010EB0EF0BF0000EA3
:10176000206E80B2B6EF0BF0B9EF0BF0010EBAEFBE
:101770000BF0000E216E80B4C0EF0BF0C3EF0BF046
:10178000010EC4EF0BF0000E226E83B0CAEF0BF017
:10179000CDEF0BF0010ECEEF0BF0000E256E83B2F5
:1017A000D4EF0BF0D7EF0BF0010ED8EF0BF0000EDB
:1017B000236E83B4DEEF0BF0E1EF0BF0010EE2EFEE
:1017C0000BF0000E246E00019551D8A4EAEF0BF047
:1017D000ECEF0BF00EEF0CF09B51D8B4F2EF0BF0E6
:1017E000F4EF0BF00EEF0CF02050D8A4FAEF0BF052
:1017F000FCEF0BF00EEF0CF0010E956F010EA16FD8
:10180000790E0E6E010E0F6E1E0E106E000E116E12
:10181000000E126E000E136EA4EC25F0000195511F
:10182000D8B415EF0CF017EF0CF027EF0CF0790E91
:101830000E6E010E0F6E47EC1EF00009D8B423EFB8
:101840000CF025EF0CF027EF0CF00001956B000178
:101850009451D8A42EEF0CF030EF0CF052EF0CF0B6
:101860009A51D8B436EF0CF038EF0CF052EF0CF080
:101870002150D8A43EEF0CF040EF0CF052EF0CF0EA
:10188000010E946F010EA06F700E0E6E010E0F6EA2
:101890001E0E106E000E116E000E126E000E136EF4
:1018A000A4EC25F000019451D8B459EF0CF05BEF93
:1018B0000CF06BEF0CF0700E0E6E010E0F6E47EC1D
:1018C0001EF00009D8B467EF0CF069EF0CF06BEF75
:1018D0000CF00001946B00019351D8A472EF0CF04E
:1018E00074EF0CF096EF0CF09951D8B47AEF0CF03D
:1018F0007CEF0CF096EF0CF02250D8A482EF0CF0A5
:1019000084EF0CF096EF0CF0010E936F010E9F6FB9
:10191000670E0E6E010E0F6E1E0E106E000E116E13
:10192000000E126E000E136EA4EC25F00001935110
:10193000D8B49DEF0CF09FEF0CF0AFEF0CF0670EFA
:101940000E6E010E0F6E47EC1EF00009D8B4ABEF1F
:101950000CF0ADEF0CF0AFEF0CF00001936B5350B7
:10196000D8A4B5EF0CF0B7EF0CF0E6EF0CF00001E7
:101970009851D8B4BEEF0CF0C0EF0CF0E6EF0CF0CD
:101980002550D8A4C6EF0CF0C8EF0CF0E6EF0CF031
:10199000010E536E010EA76FCFEC27F006C06CF05E
:1019A00007C06DF008C06EF009C06FF000018E6BCB
:1019B0005E0E0E6E010E0F6E1E0E106E000E116E7C
:1019C000000E126E000E136EA4EC25F05350D8B426
:1019D000ECEF0CF0EEEF0CF021EF0DF02550D8A459
:1019E000F4EF0CF0F6EF0CF021EF0DF000018E514A
:1019F000D8A4FDEF0CF0FFEF0CF021EF0DF0CFECD1
:101A000027F000016C51065C1C6E6D5107581D6E6D
:101A10006E5108581E6E6F5109581F6E1F501E10D0
:101A20000BE1B80E1C5C0B0E1D58D8A01AEF0DF080
:101A30001CEF0DF021EF0DF0010EA86FA76B010E4A
:101A40008E6F5350D8B427EF0DF029EF0DF042EF11
:101A50000DF02550D8B42FEF0DF031EF0DF042EF1F
:101A60000DF05E0E0E6E010E0F6E47EC1EF00009BB
:101A7000D8B43DEF0DF03FEF0DF042EF0DF0536A9B
:101A80000001A86B00019251D8A449EF0DF04BEF73
:101A90000DF06DEF0DF09751D8B451EF0DF053EFFD
:101AA0000DF06DEF0DF02350D8A459EF0DF05BEF62
:101AB0000DF06DEF0DF0010E926F010E9D6F550E42
:101AC0000E6E010E0F6E1E0E106E000E116E000EC9
:101AD000126E000E136EA4EC25F000019251D8B4E2
:101AE00074EF0DF076EF0DF086EF0DF0550E0E6EE3
:101AF000010E0F6E47EC1EF00009D8B482EF0DF016
:101B000084EF0DF086EF0DF00001926B0001915112
:101B1000D8A48DEF0DF08FEF0DF0B1EF0DF09651D1
:101B2000D8B495EF0DF097EF0DF0B1EF0DF0245014
:101B3000D8A49DEF0DF09FEF0DF0B1EF0DF0010E69
:101B4000916F010E9C6F4C0E0E6E010E0F6E1E0EED
:101B5000106E000E116E000E126E000E136EA4ECCD
:101B600025F000019151D8B4B8EF0DF0BAEF0DF0A7
:101B7000CAEF0DF04C0E0E6E010E0F6E47EC1EF00C
:101B80000009D8B4C6EF0DF0C8EF0DF0CAEF0DF0A4
:101B90000001916B20C09BF021C09AF022C099F007
:101BA00025C098F023C097F024C096F02350D8B4F5
:101BB000DCEF0DF0DFEF0DF0010EE0EF0DF0000EA9
:101BC0000001906F2450D8B4E8EF0DF0EBEF0DF06A
:101BD000010EECEF0DF0000E8F6F1200CFEC27F02E
:101BE00000016851065C226E69510758236E6A51E4
:101BF0000858246E6B510958256E255024100BE1AE
:101C00002C0E225C010E2358D8A009EF0EF00BEF2A
:101C10000EF021EF0EF0CFEC27F006C068F007C001
:101C200069F008C06AF009C06BF000018A51D8B4AD
:101C30001CEF0EF01FEF0EF0010E20EF0EF0000E65
:101C40008A6FA751D8B427EF0EF029EF0EF04FEFAF
:101C50000EF0A76BD76BCE6B040E4E6032EF0EF01A
:101C600034EF0EF041EF0EF04D50D8B43AEF0EF0D5
:101C70003DEF0EF0010E3EEF0EF0000E4D6E4FEFF9
:101C80000EF0040E4E18D8A448EF0EF04AEF0EF0F6
:101C90004CEF0EF046EC24F0010E00018B6F2A6A27
:101CA0009C51D8B456EF0EF058EF0EF05EEF0EF0E8
:101CB0009C6B010E2A6ED76B6EEF0EF0CF0E0E6E80
:101CC00083EC29F0B3EC12F00009D8B46AEF0EF0FF
:101CD0006CEF0EF06EEF0EF0010E2A6E2A50D8B4A3
:101CE00074EF0EF076EF0EF0E0EF0EF04D50D8B43A
:101CF0007CEF0EF07EEF0EF0D4EF0EF0040E4E608F
:101D000084EF0EF086EF0EF0D4EF0EF04E50080D7B
:101D1000F350330F2C6E4E50020DF350600FD96EFE
:101D2000DA6ADECF22F0DDCF23F02CC024F0060EDD
:101D3000242624C0F6FF080EF76E22500900F52471
:101D4000256E23500900F520266E2CC027F0040EC6
:101D5000272627C0F6FF080EF76E25500900F55C10
:101D600026500900F558D8A0B8EF0EF0BAEF0EF0E3
:101D7000E0EF0EF02CC022F0060E222622C0F6FF65
:101D8000080EF76E0900F5CF23F00900F5CF24F017
:101D90004E50020DF350600FD96EDA6A2350DE26E2
:101DA0002450DD22E0EF0EF04E50D8B4DAEF0EF002
:101DB000DCEF0EF0E0EF0EF04E060001D76BCE6BBD
:101DC0002B6A00019D51D8B4E8EF0EF0EAEF0EF057
:101DD000F0EF0EF09D6B010E2B6ECE6B00EF0FF04F
:101DE000C60E0E6E86EC29F0B3EC12F00009D8B4E2
:101DF000FCEF0EF0FEEF0EF000EF0FF0010E2B6E79
:101E00002B50D8B406EF0FF008EF0FF072EF0FF081
:101E10004D50D8B40EEF0FF010EF0FF066EF0FF04B
:101E2000040E4E6016EF0FF018EF0FF066EF0FF094
:101E30004E50080DF350330F2D6E2DC022F0060EBC
:101E4000222622C0F6FF080EF76E0900F5CF23F018
:101E50000900F5CF24F02DC025F0020E252625C05F
:101E6000F6FF080EF76E23500900F524266E245065
:101E70000900F520276E4E50020DF350600FD96E09
:101E8000DA6A2650DE5C2750DE58D8A04AEF0FF001
:101E90004CEF0FF072EF0FF02DC022F0060E22264D
:101EA00022C0F6FF080EF76E0900F5CF23F00900F7
:101EB000F5CF24F04E50020DF350600FD96EDA6A60
:101EC0002350DE5E2450DD5A72EF0FF0050E4E6097
:101ED0006CEF0FF06EEF0FF072EF0FF04E2A000173
:101EE000D76BCE6B1200010E0101ED6F030E4E6039
:101EF0007CEF0FF07EEF0FF083EF0FF0E96B000E39
:101F0000E86F89EF0FF0FE0E4E24E86FE96BFF0ECD
:101F1000E923E8C1ECF1ECC1EEF18FEF10F0EE51E6
:101F20004E18D8B496EF0FF098EF0FF09CEF0FF02B
:101F3000660EEA6F9EEF0FF0DD0EEA6F010E0A6E7D
:101F4000EAC10BF00B50D8A4080E0C6EED51F3EC67
:101F50001CF0040E0101EE61B0EF0FF0B2EF0FF0D4
:101F60006BEF10F0D30E0A6E010E0B6EEE51080DE2
:101F7000F350330F306E30C0F6FF080EF76E0800D6
:101F8000F5CF0CF0EE51080DF350330F316E31C028
:101F9000F6FF080EF76E0900F5CF06F0080E076E83
:101FA000E5EC24F0FF0E06240D6EFF0E07200E6EEA
:101FB00090EC1EF00101EE51080DF350330F306E1E
:101FC00030C0F6FF080EF76E0900F5CF06F0080ED8
:101FD000076EE5EC24F0FF0E0624316EFF0E07209D
:101FE000326ED30E3124D96E010E3220DA6EDF6AE2
:101FF000020E0A6ED30E0B6E010E0C6E0101ED5136
:10200000F3EC1CF04D50D8B408EF10F00AEF10F0CC
:1020100032EF10F00101EE514E18D8A412EF10F07B
:1020200014EF10F032EF10F000018A51D8A41BEF2A
:1020300010F01DEF10F022EF10F0DB0E0101EB6F3E
:1020400025EF10F0660E0101EB6F0D0E0A6EEBC16D
:102050000BF00B50D8A4080E0C6EED51F3EC1CF0F5
:102060003EEF10F00D0E0A6E660E0B6E0B50D8A4EC
:10207000080E0C6E0101ED51F3EC1CF00101EE5164
:10208000020DF350600FD96EDA6ADECF0DF0DDCFAE
:102090000EF0D30E0F6E010E106E72EC1BF0D30E0D
:1020A0002E6E010E2F6E37EC27F0D30E0A6E010E46
:1020B0000B6E040E0C6E200E0D6E10EC1BF00F0E4E
:1020C0000A6ED30E0B6E010E0C6E0101ED51F3EC96
:1020D0001CF08CEF10F0040EEE19D8A472EF10F083
:1020E00074EF10F081EF10F0020E0A6ED30E0B6E3B
:1020F0000B50D8A4080E0C6EED51F3EC1CF08CEFD5
:1021000010F0020E0A6EC10E0B6E0B50D8A4080E12
:102110000C6EED51F3EC1CF00101ED2BEE2BEC51AC
:10212000306E316A040E3026000E3122EE51326ECE
:10213000336A3050325C3350800A346E3150800A3A
:102140003458D8B0A6EF10F0A8EF10F0B0EF10F0B0
:10215000050EEE65AEEF10F0B0EF10F08FEF0FF060
:102160001200366E79EF11F0310EF66E080EF76E32
:102170000900F5CF2BF00A00F5CF2CF02B0E096EDD
:10218000020E0A6E33EC25F094EF11F02F0EF66E6E
:10219000080EF76E0900F5CF2DF00A00F5CF2EF0EE
:1021A0002D0E096E020E0A6E33EC25F094EF11F03D
:1021B0002D0EF66E080EF76E0900F5CF2FF00A000F
:1021C000F5CF30F02F0E096E020E0A6E33EC25F0BB
:1021D00094EF11F02B0EF66E080EF76E0900F5CF96
:1021E00031F00A00F5CF32F0310E096E020E0A6EA0
:1021F00033EC25F094EF11F01150D8A402EF11F058
:1022000004EF11F018EF11F01F0EF66E080EF76EC6
:1022100020EE19F0050E0900F5CFDEFFE806FBE21F
:10222000190E096E060E0A6E33EC25F094EF11F0CC
:10223000190EF66E080EF76E20EE1FF0050E09005F
:10224000F5CFDEFFE806FBE21F0E096E060E0A6EF2
:1022500033EC25F094EF11F0280EF66E080EF76EB1
:102260000900F5CF25F00900F5CF26F00A00F5CFDB
:1022700027F0250E096E030E0A6E33EC25F094EF5D
:1022800011F0120EF66E080EF76E20EE12F0060E2A
:102290000900F5CFDEFFE806FBE2120E096E070E1D
:1022A0000A6E33EC25F094EF11F0250EF66E080E51
:1022B000F76E0900F5CF28F00900F5CF29F00A00E4
:1022C000F5CF2AF0280E096E030E0A6E33EC25F0C6
:1022D00094EF11F01150000AD8B42CEF11F0010A5C
:1022E000D8B441EF11F0040AD8B455EF11F094EFCF
:1022F00011F03650080AD8B4B4EF10F0010AD8B47F
:10230000C6EF10F0030AD8B4D8EF10F0010AD8B421
:10231000EAEF10F0070AD8B4FCEF10F0030AD8B4C3
:102320006AEF11F094EF11F00C0E3618D8B49BEF51
:1023300011F09DEF11F0ABEF11F00F0E3618D8B47D
:10234000A4EF11F0A6EF11F0ABEF11F0356A010E1A
:10235000346EAEEF11F0356A020E346E34C033F0D5
:1023600011C00EF033C00FF0365094EC26F012007E
:102370000F0EC16E070EB46EEDEC25F06CEC28F07C
:1023800024EC29F0800E066E250E076E000E086EF6
:10239000000E096EE5EC28F0E2EC27F08EEC29F057
:1023A0000001F56B100E4A6E940EE82EFED74A2EF1
:1023B000FCD700D00001F52BF529D8A4E2EF11F0ED
:1023C000E4EF11F0D2EF11F0CFEC20F033EC29F074
:1023D0000001F66B100E4A6E940EE82EFED74A2EC0
:1023E000FCD700D00001F62BF629D8A4FAEF11F0A3
:1023F000FCEF11F0EAEF11F056EC20F047EC29F079
:1024000095EC29F062EC29F0B4EC28F06AEC29F0A4
:102410002CEC29F053EC29F033EC1CF011EC29F0F2
:102420007DEC29F00001F76B100E4A6E940EE82E39
:10243000FED74A2EFCD700D00001F72BF729D8A4ED
:1024400024EF12F026EF12F014EF12F0D08EF18488
:102450009F90F294F28A9E909D80F28CF28E53ECC3
:1024600019F07AEC04F076EC23F0DDEC15F0C9EC11
:1024700025F0A7EC0BF04DEC28F01EEC24F0D0EC8E
:1024800018F0D10E0001885D070E8959D8A04BEFD6
:1024900012F04DEF12F02FEF12F0896B000E886FE3
:1024A00077EC29F00001F46FF4C00EF00F6AEA0E29
:1024B000106E116A4CEC18F0EA0E2E6E2F6A37EC93
:1024C00027F0010E0A6EEA0E0B6E0C6A040EF3EC96
:1024D0001CF0040E0A6E19EC23F04A6E4AC00BF091
:1024E0000B50D8A4080E0C6E040EF3EC1CF0060E74
:1024F0000A6EF5EC23F04A6E4AC00BF00B50D8A4DC
:10250000080E0C6E040EF3EC1CF0080E0A6E54EC70
:1025100026F04A6E4AC00BF00B50D8A4080E0C6E81
:10252000040EF3EC1CF00A0E0A6EBBEC22F04A6EAD
:102530004AC00BF00B50D8A4080E0C6E040EF3EC3E
:102540001CF00C0E0A6E8BEC22F04A6E4AC00BF0A7
:102550000B50D8A4080E0C6E040EF3EC1CF02FEFF9
:1025600012F007EF00F01B6ECFEC27F006C01EF054
:1025700007C01FF008C020F009C021F01B50D8A4EC
:10258000C4EF12F0C6EF12F0CFEF12F00E50D96E7A
:10259000DA6A080ED926DF6A000E90EF13F00E50AB
:1025A000D96EDA6A080ED926DF50D8A4DAEF12F015
:1025B000DCEF12F0FDEF12F00E50D96EDA6A080E61
:1025C000D926010EDF6E0E50D96EDA6A1EC0DEFF0C
:1025D0001FC0DEFF20C0DEFF21C0DEFF0E50D96E1F
:1025E000DA6A040ED9261EC0DEFF1FC0DEFF20C03F
:1025F000DEFF21C0DEFFCCEF12F00E50D96EDA6A9A
:10260000DECF0FF0DECF10F0DECF11F0DECF12F014
:102610000F501E5C136E10501F58146E115020582E
:10262000156E12502158166E1650151009E1F40E51
:10263000135C010E1458D8B020EF13F022EF13F002
:1026400024EF13F0CCEF12F00E50D96EDA6ADECF21
:102650000FF0DECF10F0DECF11F0DECF12F00F5012
:102660001E5C136E10501F58146E11502058156EBA
:1026700012502158166E1650151009E1D10E135C38
:10268000070E1458D8B047EF13F049EF13F04EEF90
:1026900013F01D6AC80E1C6E51EF13F01D6A500E28
:1026A0001C6E1CC017F01DC018F0000E18BEFF0EE7
:1026B000196E1A6E0E50D96EDA6A040ED926DECF64
:1026C0000FF0DECF10F0DECF11F0DECF12F00F50A2
:1026D0001E5C136E10501F58146E11502058156E4A
:1026E00012502158166E1750135C18501458195078
:1026F00015581A501658D8A080EF13F082EF13F037
:10270000CCEF12F00E50D96EDA6A040ED9261EC034
:10271000DEFF1FC0DEFF20C0DEFF21C0DEFF010E96
:1027200012003EEF14F0010E92EC16F062EF14F07E
:10273000060E92EC16F0116A000E106E080EC0EC38
:1027400017F062EF14F03B50D96EDA6A030ED92607
:10275000DECF10F0DDCF11F0030EC0EC17F0010E4C
:102760000AEC21F062EF14F03B50D96EDA6A030EE6
:10277000D926DECF06F0DDCF07F0010E45EC21F0C3
:1027800062EF14F03B50D96EDA6A010ED926DECF23
:102790003CF0DDCF3DF03D50000AD8B4D2EF13F04D
:1027A00062EF14F03C50010AD8B4B4EF13F00A0AF7
:1027B000D8B498EF13F0070AD8B493EF13F0010AD6
:1027C000D8B4A3EF13F062EF14F0020E92EC16F0FF
:1027D00062EF14F0020EADEC1AF062EF14F0030E8B
:1027E00092EC16F0000E0AEC21F062EF14F03B5070
:1027F000D96EDA6A010ED926DECF3CF0DDCF3DF08E
:102800003D50000AD8B407EF14F062EF14F03C50CA
:10281000000AD8B4EFEF13F0010AD8B4E5EF13F0D3
:10282000030AD8B4EAEF13F062EF14F0050E92EC4D
:1028300016F062EF14F0116A000E106E080EC0EC74
:1028400017F062EF14F03B50D96EDA6A010ED92608
:10285000DECF3CF0DDCF3DF03D50000AD8B433EF81
:1028600014F062EF14F03C50040AD8B416EF14F0E0
:10287000010AD8B41BEF14F062EF14F03B50D96E8C
:10288000DA6ADF503C6E3D6A3D50000AD8B44BEF27
:1028900014F062EF14F03C50010AD8B4C2EF13F008
:1028A000030AD8B4F7EF13F0010AD8B423EF14F0F9
:1028B000070AD8B462EF14F0010AD8B462EF14F03A
:1028C00062EF14F01200000E276E000E286E000E4C
:1028D000296E000E246E000E256E000E266E0CC0B2
:1028E00024F00DC025F00AC027F00BC028F0FF0E21
:1028F0002714106EFF0E2814116E7F0E2914126E0D
:10290000FF0E2414136EFF0E2514146E7F0E261472
:10291000156E1050135C1150145812501558D8B041
:1029200094EF14F096EF14F0FDEF14F0FF0E241462
:10293000106EFF0E2514116E7F0E2614126E1050AD
:10294000136E1150146E1250156E166A0E50132429
:10295000176E0F501420186E000E1520196E000E01
:1029600016201A6EFF0E27141B6EFF0E28141C6E05
:102970007F0E29141D6E1B501E6E1C501F6E1D50A5
:10298000206E216A17501E5C18501F58195020588D
:102990002150800A226E1A50800A2258D8B0D3EFF4
:1029A00014F0D5EF14F0FDEF14F00E5024260F5064
:1029B00025220E5027260F5028222406D8A02506AF
:1029C00024C0D9FF25C0DAFFDF50236E2706D8A028
:1029D000280627C0D9FF28C0DAFF23C0DFFF0E0674
:1029E000D8A00F060E500F10D8A4F9EF14F0FBEF8B
:1029F00014F0DDEF14F022EF15F00E500F10D8B4E4
:102A000004EF15F006EF15F022EF15F024C0D9FF02
:102A100025C0DAFFDF50236E244A252A27C0D9FFBC
:102A200028C0DAFF23C0DFFF274A282A0E06D8A0D5
:102A30000F060E500F10D8A420EF15F022EF15F05E
:102A400006EF15F012000904D8A429EF15F02BEFBA
:102A500015F03AEF15F007C0D9FF08C0DAFFDF50D4
:102A6000D8A435EF15F037EF15F03AEF15F0000E5A
:102A7000DCEF15F0030E0918D8A441EF15F043EF71
:102A800015F083EF15F007C0D9FF08C0DAFFDF505B
:102A9000C00B400AD8A44FEF15F051EF15F083EFAB
:102AA00015F020EE02F00750D9260850DA22DF5048
:102AB0000A6E0B6A07C0D9FF08C0DAFFDF500C6E40
:102AC0000D6A20EE01F00750D9260850DA22DF50B7
:102AD0000E6E0E500C26000E0D22FF0E0C16000E70
:102AE0000D160A500C1807E10B500D18D8A47BEFF7
:102AF00015F07DEF15F080EF15F00D0EDCEF15F001
:102B00000E0EDCEF15F009B088EF15F08AEF15F026
:102B1000B6EF15F007C0D9FF08C0DAFFDF50C00BD1
:102B2000400AD8B496EF15F098EF15F0B6EF15F00F
:102B30000F6ABBEF15F00F5007240A6E000E082035
:102B40000B6E010E0A24D96E000E0B20DA6E0F50A8
:102B50000724E16E000E0820E26EDE50E618D8B4BD
:102B6000B4EF15F0B6EF15F0B9EF15F0100EDCEF7D
:102B700015F0020E0F2609500F5CD8A0C2EF15F019
:102B8000C4EF15F09BEF15F00F6AD2EF15F00F5060
:102B90000724D96E000E0820DA6EDF50CDEC19F054
:102BA000020E0F2609500F5CD8A0D9EF15F0DBEF0D
:102BB00015F0C7EF15F00F0E120074EF16F00001BC
:102BC0009F6BA06BA16B91EF16F092EC29F01E6E3B
:102BD0000001A151D8B4EFEF15F0F1EF15F009EFB6
:102BE00016F01E50D96EDA6ADECF06F0DDCF07F0A0
:102BF0005DEC28F00009D8B400EF16F002EF16F0F3
:102C000009EF16F00001A16B010ED3EC1BF091EF60
:102C100016F00001A051D8B410EF16F012EF16F024
:102C20002CEF16F01E50D96EDA6A020ED926DECFCE
:102C300006F0DDCF07F05DEC28F00009D8B423EFF3
:102C400016F025EF16F02CEF16F00001A06B020E27
:102C5000D3EC1BF091EF16F000019F51D8B433EF85
:102C600016F035EF16F091EF16F09F6B096A050E1E
:102C7000086E58EC29F006C00AF007C00BF0030EEE
:102C800025EC22F0000E7BEC28F091EF16F0D80E28
:102C90000E6E0F6A47EC1EF00009D8B452EF16F022
:102CA00054EF16F091EF16F0000178517911D8B475
:102CB0005CEF16F05EEF16F070EF16F07807D8A014
:102CC0007907D80E0E6E0F6AE80E106E030E116EA5
:102CD000000E126E000E136EA4EC25F091EF16F0AC
:102CE00010EC26F091EF16F054501C6E1D6A1D502A
:102CF000000AD8B47EEF16F091EF16F01C50000ACF
:102D0000D8B4DFEF15F0010AD8B4E5EF15F0030AE7
:102D1000D8B447EF16F0010AD8B491EF16F091EF4E
:102D200016F012003A6E0DEF17F03A04D8A49BEF9C
:102D300016F09DEF16F02AEF17F0010E16EC1FF0BB
:102D40002AEF17F0020E16EC1FF02AEF17F0040E10
:102D500016EC1FF02AEF17F03A50386E396A3950E6
:102D6000000AD8B4B6EF16F02AEF17F03850020A6E
:102D7000D8B4A2EF16F0040AD8B4A7EF16F02AEFE1
:102D800017F0030E16EC1FF02AEF17F0010E16ECE9
:102D90001FF02AEF17F0040E16EC1FF02AEF17F0C1
:102DA0003A50386E396A3950000AD8B4DAEF16F062
:102DB0002AEF17F03850030AD8B4C6EF16F0070A06
:102DC000D8B4C1EF16F0020AD8B4CBEF16F02AEF50
:102DD00017F0010E16EC1FF02AEF17F0040E16EC98
:102DE0001FF02AEF17F03A50386E396A3950000A4E
:102DF000D8B4FDEF16F02AEF17F03850050AD8B412
:102E0000E9EF16F0030AD8B4EEEF16F02AEF17F048
:102E1000040E16EC1FF02AEF17F05B50386E396A7B
:102E20003950000AD8B417EF17F008EF17F03850F0
:102E3000010AD8B4ACEF16F0030AD8B4D0EF16F0FC
:102E4000010AD8B4F3EF16F0070AD8B495EF16F0DC
:102E500008EF17F0120000018C514F18D8B433EF6F
:102E600017F035EF17F037EF17F06EEC24F0000194
:102E70008C514F18D8A43FEF17F041EF17F09CEF9B
:102E800017F04B50801907E14C508119D8A44BEF33
:102E900017F04DEF17F09CEF17F0BFEF17F0010E92
:102EA0000A6E7A0E0B6E0B50D8A4080E0C6E010E33
:102EB000F3EC1CF0B9EF17F0010E0A6ECA0E0B6EA0
:102EC0000B50D8A4080E0C6E010EF3EC1CF04BC096
:102ED0000EF04CC00FF0420E106E010E116E4CEC55
:102EE00018F0420E2E6E010E2F6E37EC27F00A0EF0
:102EF0000A6E420E0B6E010E0C6E010EF3EC1CF00E
:102F0000B9EF17F0010E0A6E8A0E0B6E0B50D8A4A3
:102F1000080E0C6E010EF3EC1CF0B9EF17F0010E69
:102F20000A6E680E0B6E0B50D8A4080E0C6E010EC4
:102F3000F3EC1CF0B9EF17F04F50306E316A31509E
:102F4000000AD8B4A6EF17F0B9EF17F03050000A16
:102F5000D8B44FEF17F0010AD8B45CEF17F0030AAA
:102F6000D8B482EF17F0010AD8B48FEF17F0B9EF99
:102F700017F04FC08CF04BC080F04CC081F01200B5
:102F8000146E36EF18F0030E1418D8A4CAEF17F019
:102F9000CCEF17F04BEF18F010501110D8B4D3EF5E
:102FA00017F0D5EF17F04BEF18F010C006F011C076
:102FB00007F04DEC29F006EC29F0010EDBEC1FF0D8
:102FC0004BEF18F010501110D8B4E9EF17F0EBEFF9
:102FD00017F04BEF18F010C006F011C007F04DECE1
:102FE00029F006EC29F0096A020E086E58EC29F067
:102FF00006C00AF007C00BF0020E25EC22F04BEFE2
:1030000018F010C006F011C007F03CEC28F01EECE0
:1030100027F0000EDBEC1FF04BEF18F01EEC27F052
:10302000000EDBEC1FF04BEF18F01450126E136A19
:103030001350000AD8B41FEF18F04BEF18F01250DD
:10304000030AD8B4E2EF17F0070AD8B401EF18F07A
:10305000010AD8B401EF18F0020AD8B40EEF18F044
:103060000F0AD8B40EEF18F04BEF18F05550126E4F
:10307000136A1350000AD8B440EF18F04BEF18F061
:103080001250000AD8B4C3EF17F0010AD8B415EFF4
:1030900018F04BEF18F012001B6A1A6A196A0E50EA
:1030A0000F10D8A456EF18F058EF18F067EF18F08B
:1030B00010C0D9FF11C0DAFF300EDF6E20EE01F034
:1030C0001050D9261150DA22DF6ACFEF18F00FBE68
:1030D0006EEF18F06CEF18F094EF18F0010E196E07
:1030E0000E6C0F1ED8B00F2A94EF18F01B50120F61
:1030F000D96EDA6A0EC006F00FC007F0096A0A0E30
:10310000086E52EC1DF00650300FDF6E1B2A0EC009
:1031100006F00FC007F0096A0A0E086E93EC1CF067
:1031200006C00EF007C00FF00FBEA1EF18F00F5051
:1031300006E10E04D8B09FEF18F0A1EF18F076EF7B
:1031400018F01950D8B4A7EF18F0A9EF18F0C0EF95
:1031500018F01B50120FD96EDA6A2D0EDF6E1B2A83
:10316000C0EF18F01B061B50120FD96EDA6A1A5006
:103170001024E16E000E1120E26EDFCFE7FF1A2A65
:103180001B50D8A4C6EF18F0C8EF18F0B2EF18F033
:103190001A501024D96E000E1120DA6EDF6A120068
:1031A0000001F851D8A4D7EF18F0D9EF18F039EF93
:1031B00019F052EF19F05150D8A4E1EF18F0E3EFF5
:1031C00018F0E8EF18F05050800F0B6E06EF19F072
:1031D0005104D8A4EEEF18F0F0EF18F0F5EF18F066
:1031E0005050C00F0B6E06EF19F0020E5118D8A404
:1031F000FCEF18F0FEEF18F003EF19F05050940FA9
:103200000B6E06EF19F05050D40F0B6E0B50FBEC09
:1032100028F0020E00018D6F52EF19F05150140D7D
:10322000000EF324096E030EF4200A6E5050092498
:10323000D96E000E0A20DA6EDF50F0EC28F0502A2A
:10324000130E506426EF19F028EF19F02AEF19F049
:10325000506A512A030E516430EF19F032EF19F021
:1032600035EF19F0516A0001F86B00018D6B52EFD8
:1032700019F08D51096E0A6A0A50000AD8B443EF5A
:1032800019F052EF19F00950000AD8B4DBEF18F02A
:10329000010AD8B452EF19F0030AD8B40EEF19F0AE
:1032A00052EF19F01200A9EF19F01D0E066E1C0E58
:1032B000076E7FEC25F00009D8A461EF19F063EFE9
:1032C00019F065EF19F0B3EF19F0CA0E0E6E010E8A
:1032D0000F6E0A0E106E000E116E000E126E000EB2
:1032E000136EA4EC25F02D0E576479EF19F07BEFE7
:1032F00019F07EEF19F0576ACCEF19F0940E5724AD
:10330000D96EDA6A020EDA221DC0DFFF572A1C507E
:10331000D8B48DEF19F08FEF19F095EF19F0E9ECB3
:1033200026F07AEC29F0CCEF19F05704D8A49BEFE3
:1033300019F09DEF19F0A9EF19F01D50D8A4A3EFD3
:1033400019F0A5EF19F0A9EF19F0E9EC26F0CCEF90
:1033500019F0CDEC28F00009D8A4B1EF19F0B3EFC3
:1033600019F055EF19F05750D8B4B9EF19F0BBEF79
:1033700019F0CCEF19F0CA0E0E6E010E0F6E47EC6D
:103380001EF00009D8B4C7EF19F0C9EF19F0CCEF5F
:1033900019F0576A91EF19F01200066E0CEF1AF04F
:1033A000010E0001AD6F43EF1AF0010E0001B06F86
:1033B00043EF1AF0010E0001AF6F43EF1AF0010E58
:1033C0000001B16F43EF1AF0010E0001B26F43EF3D
:1033D0001AF0010E0001B76F43EF1AF0010E000161
:1033E000B46F43EF1AF0010E0001B86F43EF1AF00B
:1033F000010E0001B66F43EF1AF0010E0001B36F2A
:1034000043EF1AF0010E0001B56F43EF1AF0010E01
:103410000001B96F43EF1AF00650010AD8B4D0EF9B
:1034200019F0030AD8B4D5EF19F0010AD8B4DAEFCD
:1034300019F0070AD8B4E4EF19F0010AD8B4FDEF87
:1034400019F0030AD8B4E9EF19F0010AD8B4EEEF85
:1034500019F00F0AD8B4F3EF19F0010AD8B402EF4B
:103460001AF0030AD8B4D5EF19F0010AD8B4DFEF87
:1034700019F0070AD8B4F8EF19F0010AD8B407EF29
:103480001AF043EF1AF012000600D9CF02F0DACF9B
:1034900003F0F2A44EEF1AF050EF1AF05EEF1AF0BC
:1034A000F294D10ED76E200ED66E010E0001742755
:1034B000000E752376237723884B892B9EA063EF1C
:1034C0001AF065EF1AF06DEF1AF09E906D0ECF6E48
:1034D000840ECE6E0001864B872B9EAA72EF1AF0E7
:1034E00074EF1AF0A7EF1AF0ABA279EF1AF07BEFA6
:1034F0001AF07FEF1AF0AB98AB88A7EF1AF0000E26
:10350000ABB0010E046EAECF05F0ABA48AEF1AF09B
:103510008CEF1AF08EEF1AF0A7EF1AF02E0E5A6009
:1035200094EF1AF096EF1AF0A7EF1AF02E0E5A2425
:10353000D96EDA6A020EDA2205C0DFFF000E5A24C5
:10354000D96EDA6A020EDA2204C0DFFF5A2A03C0FB
:10355000DAFF02C0D9FF01921100346EEEEF1AF0CB
:103560004F6A0FEF1BF04BC080F04CC081F058EC5D
:1035700029F006C04BF007C04CF0010E4F6E010E53
:103580000A6ECA0E0B6E0B50D8A4080E0C6E010EFC
:10359000F3EC1CF04BC030F04CC031F004EC27F0E1
:1035A0000FEF1BF04F04D8A4D8EF1AF0DAEF1AF09F
:1035B0000FEF1BF04BC080F04CC081F058EC29F0AD
:1035C00006C04BF007C04CF0CAEF1AF0020E4F6E67
:1035D0000FEF1BF0030E4F6E0FEF1BF03450326EE7
:1035E000336A3350000AD8B4F8EF1AF00FEF1BF02B
:1035F0003250000AD8B4B0EF1AF0010AD8B4B3EFD1
:103600001AF0030AD8B4D2EF1AF0010AD8B4E6EFE0
:103610001AF0070AD8B4EAEF1AF00FEF1BF0120005
:103620000AC006F00BC007F0E5EC24F00650166E59
:103630000C50165CD8A01FEF1BF021EF1BF023EFFE
:103640001BF071EF1BF0140E0C6429EF1BF02BEF35
:103650001BF02DEF1BF0140E0C6E16500C5C146E4C
:1036600016C017F017BE39EF1BF037EF1BF03BEF1A
:103670001BF05CEF1BF017C00EF00F6A0EBE0F06BA
:103680000E500A24D96E0F500B20DA6E17C010F0BE
:10369000116A10BE110610500A24126E11500B2030
:1036A000136E14501224E16E000E1320E26EDFCF71
:1036B000E7FF170632EF1BF0156A68EF1BF0155095
:1036C0000A24D96E000E0B20DA6E0DC0DFFF152A1A
:1036D0001450155CD8A06FEF1BF071EF1BF05FEF7B
:1036E0001BF01200176A166A0D500E10D8A47BEF5B
:1036F0001BF07DEF1BF0AAEF1BF00FC0D9FF10C02D
:10370000DAFF300EDF6E20EE01F00F50D926105098
:10371000DA22DF6AD2EF1BF01750110FD96EDA6A86
:103720000DC006F00EC007F0096A0A0E086E59ECCB
:1037300022F00650300FDF6E172A0DC006F00EC0C3
:1037400007F0096A0A0E086E7EEC21F006C00DF043
:1037500007C00EF00D500E10D8A4B1EF1BF0B3EF60
:103760001BF08CEF1BF0C3EF1BF017061750110F67
:10377000D96EDA6A16500F24E16E000E1020E26E48
:10378000DFCFE7FF162A1750D8A4C9EF1BF0CBEF05
:103790001BF0B5EF1BF016500F24D96E000E102051
:1037A000DA6EDF6A1200176E92EC29F0186E0DEFD8
:1037B0001CF01850D96EDA6A040ED926DECF78F0E4
:1037C000DDCF79F0010E00017A6F1850D96EDA6AF8
:1037D000DECF10F0DDCF11F0040EC0EC17F08A80C0
:1037E00022EF1CF01850D96EDA6A060ED926DECF09
:1037F00078F0DDCF79F0020E00017A6F1850D96EA3
:10380000DA6A020ED926DECF10F0DDCF11F0050EF8
:10381000C0EC17F08A8222EF1CF01750156E166A62
:103820001650000AD8B417EF1CF022EF1CF0155008
:10383000010AD8B4D9EF1BF0030AD8B4F2EF1BF099
:1038400022EF1CF0D80E0E6E0F6AE80E106E030EFB
:10385000116E000E126E000E136EA4EC25F0020E17
:103860007BEC28F0120000019F6BA06BA16B9C6B9E
:103870009D6BA76BA86B936B946B956B916B926B25
:10388000536A8E6B000E6C6F000E6D6F000E6E6FC4
:10389000000E6F6F0F0EC16E070EB46E9280928293
:1038A000928495809582958480B059EF1CF05CEFEE
:1038B0001CF0010E5DEF1CF0000E9B6F80B263EFF9
:1038C0001CF066EF1CF0010E67EF1CF0000E9A6F03
:1038D00080B46DEF1CF070EF1CF0010E71EF1CF066
:1038E000000E996F83B077EF1CF07AEF1CF0010E99
:1038F0007BEF1CF0000E986F83B281EF1CF084EF19
:103900001CF0010E85EF1CF0000E976F83B48BEF57
:103910001CF08EEF1CF0010E8FEF1CF0000E966F66
:10392000906B8F6B12000B6A09BE9BEF1CF099EF36
:103930001CF0A1EF1CF0086C091ED8B0092A010E7A
:103940000B6E07BEA8EF1CF0A6EF1CF0AEEF1CF04C
:10395000066C071ED8B0072A010E0B1A0D6A000E5E
:103960000C6E08500910D8B4B8EF1CF0BAEF1CF078
:10397000E2EF1CF0010E0A6EC2EF1CF0D890083680
:1039800009360A2A09AEC7EF1CF0C9EF1CF0BEEFDA
:103990001CF0D8900C360D360850065C09500758BC
:1039A000D8A0D5EF1CF0D7EF1CF0DCEF1CF00850CE
:1039B000065E0950075A0C80D890093208320A2E48
:1039C000C9EF1CF00B50D8B4E8EF1CF0EAEF1CF084
:1039D000EEEF1CF00C6C0D1ED8B00D2A0CC006F0DA
:1039E0000DC007F01200116E1150D8B4FAEF1CF0A0
:1039F000FCEF1CF051EF1DF0040E116402EF1DF0FE
:103A000004EF1DF006EF1DF051EF1DF011040F6ED5
:103A10000A04106E2EEF1DF00BC0F6FF0CC0F7FF6E
:103A2000F86A0F50140D000EF3240D6E030EF420EF
:103A30000E6E10500D24D96E000E0E20DA6E070E99
:103A4000F76403D00800F55005D0F6CFE9FFF7CFB3
:103A5000EAFFEF50DF6E0B4A0C2A102A0BC0F6FF6C
:103A60000CC0F7FFF86A070EF76403D00800F550A2
:103A700005D0F6CFE9FFF7CFEAFFEF500009D8B441
:103A800044EF1DF046EF1DF04EEF1DF0130E1064D5
:103A90004CEF1DF04EEF1DF00CEF1DF0010E00017C
:103AA000F86F12000B6A07BE5AEF1DF058EF1DF0B9
:103AB00060EF1DF0066C071ED8B0072A010E0B6ED2
:103AC00009BE67EF1DF065EF1DF06BEF1DF0086C90
:103AD000091ED8B0092A08500910D8B472EF1DF099
:103AE00074EF1DF098EF1DF0010E0A6E7CEF1DF0D3
:103AF000D890083609360A2A09AE81EF1DF083EF07
:103B00001DF078EF1DF00850065C09500758D8A04A
:103B10008CEF1DF08EEF1DF092EF1DF00850065E49
:103B20000950075AD890093208320A2E83EF1DF047
:103B30000B50D8B49EEF1DF0A0EF1DF0A4EF1DF0C8
:103B4000066C071ED8B0072A06C006F007C007F0AB
:103B500012000C6E92EC29F00D6EDEEF1DF00D5090
:103B6000D96EDA6ADECF08F0DDCF09F0FBEF1DF089
:103B70000D50D96EDA6A020ED926DECF08F0DDCFFD
:103B800009F0FBEF1DF00D50D96EDA6A040ED9264C
:103B9000DECF08F0DDCF09F0FBEF1DF00D50D96E40
:103BA000DA6A060ED926DECF08F0DDCF09F0FBEF8A
:103BB0001DF0096A000E086EFBEF1DF00C500A6E36
:103BC0000B6A0B50000AD8B4E8EF1DF0D9EF1DF0D6
:103BD0000A50000AD8B4AFEF1DF0010AD8B4B8EF0C
:103BE0001DF0030AD8B4C3EF1DF0010AD8B4CEEF1C
:103BF0001DF0D9EF1DF01200010E1C6E010E0A6EB1
:103C0000530E0B6E0B50D8A4080E0C6E030EF3EC83
:103C10001CF0170E066E12C0D9FF13C0DAFFDF507A
:103C2000EAEC22F0010E0A6E170E0B6E0C6A030E00
:103C3000F3EC1CF0030E1C261B6A35EF1EF0170E6A
:103C4000066E1B501424D96E000E1520DA6EDF505C
:103C5000EAEC22F01CC00AF0170E0B6E0C6A030E81
:103C6000F3EC1CF0030E1C261B2A16501B5CD8B06C
:103C70003CEF1EF03EEF1EF046EF1EF0120E1C64ED
:103C800044EF1EF046EF1EF01FEF1EF0120020EE74
:103C900008F00E50D9260F50DA22DF50D8A453EF87
:103CA0001EF055EF1EF058EF1EF0000E8FEF1EF0C5
:103CB00020EE04F00E50D9260F50DA220EC0E1FF9C
:103CC0000FC0E2FFE6CF14F0E6CF15F0E6CF16F016
:103CD000E6CF17F0CFEC27F01450065C186E1550A5
:103CE0000758196E165008581A6E175009581B6E4F
:103CF000DE50185CDE501958DE501A58DE501B5842
:103D0000D8A085EF1EF087EF1EF055EF1EF020EED5
:103D100008F00E50D9260F50DA22DF6A010E120089
:103D20000AC010F00BC011F0B3EF1EF00D06D8A0C2
:103D30000E060C2A0C040F6E0FC0F6FF080EF76E6D
:103D400010C0D9FF11C0DAFF104A112A0800F5CFC0
:103D5000DFFFDF50D8A4AFEF1EF0B1EF1EF0B3EFDE
:103D60001EF0C5EF1EF00D500E10D8A4BAEF1EF0D5
:103D7000BCEF1EF096EF1EF0C5EF1EF010C0D9FF8D
:103D800011C0DAFFDF6A104A112A0D06D8A00E060C
:103D90000D2806E10E28D8A4D0EF1EF0D2EF1EF0B9
:103DA000BEEF1EF012002AC02CF02BC02DF02A50BE
:103DB0002B10D8A4DEEF1EF0E0EF1EF0E4EF1EF0B3
:103DC00015EF1FF02C4A2D2A2CC0D9FF2DC0DAFF89
:103DD000DF50A2EC23F00009D8A4F1EF1EF0F3EFBE
:103DE0001EF0E2EF1EF02A502C1809E12B502D187E
:103DF000D8B4FDEF1EF0FFEF1EF015EF1FF02AC044
:103E00000AF02BC00BF02CC00CF02DC00DF02CC014
:103E100006F02DC007F0E5EC24F0010E06240E6E2E
:103E2000000E07200F6E63EC14F01200376E37504F
:103E30005B18D8A41EEF1FF020EF1FF022EF1FF039
:103E400057EF1FF037C05BF03AEF1FF0000EADECFC
:103E50001AF057EF1FF0010EADEC1AF057EF1FF0FC
:103E6000030EADEC1AF057EF1FF0040EADEC1AF094
:103E700057EF1FF05B50356E366A3650000AD8B4E3
:103E800044EF1FF057EF1FF03550010AD8B426EF6A
:103E90001FF0030AD8B42BEF1FF0010AD8B430EF9B
:103EA0001FF0070AD8B435EF1FF057EF1FF01200CC
:103EB0000A500B10D8A45FEF1FF061EF1FF063EF03
:103EC0001FF099EF1FF00AC006F00BC007F0E5ECF9
:103ED00024F006C00EF007C00FF072EF1FF00E06C0
:103EE000D8A00F060E500F10D8B479EF1FF07BEF5B
:103EF0001FF092EF1FF00E500A240C6E0F500B2093
:103F00000D6EFF0E0C24D96EFF0E0D20DA6EDF5001
:103F1000A2EC23F00009D8A490EF1FF092EF1FF05D
:103F20006FEF1FF00E500A24D96E0F500B20DA6E7F
:103F3000DF6A12000C6EBDEF1FF008C006F009C06A
:103F400007F02AEC28F0DAEF1FF008C006F009C0ED
:103F500007F018EC28F0DAEF1FF008C006F009C0EF
:103F600007F006EC28F0DAEF1FF008C006F009C0F1
:103F700007F0F4EC27F0DAEF1FF00C500A6E0B6A32
:103F80000B50000AD8B4C7EF1FF0DAEF1FF00A5049
:103F9000000AD8B49DEF1FF0010AD8B4A5EF1FF0B6
:103FA000030AD8B4ADEF1FF0010AD8B4B5EF1FF083
:103FB000DAEF1FF012000F6E0F505518D8A4E3EF80
:103FC0001FF0E5EF1FF0E7EF1FF018EF20F00FC034
:103FD00055F003EF20F05DEC29F0096A000E086E41
:103FE0000B6A000E0A6E020E25EC22F018EF20F08C
:103FF000096A010E086E0B6A000E0A6E020E25ECAD
:1040000022F018EF20F055500D6E0E6A0E50000A87
:10401000D8B40DEF20F018EF20F00D50000AD8B4FE
:10402000EBEF1FF0010AD8B4F8EF1FF018EF20F003
:1040300012000650D96EDA6ADE50DE10D8B423EFD3
:1040400020F025EF20F033EF20F00650D96EDA6A29
:10405000020ED926DE50DE10D8A431EF20F033EF67
:1040600020F036EF20F0000E55EF20F00650D96E0C
:10407000DA6A040ED926DE50DE10D8B442EF20F002
:1040800044EF20F033EF20F00650D96EDA6A060EC6
:10409000D926DE50DE10D8A450EF20F052EF20F0E9
:1040A00054EF20F033EF20F0010E1200096A000EE9
:1040B000086E110E0A6E0C6A020E0B6E75EC26F07D
:1040C0005A0E111809E1A50E1218D8B46AEF20F0A3
:1040D0006CEF20F088EF20F07DEC27F0A50E126E3B
:1040E0005A0E116E0C6A020E0B6EBA0E0D6E0F6A2E
:1040F0000C0E0E6E32EC26F00C6A000E0B6E110EDA
:104100000D6E0F6A020E0E6E32EC26F092EF20F06A
:10411000096A020E086EBA0E0A6E0C6A0C0E0B6E5D
:1041200075EC26F01200076E07C006F0010E0616A9
:10413000063A8A500618EF0B06188A6E07C006F07A
:10414000D8900632010E0616063A06468A50061820
:10415000DF0B06188A6E07C006F0D8900632D8909A
:104160000632010E0616063A064606468A5006181C
:10417000BF0B06188A6E07C006F0D8900632D8909A
:104180000632D8900632010E0616063206328A50E2
:1041900006187F0B06188A6E1BEC29F01200936A32
:1041A0008A6A020E0A6E380E096EAD0EE82EFED730
:1041B000092EFCD70A2EFAD700000B6A8A94030E48
:1041C00093EC20F04E0E096EEB0EE82EFED7092E72
:1041D000FCD700000B2A020E0B64F1EF20F0F3EF86
:1041E00020F0DEEF20F0020E93EC20F0280EFBEC26
:1041F00028F00C0EFBEC28F0060EFBEC28F0010E6C
:10420000FBEC28F0200E096E2A0EE82EFED7092EB0
:10421000FCD71200096E27EF21F00904D8A413EF90
:1042200021F015EF21F044EF21F0010E7BEC28F096
:1042300044EF21F00950D8A420EF21F022EF21F023
:1042400044EF21F0000E7BEC28F044EF21F05450B5
:10425000076E086A0850000AD8B431EF21F044EF25
:1042600021F00750000AD8B40DEF21F0010AD8B4AC
:104270001AEF21F0030AD8B444EF21F0010AD8B4B0
:1042800044EF21F044EF21F012000A6E63EF21F0B9
:104290000A04D8A44EEF21F050EF21F07DEF21F079
:1042A000075009E1020E065CD8A059EF21F05BEF40
:1042B00021F07DEF21F006C07BF007C07CF0010EFD
:1042C0007D6F7DEF21F00001A351086E096A09504E
:1042D000000AD8B46EEF21F07DEF21F00850100AEB
:1042E000D8B448EF21F0010AD8B448EF21F0050A0C
:1042F000D8B448EF21F07DEF21F012000C6A000ED7
:104300000B6E08500910D8B488EF21F08AEF21F025
:10431000B2EF21F0010E0A6E92EF21F0D89008362C
:1043200009360A2A09AE97EF21F099EF21F08EEFB6
:1043300021F0D8900B360C360850065C095007580F
:10434000D8A0A5EF21F0A7EF21F0ACEF21F00850A5
:10435000065E0950075A0B80D890093208320A2E9F
:1043600099EF21F00BC006F00CC007F012002D0EE3
:10437000F66E530EF76E000EF86E0900F5CFF8F0EA
:104380002C0EF66E530EF76E000EF86E0900F5CF88
:104390005BF003EE00F0A00EEE6AE806FDE102EE2F
:1043A00000F0C40EEE6AE806FDE101EE00F0D30E67
:1043B000EE6AE806FDE100EE60F08A0EEE6AE806BD
:1043C000FDE100EE4BF0100EEE6AE806FDE1019013
:1043D0000192000EF86E0001B8EF11F02E0E1F646E
:1043E000F4EF21F0F6EF21F0F8EF21F02E0E1F6E22
:1043F000206A0AEF22F020501D24D96E000E1E20E4
:10440000DA6E640E2024E16EE26A020EE222DFCF51
:10441000E7FF202A1F50205CD8A011EF22F013EFF5
:1044200022F0FBEF21F01FC092F2010E0201936F08
:104430005C0E126E020E136E640E146E020E156E7A
:104440001FC016F0FCEC1DF012000C6EA6EC28F05C
:104450000009D8B42EEF22F030EF22F032EF22F034
:1044600058EF22F05850050D500EF324D96E030E6C
:10447000F420DA6E0CC0DFFF5850050D510EF32406
:10448000D96E030EF420DA6E08C0DEFF09C0DDFF2E
:104490005850050D530EF324D96E030EF420DA6E36
:1044A0000AC0DEFF0BC0DDFF585066EC29F0586EE5
:1044B000120008500910D8B460EF22F062EF22F029
:1044C00086EF22F0010E0A6E6AEF22F0D8900836CD
:1044D00009360A2A09AE6FEF22F071EF22F066EF7B
:1044E00022F00850065C09500758D8A07AEF22F055
:1044F0007CEF22F080EF22F00850065E0950075A48
:10450000D890093208320A2E71EF22F006C006F068
:1045100007C007F012009CEF22F0E10EBAEF22F084
:10452000E30EBAEF22F0DF0EBAEF22F0E50EBAEF9B
:1045300022F0EB0EBAEF22F08CEC29F0086E096A3B
:104540000950000AD8B4A7EF22F099EF22F00850E2
:10455000000AD8B48DEF22F0010AD8B490EF22F00F
:10456000030AD8B493EF22F0010AD8B496EF22F0F0
:1045700099EF22F01200CCEF22F0E10EE9EF22F0E9
:10458000F10EE9EF22F0DF0EE9EF22F0ED0EE9EF98
:1045900022F0EB0EE9EF22F05450086E096A095040
:1045A000000AD8B4D6EF22F0C9EF22F00850000A72
:1045B000D8B4BDEF22F0010AD8B4C0EF22F0030A4C
:1045C000D8B4C3EF22F0010AD8B4C6EF22F0C9EF85
:1045D00022F01200096E09C007F0073A0F0E071605
:1045E0000F0E07160750010F086E08C0F6FF080EE1
:1045F000F76E0650D96EDA6A0800F5CFDFFF09C002
:1046000007F00F0E07160750010F086E08C0F6FFDF
:10461000080EF76E0650D96EDA6A010ED926080028
:10462000F5CFDFFF0650D96EDA6A020ED926DF6AAF
:1046300012002AEF23F0F10E47EF23F0E30E47EFCD
:1046400023F0E70E47EF23F0E50E47EF23F0EB0EE4
:1046500047EF23F05B50086E096A0950000AD8B48E
:1046600034EF23F027EF23F00850010AD8B41BEFF2
:1046700023F0030AD8B41EEF23F0010AD8B421EFC7
:1046800023F0070AD8B424EF23F027EF23F0120019
:10469000020E12604EEF23F050EF23F053EF23F0A1
:1046A000000E75EF23F010C006F011C007F012C025
:1046B00008F0BEEC24F0156E12501024136E000E9C
:1046C0001120146EFF0E1324D96EFF0E1420DA6E23
:1046D000DF50166E16501518D8B471EF23F074EF32
:1046E00023F0010E75EF23F0000E12005504D8A43C
:1046F0007CEF23F07EEF23F0A1EF23F0CFEC27F047
:1047000000017051065C156E71510758166E72519A
:104710000858176E73510958186E185017100BE18E
:10472000300E155C750E1658D8A099EF23F09BEF4C
:1047300023F0A1EF23F0116A000E106E070EC0ECFB
:1047400017F01200076E010E066E200E0718D8B47F
:10475000ACEF23F0AEEF23F0CAEF23F0090E0718F9
:10476000D8B4B5EF23F0B7EF23F0CAEF23F00D0E66
:104770000718D8B4BEEF23F0C0EF23F0CAEF23F040
:104780000A0E0718D8B4C7EF23F0C9EF23F0CAEF19
:1047900023F0066A0650120010501110D8B4D3EF5F
:1047A00023F0D5EF23F0F4EF23F010C006F011C092
:1047B00007F003C108F0096A7EEC21F00650126E82
:1047C0000F0E136E020E146E12C015F0130E066E4D
:1047D000076A040E086EBEEC24F0166E130E096E06
:1047E000040E0A6E33EC25F0120003EF24F0F10EF4
:1047F0001DEF24F0EF0E1DEF24F0ED0E1DEF24F061
:10480000EB0E1DEF24F090EC29F0086E096A0950B8
:10481000000AD8B40EEF24F000EF24F00850000A8C
:10482000D8B4F7EF23F0010AD8B4FAEF23F0030A63
:10483000D8B4FDEF23F000EF24F012002CEF24F0A9
:1048400094EC29F02BEC17F045EF24F0EEEC0DF092
:1048500093EC27F045EF24F05650356E366A36500B
:10486000000AD8B436EF24F045EF24F03550000AA2
:10487000D8B420EF24F0010AD8B426EF24F0030ABC
:10488000D8B445EF24F045EF24F01200136A13501A
:10489000020DF350600FD96EDA6ADECF08F0DDCF7B
:1048A00009F01350080DF3CF11F0010E112611502D
:1048B000330F126E12C0F6FF080EF76E0800F550A7
:1048C0009AEC1FF0132A030E136469EF24F06BEFC8
:1048D00024F047EF24F080EC29F01200086A096AFE
:1048E0000850140D000EF324066E030EF420076E1C
:1048F00009500624D96E000E0720DA6E200EDF6EF6
:10490000092A130E096487EF24F089EF24F070EF71
:1049100024F0082A030E086490EF24F092EF24F0AC
:104920006FEF24F0010E0001F86F1200086EA4EF83
:1049300024F00850D8A49FEF24F0A1EF24F0BDEF9D
:1049400024F0566ABDEF24F05650066E076A0750F1
:10495000000AD8B4AEEF24F0BDEF24F00650000AF0
:10496000D8B4BDEF24F0010AD8B499EF24F0030ABB
:10497000D8B4BDEF24F0BDEF24F012000E6A0F6A28
:10498000CBEF24F00F500624D96E000E0720DA6E0C
:10499000DF500E260F2AFF0E0824096E0A6AFF0E4A
:1049A0000A220F500B6E0C6A09500B5C0C50800AE7
:1049B0000D6E0A50800A0D58D8A0E1EF24F0E3EF05
:1049C00024F0C2EF24F00E50120006C008F007C019
:1049D00009F0EDEF24F0064A072A06C0F6FF07C0EB
:1049E000F7FFF86A070EF76403D00800F55005D00A
:1049F000F6CFE9FFF7CFEAFFEF500009D8A403EFA5
:104A000025F005EF25F0EBEF24F00850065C066E6C
:104A100009500758076E1200000EF2BE010E0A6E12
:104A2000F29E06C0A9FF08C0A8FFA69EA69CA68469
:104A3000550EA76EAA0EA76EA6820950D8B423EF12
:104A400025F025EF25F02CEF25F0A6B22AEF25F072
:104A50002CEF25F025EF25F0A6940AB002D0F29EA7
:104A600001D0F28E12009EA838EF25F03AEF25F023
:104A700033EF25F0AC800950D96EDA6ADF50AD6EA5
:104A8000AC90010E0B6E4FEF25F0000E066E095034
:104A90000B24D96EDA6ADF50CEEC26F00B2A0A50CE
:104AA0000B5CD8A056EF25F058EF25F045EF25F028
:104AB0001200106A1050080DF3CF0EF0010E0E26F2
:104AC0000E50330F0F6E0FC0F6FF080EF76E080082
:104AD000F550A9EC1DF01050020DF350600FD96E87
:104AE000DA6A08C0DEFF09C0DDFF102A030E106479
:104AF0007CEF25F07EEF25F05AEF25F012005A509A
:104B0000525CD8A086EF25F088EF25F08BEF25F0DA
:104B1000000EA3EF25F02E0E5224D96EDA6A020E93
:104B2000DA220650E16EE26ADFCFE7FF000E522480
:104B3000D96EDA6A020EDA220750E16EE26ADFCF3E
:104B4000E7FF522A010E1200CFEC27F00EC0D9FF6A
:104B50000FC0DAFF06C0DEFF07C0DEFF08C0DEFFC1
:104B600009C0DEFF20EE04F00E50D9260F50DA22E5
:104B700010C0DEFF11C0DEFF12C0DEFF13C0DEFF7B
:104B800020EE08F00E50D9260F50DA22010EDF6E0B
:104B90001200D9EC28F00009D8B4D1EF25F0D3EFFA
:104BA00025F0D5EF25F0ECEF25F05950050D500E0E
:104BB000F324D96E030EF420DA6E10EE3EF0040EEC
:104BC000DBCFE3FFE806FCE2595066EC29F0596EB2
:104BD0003E0E3B6E91EC13F01200846A836A826A87
:104BE000816A806A95689468936892680F0E966EE1
:104BF00092809282928492869288929A93909392D3
:104C0000939493969398939A939C939E8A908A9266
:104C1000949C948E958095829584969096821200AD
:104C20008A908A9200017A05D8A419EF26F01BEF2A
:104C300026F01FEF26F098EC28F02AEF26F0020E5F
:104C40007A19D8A426EF26F028EF26F02AEF26F0CE
:104C50008AEC28F04FEC27F000017A6B000E7BEC19
:104C600028F012000DC010F046EF26F00BC006F041
:104C70000CC007F01050D96EDA6ADF50086E010ED2
:104C8000096E0CEC25F0102A0B4A0C2A0E06D8A04F
:104C90000F060E2806E10F28D8A451EF26F053EF97
:104CA00026F036EF26F012005FEF26F0ED0E74EFDF
:104CB00026F0E90E74EF26F0EB0E74EF26F0555057
:104CC000086E096A0950000AD8B469EF26F05CEF53
:104CD00026F00850000AD8B456EF26F0010AD8B4DE
:104CE00059EF26F05CEF26F012000AC00DF086EFB7
:104CF00026F00D50D96EDA6A08C006F009C007F038
:104D00003AEC29F0DF6E084A092A0D2A0B06D8A0D2
:104D10000C060B2806E10C28D8A491EF26F093EF9F
:104D200026F079EF26F01200106E5C0E066E020E71
:104D3000076E096A000E086E0B6A380E0A6EB2EC36
:104D400026F0020E0F64A7EF26F0A9EF26F0ABEFD6
:104D500026F0020E0F6E10C05CF20EC05DF20FC0A6
:104D600063F2120006C00CF007C00DF0C0EF26F091
:104D70000CC0D9FF0DC0DAFF08C0DFFF0C4A0D2AB6
:104D80000A06D8A00B060A2806E10B28D8A4CBEF08
:104D900026F0CDEF26F0B8EF26F01200086E9EA8A0
:104DA000D4EF26F0D6EF26F0CFEF26F00650D8A4A9
:104DB000DCEF26F0E0EF26F0076A072AE1EF26F0A5
:104DC000076AAC500718FE0B0718AC6E08C0ADFFA1
:104DD000120057C0C2F2C2C212F0940E106E020E40
:104DE000116E48EC23F00009D8A4F9EF26F0FCEF8F
:104DF00026F0010EFDEF26F0000E0201C36F010E3A
:104E00000001A96F576A120030C00EF031C00FF0D8
:104E1000420E106E010E116E4CEC18F0420E2E6E0A
:104E2000010E2F6E37EC27F00A0E0A6E420E0B6E43
:104E3000010E0C6E010EF3EC1CF0120058EC29F080
:104E400006C00BF007C00CF00B500C10D8B42BEFC1
:104E500027F02DEF27F036EF27F00BC006F00CC03F
:104E600007F0010E45EC21F05DEC29F012002E5008
:104E70002F10D8A43EEF27F040EF27F042EF27F0A5
:104E80004EEF27F02EC00AF02FC00BF058EC1FF0A9
:104E90002EC02AF02FC02BF0D3EC1EF01200BA0E59
:104EA000066E19EC20F00009D8B459EF27F05BEF3B
:104EB00027F065EF27F00C6A020E0B6EBA0E0D6E2E
:104EC0000F6A0C0E0E6E32EC26F0120000018B6B96
:104ED00089EC29F059EC25F04E6A4D6A00018A6B85
:104EE000CFEC27F006C068F007C069F008C06AF090
:104EF00009C06BF073EC0FF01200030E0001BB6FE2
:104F0000200EBA6F070EBD6F080EBC6FBF6B140E7C
:104F1000BE6FC16B3C0EC06FC36B000EC26FC56B22
:104F2000000EC46F120000018B51D8A49AEF27F035
:104F30009CEF27F0A0EF27F073EC0FF0A7EF27F01E
:104F40006EEC24F000018B6B000E96EC24F0120046
:104F50000001A951D8A4AFEF27F0B1EF27F0B7EFC8
:104F600027F0000E066E000E076EBBEF27F0940EC2
:104F7000066E020E076E1200166E140E0001A36F6D
:104F800016C0A2F0820E0E6E010E0F6E14C010F04D
:104F900015C011F0126A136AA4EC25F01200F29EFB
:104FA00074C00AF075C00BF076C00CF077C00DF03D
:104FB000F28E0AC006F00BC007F00CC008F00DC05E
:104FC00009F01200949C948EB886B892040EB06ECC
:104FD000E10EAF6EAC84AC98AB8EAC8AAC8CAB8C73
:104FE000AB96AB889D98120006500710D8A4FBEF33
:104FF00027F0FDEF27F000EF28F0000E05EF28F076
:1050000006C0C0F007C0C1F0010E12000650071024
:10501000D8A40DEF28F00FEF28F012EF28F0000EC3
:1050200017EF28F006C0BEF007C0BFF0010E120057
:1050300006500710D8A41FEF28F021EF28F024EF26
:1050400028F0000E29EF28F006C0BCF007C0BDF024
:10505000010E120006500710D8A431EF28F033EFEC
:1050600028F036EF28F0000E3BEF28F006C0BAF02B
:1050700007C0BBF0010E120006500001825D075010
:105080008359D8A046EF28F048EF28F04CEF28F0DD
:105090000650825F0750835B12000001A851D8B40C
:1050A00054EF28F056EF28F05CEF28F0A86BA76BC0
:1050B00066EC27F0010E566E120006500001825D6C
:1050C00007508359D8B067EF28F06AEF28F0010E37
:1050D0006BEF28F0000E1200D59ED59CD59AD5987E
:1050E000D586F80ED516D10ED76E200ED66EF29458
:1050F000F28AD58E1200066E06505418D8A483EF9B
:1051000028F085EF28F087EF28F089EF28F006C017
:1051100054F012000001C42908E1C529D8B493EF66
:1051200028F095EF28F097EF28F0C44BC52B12001C
:105130000001C22908E1C329D8B4A1EF28F0A3EFE8
:1051400028F0A5EF28F0C24BC32B1200585066EC94
:1051500029F05918D8B4AFEF28F0B2EF28F0010EBB
:10516000B3EF28F0000E1200000E116E080EB1EC25
:1051700010F0030E156EE80E146E000EBCEC27F056
:105180001200AD0E066E076A096A000E086E0B6A01
:105190000D0E0A6EB2EC26F012005A50525CD8A0E6
:1051A000D4EF28F0D7EF28F0010ED8EF28F0000E4A
:1051B000120058505918D8B4E0EF28F0E3EF28F067
:1051C000010EE4EF28F0000E1200AC9CAB9CAC8406
:1051D000B886B06A4D0EAF6EAB8EAC8AAB8812004B
:1051E000086E8A8408380F0B93EC20F008500F0BE0
:1051F00093EC20F01200086E8A9408380F0B93ECA1
:1052000020F008500F0B93EC20F01200CFEC27F0A9
:1052100006C070F007C071F008C072F009C073F0EA
:105220001200030E4F6E00018C6B4C6A000E4B6E29
:105230008069816912008A86040EE82EFED78A965C
:10524000C80EE82EFED71200310ECD6E9E906D0E68
:10525000CF6E840ECE6E12000001796B000E786F57
:105260007A6B546A12006EEC24F000018D6B506A68
:10527000516A120006C0A9FFA69EA69CA680A8504F
:105280001200000E066E000ECEEC26F01200040E88
:105290005B6E040EADEC1AF012000650000182277E
:1052A0000750832312000001836B000E826F1200EF
:1052B00082C006F083C007F012000001836B000E6D
:1052C000826F1200576A0001A96B1200066E062851
:1052D0000F0B12005DEC29F0556A12000001A96B5A
:1052E00012000001A951120041EC29F01200000146
:1052F000A2511200526A5A6A1200586A596A120080
:105300004FEC27F0120000018F5112000001905164
:10531000120056EC20F012004F501200526A120098
:0E53200056501200BA0E1200120012000401C4
:020000040030CA
:0E000000240E1F1EFF8181FF0FC00FE00F4076
:00000001FF
