:0400000007EF00F016
:0A00080001823FED17F0C5EF18F07C
:10080000003031323334353637383941424344458C
:1008100046000F010C0000001C0CFFFFFFFF080C3E
:10082000000000000C0F05140F000F0B0B0A0A0943
:100830000908089900080040066400AD0112001084
:100840000E6400A3020A0032000100B7030A00C8C8
:1008500000010020202020202020202020202020F7
:1008600020202020202020004675657261206465CC
:1008700020536572766963696F00496E736572749F
:1008800065206D6F6E6564617300446573706163AC
:1008900068616E646F2E2E2E0050726563696F2042
:1008A000313A005469656D706F20313A00507265BD
:1008B00063696F20323A005469656D706F20323A77
:1008C0000043616E63656C617200437265646974B4
:1008D0006F3A0047756172646172002A003E0044FD
:1008E00000490043004F00560041003F0045004DC5
:1008F000005200000CEF0AF0A46B000E116E080EFF
:10090000DBEC0EF0156A050E146E010E8FEC1FF075
:10091000C10E0E6E010E0F6E050E106E000E116EE2
:10092000000E126E000E136EBBEC1BF0096A0B0E6C
:10093000086E0B6A000E0A6E010EEFEC1AF0120040
:1009400053EC21F00009D8B42FD01AEC20F006C0E7
:1009500048F007C049F048C01DF049C01EF020EE25
:100960002EF04850D9264950DA22DF501F6E1CEC79
:100970001BF020EE2EF04850D9264950DA22DE0432
:10098000D8A40FD048C0D9FF49C0DAFFDF50D8A49F
:1009900008D056EC21F0156AC80E146E020E8FECCA
:1009A0001FF050EC21F01200C10E0E6E010E0F6E02
:1009B0004BEC18F00009D8B41200156AC80E146E7A
:1009C000000E8FEC1FF01200000E116E0B0EDBEC10
:1009D0000EF0B80E0E6E010E0F6E050E106E000EAC
:1009E000116E000E126E000E136EBBEC1BF0156A3A
:1009F000050E146E030E8FEC1FF0120053EC21F065
:100A00000009D8B446D01AEC20F006C048F007C060
:100A100049F035EC20F048C01DF049C01EF020EE32
:100A20002EF04850D9264950DA22DF501F6E1CECB8
:100A30001BF020EE2EF04850D9264950DA22DE0471
:100A4000D8A410D048C0D9FF49C0DAFFDF50D8A4DD
:100A500009D056EC21F0156AC80E146E040E8FEC06
:100A60001FF09FD720EE2EF04850D9264950DA22A9
:100A7000DFB097D756EC21F0156AC80E146E040E3D
:100A80008FEC1FF0156AC80E146E020E8FEC1FF06B
:100A900088D7B80E0E6E010E0F6E4BEC18F00009E1
:100AA000D8B41200156AC80E146E020E8FEC1FF037
:100AB0001200000E116E090EDBEC0EF0156A3C0EF2
:100AC000146E050E8FEC1FF0AF0E0E6E010E0F6E42
:100AD000280E106E000E116E000E126E000E136EB8
:100AE000BBEC1BF0120053EC21F00009D8B4CED0BF
:100AF0001AEC20F006C048F007C049F048C01DF0CD
:100B000049C01EF020EE2EF04850D9264950DA2276
:100B1000DF501F6E1CEC1BF020EE2EF04850D92643
:100B20004950DA22180EDE18D8A4A9D048C010F017
:100B300049C011F020EE2EF04850D9264950DA2253
:100B4000DF50126E04EC1CF00009D8B498D056ECBB
:100B500021F048C0D9FF49C0DAFFDF500101006F22
:100B600020EE02F04850D9264950DA22DF50376E85
:100B700020EE01F04850D9264950DA22DF50386E75
:100B80003750016F38C002F120EE03F04850D926EB
:100B90004950DA22DF50036F20EE04F04850D92686
:100BA0004950DA22DF50046F20EE06F04850D92673
:100BB0004950DA22DF50376E20EE05F04850D92632
:100BC0004950DA22DF50386E37503C6E38C03DF065
:100BD000476A0F0E476401D018D0050E4724D96E1E
:100BE000DA6A010EDA2247C037F03CC038F03DC067
:100BF00039F0372A03D0D89039323832372EFBD724
:100C00003850010BDF6E472AE4D75A50F80F010124
:100C1000256F100E256502D0100E256F476A15D07E
:100C200047504824376E000E4920386E070E37248F
:100C3000D96E000E3820DA6E150E4724E16EE26A96
:100C4000010EE222DFCFE7FF472A2551475CD8A0FB
:100C5000E7D725C147F00F0E476401D009D0150E24
:100C60004724D96EDA6A010EDA22DF6A472AF3D7FF
:100C7000156AC80E146E060E8FEC1FF092D6156A18
:100C8000C80E146E040E8FEC1FF08BD6AF0E0E6ED6
:100C9000010E0F6E4BEC18F00009D8B4120048C0DA
:100CA0001DF049C01EF020EE2EF04850D9264950C4
:100CB000DA22DF501F6E1CEC1BF0156AC80E146E92
:100CC000040E8FEC1FF01200020E010100651AD015
:100CD000156A640E146E070E8FEC1FF0000E116E75
:100CE0000F0EDBEC0EF0A60E0E6E010E0F6E460E12
:100CF000106E000E116E000E126E000E136EBBEC25
:100D00001BF01200156AC80E146E0A0E8FEC1FF04D
:100D1000120053EC21F00009D8B448D01AEC20F0AE
:100D200006C048F007C049F048C01DF049C01EF099
:100D300020EE2EF04850D9264950DA22DF501F6E9F
:100D40001CEC1BF020EE2EF04850D9264950DA2238
:100D5000220EDE18D8A425D6446A48C0D9FF49C05F
:100D6000DAFF430EDE18D8A416D020EE01F048506A
:100D7000D9264950DA22410EDE18D8A40CD020EE34
:100D800002F04850D9264950DA22490EDE18D8A47C
:100D900002D0010E446E44C0A5F056EC21F0156A55
:100DA000C80E146E080E8FEC1FF0FBD5A60E0E6E4B
:100DB000010E0F6E4BEC18F00009D8B41200156A42
:100DC000C80E146E060E8FEC1FF01200030E010108
:100DD0000019D8A41AD0156A050E146E090E8FECEE
:100DE0001FF0010E116E0F0EDBEC0EF09D0E0E6E5D
:100DF000010E0F6E050E106E000E116E000E126EBB
:100E0000000E136EBBEC1BF01200156AC80E146EB8
:100E10000A0E8FEC1FF0120053EC21F00009D8B439
:100E20002BD01AEC20F006C048F007C049F020EEA5
:100E30002EF04850D9264950DA22DE04D8A4B1D584
:100E400048C0D9FF49C0DAFFDF50D8A4AAD5156A37
:100E5000C80E146E0A0E8FEC1FF048C01DF049C07A
:100E60001EF020EE2EF04850D9264950DA22DF50ED
:100E70001F6E1CEC1BF095D59D0E0E6E010E0F6EB5
:100E80004BEC18F00009D8B41200156AC80E146EA5
:100E9000080E8FEC1FF01200000E116E0A0EDBEC34
:100EA0000EF0156A320E146E0B0E8FEC1FF0940EBE
:100EB0000E6E010E0F6E460E106E000E116E000EBD
:100EC000126E000E136EBBEC1BF0120048C01DF03A
:100ED00049C01EF020EE2EF04850D9264950DA22A3
:100EE000DF501F6E1CEC1BF053EC21F00009D8B44E
:100EF0007BD01AEC20F006C048F007C049F048C08B
:100F00001DF049C01EF020EE2EF04850D926495061
:100F1000DA22DF501F6E1CEC1BF048C010F049C0F5
:100F200011F020EE2EF04850D9264950DA22DF5039
:100F3000126E04EC1CF00009D8B44FD056EC21F02E
:100F400020EE01F04850D9264950DA22DF50376EA2
:100F500048C0D9FF49C0DAFFDF50386E3750010171
:100F6000266F38C027F120EE2EF04850D926495080
:100F7000DA22DF50FD0F386F456A15D045504824FE
:100F8000376E000E4920386E020E3724D96E000EDF
:100F90003820DA6E280E4524E16EE26A010EE22264
:100FA000DFCFE7FF452A2551455CD8A0E7D725C10B
:100FB00046F00F0E466401D009D0280E4624D96EA3
:100FC000DA6A010EDA22DF6A462AF3D7156AC80EFA
:100FD000146E0C0E8FEC1FF0E4D4156AC80E146E5C
:100FE0000A0E8FEC1FF0DDD4940E0E6E010E0F6E04
:100FF0004BEC18F00009D8B41200156AC80E146E34
:101000000A0E8FEC1FF01200156A0F0E146E0D0EF3
:101010008FEC1FF0010E116E0C0EDBEC0EF0E10EEA
:101020000E6E0F6A0F0E106E000E116E000E126E15
:10103000000E136EBBEC1BF0120053EC21F0000904
:10104000D8B438D01AEC20F006C048F007C049F0F8
:1010500048C01DF049C01EF020EE2EF04850D926A1
:101060004950DA22DF501F6E1CEC1BF020EE2EF0F0
:101070004850D9264950DA22DE04D8A492D448C078
:10108000D9FF49C0DAFFDF50D8A48BD456EC21F049
:101090000001A46B156AC80E146E100E8FEC1FF0C1
:1010A000096A0C0E086E0B6A000E0A6E010EEFEC58
:1010B0001AF077D4E10E0E6E0F6A4BEC18F00009AF
:1010C000D8B41200156AC80E146E0C0E8FEC1FF007
:1010D0001200156A050E146E0F0E8FEC1FF0000E35
:1010E000116E0C0EDBEC0EF0E10E0E6E0F6A050EAB
:1010F000106E000E116E000E126E000E136EBBEC21
:101100001BF0120053EC21F00009D8B42DD01AECDA
:1011100020F006C048F007C049F048C01DF049C0A3
:101120001EF020EE2EF04850D9264950DA22DF502A
:101130001F6E1CEC1BF020EE2EF04850D9264950B3
:10114000DA22DE04D8A42DD448C0D9FF49C0DAFF82
:10115000DF50D8A426D456EC21F0156AC80E146EC0
:10116000100E8FEC1FF01DD4E10E0E6E0F6A4BECCB
:1011700018F00009D8B41200156AC80E146E0C0ECF
:101180008FEC1FF01200000E116E0B0EDBEC0EF058
:10119000156A0A0E146E110E8FEC1FF08B0E0E6E78
:1011A000010E0F6E0A0E106E000E116E000E126E02
:1011B000000E136EBBEC1BF0120053EC21F0000983
:1011C000D8B4F6D01AEC20F006C048F007C049F0B9
:1011D00035EC20F048C007F049C008F020EE2EF0B2
:1011E0004850D9264950DA22DF50096EC3EC11F07D
:1011F000426ECCD000017D51D8B419D07B517C1106
:10120000D8B415D07BC010F07CC011F0E0EC1BF01E
:1012100000017C6B000E7B6F7BC07DF0010E156EB4
:10122000F40E146E100E8FEC1FF0D1EF04F0156A5F
:10123000C80E146E100E8FEC1FF0D1EF04F020EEEC
:1012400002F04850D9264950DA22DF50376E386A0A
:1012500048C0D9FF49C0DAFFDF50396E3A6A20EE44
:1012600001F04850D9264950DA22DF503B6E3B50FE
:101270003926000E3A22FF0E3916000E3A16375064
:1012800039182DE138503A18D8A429D056EC21F05D
:1012900048C0D9FF49C0DAFFDF500F0B436E150E6F
:1012A0004324D96EDA6A010EDA22DF50376E3750E6
:1012B00001010303F3CF3EF0F4CF3FF0096A0D0EB6
:1012C000086E3EC00AF03FC00BF0010EEFEC1AF0C2
:1012D000156AC80E146E100E8FEC1FF008D056EC75
:1012E00021F0156AC80E146E100E8FEC1FF048C066
:1012F0001DF049C01EF020EE2EF04850D92649506E
:10130000DA22DF501F6E1CEC1BF0D1EF04F056EC1C
:1013100021F00001AD51D8B413D03AEC21F006C051
:1013200040F007C041F040C006F041C007F0010E98
:1013300096EC1BF0156AC80E146E100E8FEC1FF0A1
:101340000001B151D8B408D056EC21F0156AC80E8E
:10135000146E000E8FEC1FF035EC20F0156AC80EED
:10136000146E100E8FEC1FF0D1EF04F048C01DF08A
:1013700049C01EF020EE2EF04850D9264950DA22FE
:10138000DF501F6E1CEC1BF0D1EF04F04250376EA3
:10139000386A3850000AD8A4E9D73750000AD8B4C0
:1013A00029D70D0AD8B44BD7020AD8B4B0D7DED7A4
:1013B0008B0E0E6E010E0F6E4BEC18F00009D8B4B8
:1013C0001200156AC80E146E100E8FEC1FF012007A
:1013D0007D51D8B40DD07C5104E1020E7B5DD8A0C4
:1013E00007D07D6B7BC010F07CC011F0E0EC1BF0EF
:1013F000010E156EF40E146E100E8FEC1FF012001D
:10140000820E0E6E010E0F6E4BEC18F00009D8B470
:101410001200A2C0A3F012000001A351376E386A77
:101420003850000AD8A412003750000AD8B47CEF14
:1014300004F0010AD8B4A0EF04F0030AD8B4E4EF32
:1014400004F0010AD8B4FEEF04F0070AD8B459EF4B
:1014500005F0010AD8B473EF05F0030AD8B434D408
:10146000010AD8B456D40F0AD8B4B0D4010AD8B4FB
:10147000D3D4030AD8B410D5010AD8B427D5070AA3
:10148000D8B4C2D5010AD8B4D8D5030AD8B421D665
:10149000010AD8B437D61F0AD8B475D6010AD8B411
:1014A0008CD6030AD8B494D7010AD8B41200070A1C
:1014B000D8A41200A5D780A002D0010E01D0000E42
:1014C000206E80A202D0010E01D0000E216E80A4F9
:1014D00002D0010E01D0000E226E83A002D0010EB8
:1014E00001D0000E256E83A202D0010E01D0000EA5
:1014F000236E83A402D0010E01D0000E246E0001E1
:101500009551D8A418D09B51D8B415D02050D8A448
:1015100012D0010E956F010EA16F790E0E6E010EA5
:101520000F6E1E0E106E000E116E000E126E000E6B
:10153000136EBBEC1BF000019551D8B40BD0790EA3
:101540000E6E010E0F6E4BEC18F00009D8B402D0ED
:101550000001956B00019451D8A418D09A51D8B4C9
:1015600015D02150D8A412D0010E946F010EA06F97
:10157000700E0E6E010E0F6E1E0E106E000E116EAE
:10158000000E126E000E136EBBEC1BF000019451A6
:10159000D8B40BD0700E0E6E010E0F6E4BEC18F01F
:1015A0000009D8B402D00001946B00019351D8A473
:1015B00018D09951D8B415D02250D8A412D0010E09
:1015C000936F010E9F6F670E0E6E010E0F6E1E0E53
:1015D000106E000E116E000E126E000E136EBBEC3C
:1015E0001BF000019351D8B40BD0670E0E6E010EA4
:1015F0000F6E4BEC18F00009D8B402D00001936BC9
:101600005350D8A425D000019851D8B421D02550EA
:10161000D8A41ED0010E536E010EA76FA2EC1FF0CE
:1016200006C06CF007C06DF008C06EF009C06FF026
:1016300000018E6B5E0E0E6E010E0F6E1E0E106E92
:10164000000E116E000E126E000E136EBBEC1BF03E
:101650005350D8B424D02550D8A421D000018E51A5
:10166000D8A41DD0A2EC1FF000016C51065C1C6ECA
:101670006D5107581D6E6E5108581E6E6F510958F6
:101680001F6E1F501E1006E1B80E1C5C0B0E1D587D
:10169000D8A005D0010EA86FA76B010E8E6F535016
:1016A000D8B40FD02550D8B40CD05E0E0E6E010EFB
:1016B0000F6E4BEC18F00009D8B403D0536A000148
:1016C000A86B00019251D8A418D09751D8B415D066
:1016D0002350D8A412D0010E926F010E9D6F550EAB
:1016E0000E6E010E0F6E1E0E106E000E116E000EAD
:1016F000126E000E136EBBEC1BF000019251D8B4B9
:101700000BD0550E0E6E010E0F6E4BEC18F000094B
:10171000D8B402D00001926B00019151D8A418D026
:101720009651D8B415D02450D8A412D0010E916F80
:10173000010E9C6F4C0E0E6E010E0F6E1E0E106E83
:10174000000E116E000E126E000E136EBBEC1BF03D
:1017500000019151D8B40BD04C0E0E6E010E0F6EDD
:101760004BEC18F00009D8B402D00001916B20C0F6
:101770009BF021C09AF022C099F025C098F023C0B8
:1017800097F024C096F02350D8A402D0010E01D0C7
:10179000000E0001906F2450D8A402D0010E01D099
:1017A000000E8F6F1200A2EC1FF000016851065C62
:1017B000226E69510758236E6A510858246E6B5186
:1017C0000958256E2550241006E12C0E225C010ECE
:1017D0002358D8A012D0A2EC1FF006C068F007C0B2
:1017E00069F008C06AF009C06BF000018A51D8A402
:1017F00002D0010E01D0000E8A6FA751D8B416D0C6
:10180000A76BD76BCE6B040E4E6008D04D50D8A49A
:1018100002D0010E01D0000E4D6E08D0040E4E18FD
:10182000D8B46EEC1CF0010E00018B6F2A6A9C513B
:10183000D8B405D09C6B010E2A6ED76B0BD0CF0E9F
:101840000E6E65EC21F0BBEC0FF00009D8B402D0AD
:10185000010E2A6E2A50D8B455D04D50D8B44BD072
:10186000040E4E6048D04E50080DF350330F2C6ECE
:101870004E50020DF350600FD96EDA6ADECF22F0BF
:10188000DDCF23F02CC024F0060E242624C0F6FF62
:10189000080EF76E22500900F524256E235009002A
:1018A000F520266E2CC027F0040E272627C0F6FF51
:1018B000080EF76E25500900F55C26500900F55812
:1018C000D8A020D02CC022F0060E222622C0F6FF7F
:1018D000080EF76E0900F5CF23F00900F5CF24F0CC
:1018E0004E50020DF350600FD96EDA6A2350DE2697
:1018F0002450DD2207D04E50D8B404D04E0600014B
:10190000D76BCE6B2B6A00019D51D8B405D09D6B6F
:10191000010E2B6ECE6B0BD0C60E0E6E68EC21F056
:10192000BBEC0FF00009D8B402D0010E2B6E2B5087
:10193000D8B412004D50D8B44BD0040E4E6048D0ED
:101940004E50080DF350330F2D6E2DC022F0060EB1
:10195000222622C0F6FF080EF76E0900F5CF23F00D
:101960000900F5CF24F02DC025F0020E252625C054
:10197000F6FF080EF76E23500900F524266E24505A
:101980000900F520276E4E50020DF350600FD96EFE
:10199000DA6A2650DE5C2750DE58D8A012002DC02F
:1019A00022F0060E222622C0F6FF080EF76E09006E
:1019B000F5CF23F00900F5CF24F04E50020DF3507F
:1019C000600FD96EDA6A2350DE5E2450DD5A1200B1
:1019D000050E4E6012004E2A0001D76BCE6B12002E
:1019E000010E0101ED6F030E4E6004D0E96B000E95
:1019F000E86F06D0FE0E4E24E86FE96BFF0EE92378
:101A0000E8C1ECF1ECC1EEF1DAD0EE514E18D8B4E9
:101A100002D0660E01D0DD0EEA6F010E0A6EEAC139
:101A20000BF00B50D8A4080E0C6EED5166EC16F0BE
:101A3000040E0101EE61A5D0D30E0A6E010E0B6EED
:101A4000EE51080DF350330F306E30C0F6FF080E24
:101A5000F76E0800F5CF0CF0EE51080DF350330F80
:101A6000316E31C0F6FF080EF76E0900F5CF06F0B3
:101A7000080E076E16EC1DF0FF0E06240D6EFF0E0D
:101A800007200E6E06EC1AF00101EE51080DF3501E
:101A9000330F306E30C0F6FF080EF76E0900F5CF39
:101AA00006F0080E076E16EC1DF0FF0E0624316ED0
:101AB000FF0E0720326ED30E3124D96E010E322074
:101AC000DA6EDF6A020E0A6ED30E0B6E010E0C6E1A
:101AD0000101ED5166EC16F04D50D8B41AD0010159
:101AE000EE514E18D8A415D000018A51D8A402D0C6
:101AF000DB0E01D0660E0101EB6F0D0E0A6EEBC11D
:101B00000BF00B50D8A4080E0C6EED5166EC16F0DD
:101B10000CD00D0E0A6E660E0B6E0B50D8A4080E7C
:101B20000C6E0101ED5166EC16F00101EE51020D53
:101B3000F350600FD96EDA6ADECF0DF0DDCF0EF014
:101B4000D30E0F6E010E106E7EEC15F0D30E2E6EBE
:101B5000010E2F6EEBEC1FF0D30E0A6E010E0B6E12
:101B6000040E0C6E200E0D6EF7EC16F00F0E0A6EC2
:101B7000D30E0B6E010E0C6E0101ED5166EC16F0EA
:101B80001BD0040EEE19D8A40CD0020E0A6ED30E90
:101B90000B6E0B50D8A4080E0C6EED5166EC16F0CF
:101BA0000BD0020E0A6EC10E0B6E0B50D8A4080E9D
:101BB0000C6EED5166EC16F00101ED2BEE2BEC51A5
:101BC000306E316A040E3026000E3122EE51326E34
:101BD000336A3050325C3350800A346E3150800AA0
:101BE0003458D8B01200050EEE650FD712000F0E54
:101BF000C16E070EB46E28EC1CF0FCEC1FF0EEEC8E
:101C000020F0800E066E250E076E000E086E000E88
:101C1000096E88EC20F0B5EC1FF070EC21F00001AB
:101C2000F56B100E4A6E940EE82EFED74A2EFCD7A6
:101C300000D00001F52BF529D8A4F3D76AEC19F0F0
:101C400015EC21F00001F66B100E4A6E940EE82E92
:101C5000FED74A2EFCD700D00001F62BF629D8A4D7
:101C6000F3D733EC19F029EC21F077EC21F044ECB8
:101C700021F028EC20F04CEC21F00EEC21F035ECBA
:101C800021F0AFEC16F0BFEC20F05FEC21F000018A
:101C9000F76B100E4A6E940EE82EFED74A2EFCD734
:101CA00000D00001F72BF729D8A4F3D7D08EF18408
:101CB0009F90F294F28A9E909D80F28CF28E1CECA2
:101CC00016F07AEC04F091EC1CF045EC12F0D5EC37
:101CD0001DF05BEC0AF0B4EC20F062EC1EF02AEC94
:101CE00015F0D10E0001885D070E8959D8A0E7D7FD
:101CF000896B000E886F59EC21F00001F46FF4C07D
:101D00000EF00F6AEA0E106E116A12EC14F0EA0E71
:101D10002E6E2F6AEBEC1FF0010E0A6EEA0E0B6EB0
:101D20000C6A040E66EC16F0040E0A6E78EC1DF0D8
:101D30004A6E4AC00BF00B50D8A4080E0C6E040E6D
:101D400066EC16F0060E0A6E0FEC1EF04A6E4AC0E4
:101D50000BF00B50D8A4080E0C6E040E66EC16F0B7
:101D6000080E0A6E3AEC1FF04A6E4AC00BF00B5098
:101D7000D8A4080E0C6E040E66EC16F00A0E0A6E5D
:101D800058EC1DF04A6E4AC00BF00B50D8A4080E58
:101D90000C6E040E66EC16F00C0E0A6EB3EC1CF022
:101DA0004A6E4AC00BF00B50D8A4080E0C6E040EFD
:101DB00066EC16F084D7366EB3D0310EF66E080E90
:101DC000F76E0900F5CF2BF00A00F5CF2CF02B0EA3
:101DD000096E020E0A6E47EC1EF0B5D02F0EF66E9D
:101DE000080EF76E0900F5CF2DF00A00F5CF2EF0A2
:101DF0002D0E096E020E0A6E47EC1EF0A4D02D0EB9
:101E0000F66E080EF76E0900F5CF2FF00A00F5CF39
:101E100030F02F0E096E020E0A6E47EC1EF093D0C2
:101E20002B0EF66E080EF76E0900F5CF31F00A00A2
:101E3000F5CF32F0310E096E020E0A6E47EC1EF03D
:101E400082D01150D8A413D01F0EF66E080EF76E74
:101E500020EE19F0050E0900F5CFDEFFE806FBE2E3
:101E6000190E096E060E0A6E47EC1EF06CD0190EA4
:101E7000F66E080EF76E20EE1FF0050E0900F5CF86
:101E8000DEFFE806FBE21F0E096E060E0A6E47EC47
:101E90001EF059D0280EF66E080EF76E0900F5CF29
:101EA00025F00900F5CF26F00A00F5CF27F0250E22
:101EB000096E030E0A6E47EC1EF045D0120EF66E48
:101EC000080EF76E20EE12F0060E0900F5CFDEFFC9
:101ED000E806FBE2120E096E070E0A6E47EC1EF0D2
:101EE00032D0250EF66E080EF76E0900F5CF28F0F9
:101EF0000900F5CF29F00A00F5CF2AF0280E096E67
:101F0000030E0A6E47EC1EF01ED01150000AD8B422
:101F1000C1D7010AD8B4D2D7040AD8B4E2D713D0B3
:101F20003650080AD8B449D7010AD8B457D7030A9B
:101F3000D8B465D7010AD8B473D7070AD8B481D703
:101F4000030AD8B4E2D70C0E3618D8B407D00F0E57
:101F50003618D8B403D0356A010E02D0356A020EA5
:101F6000346E34C033F011C00EF033C00FF0365071
:101F700097EC1EF012001B6EA2EC1FF006C01EF0C4
:101F800007C01FF008C020F009C021F01B50D8A4E2
:101F900008D00E50D96EDA6A080ED926DF6A000E14
:101FA00012000E50D96EDA6A080ED926DF50D8A476
:101FB00020D00E50D96EDA6A080ED926010EDF6ED7
:101FC0000E50D96EDA6A1EC0DEFF1FC0DEFF20C0D1
:101FD000DEFF21C0DEFF0E50D96EDA6A040ED9266C
:101FE0001EC0DEFF1FC0DEFF20C0DEFF21C0DEFFFF
:101FF000D6D70E50D96EDA6ADECF0FF0DECF10F0F2
:10200000DECF11F0DECF12F00F501E5C136E1050B9
:102010001F58146E11502058156E12502158166E0C
:102020001650151006E1F40E135C010E1458D8A0DA
:10203000B6D70E50D96EDA6ADECF0FF0DECF10F0D1
:10204000DECF11F0DECF12F00F501E5C136E105079
:102050001F58146E11502058156E12502158166ECC
:102060001650151009E1D10E135C070E1458D8B0A4
:1020700003D01D6AC80E02D01D6A500E1C6E1CC013
:1020800017F01DC018F0000E18BEFF0E196E1A6E64
:102090000E50D96EDA6A040ED926DECF0FF0DECFED
:1020A00010F0DECF11F0DECF12F00F501E5C136E79
:1020B00010501F58146E11502058156E1250215890
:1020C000166E1750135C18501458195015581A50A2
:1020D0001658D8A064D70E50D96EDA6A040ED926E5
:1020E0001EC0DEFF1FC0DEFF20C0DEFF21C0DEFFFE
:1020F000010E12008DD0010E3CEC13F01200060E02
:102100003CEC13F0116A000E106E080EAAEC13F0EE
:1021100012003B50D96EDA6A030ED926DECF10F0DA
:10212000DDCF11F0030EAAEC13F0010E4BEC1CF006
:1021300012003B50D96EDA6A030ED926DECF06F0C4
:10214000DDCF07F0010E96EC1BF012003B50D96E6C
:10215000DA6A010ED926DECF3CF0DDCF3DF03D50EE
:10216000000AD8A412003C50010AD8B4E2D70A0AE7
:10217000D8B4C5D7070AD8B4BED7010AD8A412006C
:10218000C8D7020E3CEC13F01200020ECEEC15F094
:102190001200030E3CEC13F0000E4BEC1CF012008E
:1021A0003B50D96EDA6A010ED926DECF3CF0DDCF86
:1021B0003DF03D50000AD8A412003C50000AD8B4AB
:1021C000E8D7010AD8B4DDD7030AD8A41200DDD7B6
:1021D000050E3CEC13F01200116A000E106E080E92
:1021E000AAEC13F012003B50D96EDA6A010ED92620
:1021F000DECF3CF0DDCF3DF03D50000AD8A4120008
:102200003C50040AD8B4E4D7010AD8A41200E4D799
:102210003B50D96EDA6ADF503C6E3D6A3D50000A91
:10222000D8A412003C50010AD8B490D7030AD8B4FD
:10223000B7D7010AD8B4D7D7070AD8B41200010A11
:102240001200000E276E000E286E000E296E000E82
:10225000246E000E256E000E266E0CC024F00DC0FC
:1022600025F00AC027F00BC028F0FF0E2714106ECF
:10227000FF0E2814116E7F0E2914126EFF0E241407
:10228000136EFF0E2514146E7F0E2614156E10505B
:10229000135C1150145812501558D8B05CD0FF0E72
:1022A0002414106EFF0E2514116E7F0E2614126E6C
:1022B0001050136E1150146E1250156E166A0E5097
:1022C0001324176E0F501420186E000E1520196E6F
:1022D000000E16201A6EFF0E27141B6EFF0E281418
:1022E0001C6E7F0E29141D6E1B501E6E1C501F6E1F
:1022F0001D50206E216A17501E5C18501F5819502F
:1023000020582150800A226E1A50800A2258D8B0D4
:1023100022D00E5024260F5025220E5027260F5073
:1023200028222406D8A0250624C0D9FF25C0DAFF1C
:10233000DF50236E2706D8A0280627C0D9FF28C063
:10234000DAFF23C0DFFF0E06D8A00F060E500F10D5
:10235000D8B41200E6D70E500F10D8B4120024C023
:10236000D9FF25C0DAFFDF50236E244A252A27C073
:10237000D9FF28C0DAFF23C0DFFF274A282A0E062C
:10238000D8A00F06E8D70904D8A409D007C0D9FF00
:1023900008C0DAFFDF50D8A402D0000E1200030EEE
:1023A0000918D8A434D007C0D9FF08C0DAFFDF501D
:1023B000C00B400AD8A42BD020EE02F00750D9263B
:1023C0000850DA22DF500A6E0B6A07C0D9FF08C036
:1023D000DAFFDF500C6E0D6A20EE01F00750D926AF
:1023E0000850DA22DF500E6E0E500C26000E0D2221
:1023F000FF0E0C16000E0D160A500C1806E10B50BD
:102400000D18D8A402D00D0E12000E0E120009B045
:1024100021D007C0D9FF08C0DAFFDF50C00B400A47
:10242000D8B418D00F6A1AD00F5007240A6E000EC5
:1024300008200B6E010E0A24D96E000E0B20DA6EF6
:102440000F500724E16E000E0820E26EDE50E61801
:10245000D8B402D0100E1200020E0F2609500F5CE5
:10246000D8A0E2D70F6A0BD00F500724D96E000E08
:102470000820DA6EDF5079EC14F0020E0F260950B6
:102480000F5CD8A0F1D70F0E12006CD000019F6B2B
:10249000A06BA16B120074EC21F01E6E0001A15123
:1024A000D8B412D01E50D96EDA6ADECF06F0DDCF76
:1024B00007F07DEC20F00009D8B406D00001A16B34
:1024C000010ED4EC14F012000001A051D8B414D0C5
:1024D0001E50D96EDA6A020ED926DECF06F0DDCFA5
:1024E00007F07DEC20F00009D8B406D00001A06B05
:1024F000020ED4EC14F0120000019F51D8B4120067
:102500009F6B096A050E086E3AEC21F006C00AF0CE
:1025100007C00BF0030EEFEC1AF0000E06EC21F0F2
:102520001200D80E0E6E0F6A4BEC18F00009D8B4EA
:102530001200000178517911D8B411D07807D8A0D1
:102540007907D80E0E6E0F6AE80E106E030E116E2C
:10255000000E126E000E136EBBEC1BF012000EECA0
:102560001FF0120054501C6E1D6A1D50000AD8A4A2
:1025700012001C50000AD8B489D7010AD8B48BD7EE
:10258000030AD8B4CED7010A120000018C514F18AB
:10259000D8A4B7EC1DF000018C514F18D8A451D02D
:1025A0004B5080194EE14C508119D8B4120049D0DB
:1025B000010E0A6E7A0E0B6E0B50D8A4080E0C6E2C
:1025C000010E66EC16F051D0010E0A6ECA0E0B6EAB
:1025D0000B50D8A4080E0C6E010E66EC16F04BC022
:1025E0000EF04CC00FF0420E106E010E116E12EC88
:1025F00014F0420E2E6E010E2F6EEBEC1FF00A0E41
:102600000A6E420E0B6E010E0C6E010E66EC16F099
:102610002CD0010E0A6E8A0E0B6E0B50D8A4080E39
:102620000C6E010E66EC16F020D0010E0A6E680EDC
:102630000B6E0B50D8A4080E0C6E010E66EC16F053
:1026400014D04F50306E316A3150000AD8A40DD0EA
:102650003050000AD8B4ACD7010AD8B4B5D7030AB1
:10266000D8B4D7D7010AD8B4E0D74FC08CF04BC04C
:1026700080F04CC081F012003A6E57D03A04D8A4D2
:102680001200010E95EC1AF01200020E95EC1AF0F1
:102690001200040E95EC1AF012003A50386E396AA6
:1026A0003950000AD8A412003850020AD8B4EDD725
:1026B000040AD8A41200EDD7030E95EC1AF012000C
:1026C000010E95EC1AF01200040E95EC1AF01200AF
:1026D0003A50386E396A3950000AD8A4120038507E
:1026E000030AD8B4EDD7070AD8B4E6D7020AD8A4AB
:1026F0001200EAD7010E95EC1AF01200040E95ECC8
:102700001AF012003A50386E396A3950000AD8A4CB
:1027100012003850050AD8B4EDD7030AD8A4120025
:10272000EDD7040E95EC1AF012005B50386E396A42
:102730003950000AD8A4F5D73850010AD8B4ADD71B
:10274000030AD8B4C5D7010AD8B4DCD7070AD8B46D
:1027500095D7E7D7146E57D0030E1418D8A41200DB
:1027600010501110D8B4120010C006F011C007F0BC
:102770002FEC21F0A9EC20F0010EC2EC1AF01200AF
:1027800010501110D8B4120010C006F011C007F09C
:102790002FEC21F0A9EC20F0096A020E086E3AEC49
:1027A00021F006C00AF007C00BF0020EEFEC1AF0A1
:1027B000120010C006F011C007F041EC20F07BECD5
:1027C0001FF0000EC2EC1AF012007BEC1FF0000E9E
:1027D000C2EC1AF012001450126E136A1350000A61
:1027E000D8A412001250030AD8B4CAD7070AD8B422
:1027F000E0D7010AD8B4DDD7020AD8B4E6D70F0A69
:10280000D8A41200E2D75550126E136A1350000A72
:10281000D8A412001250000AD8B49ED7010AD8A436
:102820001200D9D71B6A1A6A196A0E500F10D8A461
:102830000ED010C0D9FF11C0DAFF300EDF6E20EECF
:1028400001F01050D9261150DA22DF6A12000FAEC3
:1028500025D0010E196E0E6C0F1ED8B00F2A1ED097
:102860001B50120FD96EDA6A0EC006F00FC007F0C7
:10287000096A0A0E086EFCEC18F00650300FDF6E85
:102880001B2A0EC006F00FC007F0096A0A0E086E78
:102890000BEC18F006C00EF007C00FF00FBE05D00D
:1028A0000F50DEE10E04D8B0DBD71950D8B416D0E3
:1028B0001B50120FD96EDA6A2D0EDF6E1B2A0ED056
:1028C0001B061B50120FD96EDA6A1A501024E16EE3
:1028D000000E1120E26EDFCFE7FF1A2A1B50D8A4AA
:1028E000EFD71A501024D96E000E1120DA6EDF6A6D
:1028F0001200066E30D0010E0001AD6F1200010E05
:102900000001B06F1200010E0001AF6F1200010E46
:102910000001B16F1200010E0001B26F1200010E32
:102920000001B76F1200010E0001B46F1200010E1A
:102930000001B86F1200010E0001B66F1200010E07
:102940000001B36F1200010E0001B56F1200010EFD
:102950000001B96F12000650010AD8B4CCD7030A9F
:10296000D8B4CDD7010AD8B4CED7070AD8B4D3D7B4
:10297000010AD8B4E4D7030AD8B4D1D7010AD8B42D
:10298000D2D70F0AD8B4D3D7010AD8B4DCD7030AF8
:10299000D8B4B5D7010AD8B4BAD7070AD8B4CBD7B8
:1029A000010AD8A41200D3D7176E74EC21F0186E68
:1029B00032D01850D96EDA6A040ED926DECF78F0FC
:1029C000DDCF79F0010E00017A6F1850D96EDA6A06
:1029D000DECF10F0DDCF11F0040EAAEC13F08A80E8
:1029E00028D01850D96EDA6A060ED926DECF78F0D4
:1029F000DDCF79F0020E00017A6F1850D96EDA6AD5
:102A0000020ED926DECF10F0DDCF11F0050EAAECB4
:102A100013F08A820ED01750156E166A1650000AEF
:102A2000D8A407D01550010AD8B4C3D7030AD8B424
:102A3000D8D7D80E0E6E0F6AE80E106E030E116E08
:102A4000000E126E000E136EBBEC1BF0020E06ECB5
:102A500021F012000001F851D8B412003DD05150BD
:102A6000D8A403D05050800F0FD05104D8A403D065
:102A70005050C00F09D0020E5118D8A403D05050A6
:102A8000940F02D05050D40F0B6E0B509EEC20F0E0
:102A9000020E00018D6F12005150140D000EF32430
:102AA000096E030EF4200A6E50500924D96E000EF0
:102AB0000A20DA6EDF5093EC20F0502A130E506497
:102AC00002D0506A512A030E516403D0516A0001AA
:102AD000F86B00018D6B12008D51096E0A6A0A5065
:102AE000000AD8A412000950000AD8B4B8D7010AC5
:102AF000D8B41200030AD8A41200CED7176A166AF7
:102B00000D500E10D8A42CD00FC0D9FF10C0DAFF82
:102B1000300EDF6E20EE01F00F50D9261050DA2271
:102B2000DF6A12001750110FD96EDA6A0DC006F075
:102B30000EC007F0096A0A0E086EF5EC1CF006508C
:102B4000300FDF6E172A0DC006F00EC007F0096ABD
:102B50000A0E086E48EC1BF006C00DF007C00EF020
:102B60000D500E10D8B40FD0DDD717061750110F27
:102B7000D96EDA6A16500F24E16E000E1020E26E54
:102B8000DFCFE7FF162A1750D8A4EFD716500F242F
:102B9000D96E000E1020DA6EDF6A1200346E34D067
:102BA0004F6A12004BC080F04CC081F03AEC21F02B
:102BB00006C04BF007C04CF0010E4F6E010E0A6EBE
:102BC000CA0E0B6E0B50D8A4080E0C6E010E66ECEC
:102BD00016F04BC030F04CC031F07DEC1EF012000E
:102BE0004F04D8A412004BC080F04CC081F03AECE6
:102BF00021F006C04BF007C04CF0EBD7020E4F6E31
:102C00001200030E4F6E12003450326E336A33508E
:102C1000000AD8A412003250000AD8B4C1D7010A61
:102C2000D8B4C0D7030AD8B4DBD7010AD8B4E6D7E2
:102C3000070AD8A41200E5D736D01D0E066E1C0E6A
:102C4000076E98EC1DF00009D8B432D0CA0E0E6E93
:102C5000010E0F6E0A0E106E000E116E000E126E37
:102C6000000E136EBBEC1BF02D0E576402D0576A9A
:102C70001200940E5724D96EDA6A020EDA221DC0B1
:102C8000DFFF572A1C50D8B405D0C9EC1EF05CEC0D
:102C900021F012005704D8A406D01D50D8A403D0A8
:102CA000C9EC1EF01200F6EC20F00009D8A4C5D73C
:102CB0005750D8B41200CA0E0E6E010E0F6E4BECB8
:102CC00018F00009D8B41200576AE1D7116E1150FC
:102CD000D8B41200040E116401D0120011040F6E5A
:102CE0000A04106E22D00BC0F6FF0CC0F7FFF86A82
:102CF0000F50140D000EF3240D6E030EF4200E6E13
:102D000010500D24D96E000E0E20DA6E070EF764F7
:102D100003D00800F55005D0F6CFE9FFF7CFEAFF62
:102D2000EF50DF6E0B4A0C2A102A0BC0F6FF0CC0C6
:102D3000F7FFF86A070EF76403D00800F55005D0D6
:102D4000F6CFE9FFF7CFEAFFEF500009D8B403D080
:102D5000130E1064C8D7010E0001F86F12000001B5
:102D60009F6BA06BA16B9C6B9D6BA76BA86B936B10
:102D7000946B956B916B926B536A8E6B000E6C6FBC
:102D8000000E6D6F000E6E6F000E6F6F0F0EC16E36
:102D9000070EB46E9280928292849580958295847B
:102DA00080A002D0010E01D0000E9B6F80A202D045
:102DB000010E01D0000E9A6F80A402D0010E01D046
:102DC000000E996F83A002D0010E01D0000E986F03
:102DD00083A202D0010E01D0000E976F83A402D00F
:102DE000010E01D0000E966F906B8F6B12000AC01F
:102DF00006F00BC007F016EC1DF00650166E0C50D6
:102E0000165CD8B01200140E0C6402D0140E0C6EB6
:102E100016500C5C146E16C017F017BE20D017C0E9
:102E20000EF00F6A0EBE0F060E500A24D96E0F5018
:102E30000B20DA6E17C010F0116A10BE1106105088
:102E40000A24126E11500B20136E14501224E16EDE
:102E5000000E1320E26EDFCFE7FF1706DED7156AFC
:102E600009D015500A24D96E000E0B20DA6E0DC061
:102E7000DFFF152A1450155CD8B01200F2D70600F7
:102E8000D9CF02F0DACF03F0F2A40ED0F294D10E33
:102E9000D76E200ED66E010E00017427000E75232A
:102EA00076237723884B892B9EA008D09E906D0EA9
:102EB000CF6E840ECE6E0001864B872B9EAA21D04A
:102EC000ABA203D0AB98AB881CD0000EABB0010E08
:102ED000046EAECF05F0ABB414D02E0E5A6011D0F4
:102EE0002E0E5A24D96EDA6A020EDA2205C0DFFFEE
:102EF000000E5A24D96EDA6A020EDA2204C0DFFF0D
:102F00005A2A03C0DAFF02C0D9FF019211000C6EE9
:102F100074EC21F00D6E2AD00D50D96EDA6ADECF36
:102F200008F0DDCF09F012000D50D96EDA6A020EFA
:102F3000D926DECF08F0DDCF09F012000D50D96E92
:102F4000DA6A040ED926DECF08F0DDCF09F01200D0
:102F50000D50D96EDA6A060ED926DECF08F0DDCF25
:102F600009F01200096A000E086E12000C500A6E79
:102F70000B6A0B50000AD8A4F5D70A50000AD8B43F
:102F8000CBD7010AD8B4D0D7030AD8B4D7D7010A0F
:102F9000D8B4DED7E7D7010E1C6E010E0A6E530EB1
:102FA0000B6E0B50D8A4080E0C6E030E66EC16F0D8
:102FB000170E066E12C0D9FF13C0DAFFDF5066ECA1
:102FC0001AF0010E0A6E170E0B6E0C6A030E66ECF9
:102FD00016F0030E1C261B6A16D0170E066E1B5029
:102FE0001424D96E000E1520DA6EDF5066EC1AF04C
:102FF0001CC00AF0170E0B6E0C6A030E66EC16F07E
:10300000030E1C261B2A16501B5CD8B01200120E91
:103010001C64E3D712000B6A09AE06D0086C091EC7
:10302000D8B0092A010E0B6E07AE06D0066C071E3B
:10303000D8B0072A010E0B1A0D6A000E0C6E08504C
:103040000910D8B41CD0010E0A6E04D0D8900836EE
:1030500009360A2A09AEFAD7D8900C360D36085030
:10306000065C09500758D8A005D00850065E0950E4
:10307000075A0C80D890093208320A2EEDD70B502F
:10308000D8B404D00C6C0D1ED8B00D2A0CC006F0BC
:103090000DC007F0120020EE08F00E50D9260F5098
:1030A000DA22DF50D8A402D0000E120020EE04F085
:1030B0000E50D9260F50DA220EC0E1FF0FC0E2FFFA
:1030C000E6CF14F0E6CF15F0E6CF16F0E6CF17F016
:1030D000A2EC1FF01450065C186E15500758196EBC
:1030E000165008581A6E175009581B6EDE50185C9F
:1030F000DE501958DE501A58DE501B58D8A0D4D7CD
:1031000020EE08F00E50D9260F50DA22DF6A010EA9
:103110001200076E07C006F0010E0616063A8A5026
:103120000618EF0B06188A6E07C006F0D890063214
:10313000010E0616063A06468A500618DF0B0618D8
:103140008A6E07C006F0D8900632D8900632010E7B
:103150000616063A064606468A500618BF0B06189B
:103160008A6E07C006F0D8900632D8900632D89002
:103170000632010E0616063206328A5006187F0BFA
:1031800006188A6EE5EC20F01200F10EF66E420E83
:10319000F76E000EF86E0900F5CFF8F0F00EF66E3F
:1031A000420EF76E000EF86E0900F5CF5BF003EEED
:1031B00000F0A00EEE6AE806FDE102EE00F0C40E9B
:1031C000EE6AE806FDE101EE00F0D30EEE6AE806D5
:1031D000FDE100EE60F08A0EEE6AE806FDE100EE29
:1031E0004BF0100EEE6AE806FDE101900192000E30
:1031F000F86E0001F7EF0DF00B6A07AE06D0066C13
:10320000071ED8B0072A010E0B6E09AE04D0086C59
:10321000091ED8B0092A08500910D8B418D0010ED8
:103220000A6E04D0D890083609360A2A09AEFAD7B1
:103230000850065C09500758D8A004D00850065E14
:103240000950075AD890093208320A2EF1D70B508C
:10325000D8B404D0066C071ED8B0072A06C006F002
:1032600007C007F01200096A000E086E110E0A6E00
:103270000C6A020E0B6EB0EC1EF05A0E111804E12F
:10328000A50E1218D8B41BD050EC1FF0A50E126E6C
:103290005A0E116E0C6A020E0B6EBA0E0D6E0F6A8C
:1032A0000C0E0E6E2BEC1EF00C6A000E0B6E110E47
:1032B0000D6E0F6A020E0E6E2BEC1EF01200096AE4
:1032C000020E086EBA0E0A6E0C6A0C0E0B6EB0EC93
:1032D0001EF01200936A8A6A020E0A6E380E096E98
:1032E000AD0EE82EFED7092EFCD70A2EFAD7000025
:1032F0000B6A8A94030E89EC18F04E0E096EEB0EE1
:10330000E82EFED7092EFCD700000B2A020E0B6414
:10331000F0D7020E89EC18F0280E9EEC20F00C0E6F
:103320009EEC20F0060E9EEC20F0010E9EEC20F0AC
:10333000200E096E2A0EE82EFED7092EFCD71200A9
:103340000C6E1CD008C006F009C007F071EC20F02C
:10335000120008C006F009C007F065EC20F012006A
:1033600008C006F009C007F059EC20F0120008C0B0
:1033700006F009C007F04DEC20F012000C500A6E68
:103380000B6A0B50000AD8A412000A50000AD8B4E5
:10339000D9D7010AD8B4DDD7030AD8B4E1D7010AD6
:1033A000D8A41200E4D72AC02CF02BC02DF02A504C
:1033B0002B10D8B4120002D02C4A2D2A2CC0D9FFD1
:1033C0002DC0DAFFDF5066EC1FF00009D8A4F4D757
:1033D0002A502C1804E12B502D18D8B412002AC002
:1033E0000AF02BC00BF02CC00CF02DC00DF02CC03F
:1033F00006F02DC007F016EC1DF0010E06240E6E2F
:10340000000E07200F6E21EC11F012000AC010F020
:103410000BC011F016D00D06D8A00E060C2A0C0415
:103420000F6E0FC0F6FF080EF76E10C0D9FF11C067
:10343000DAFF104A112A0800F5CFDFFFDF50D8B4B9
:103440000CD00D500E10D8B408D0E5D710C0D9FF5D
:1034500011C0DAFFDF6A104A112A0D06D8A00E0645
:103460000D28F4E10E28D8B41200F0D70A500B1042
:10347000D8B412000AC006F00BC007F016EC1DF01D
:1034800006C00EF007C00FF003D00E06D8A00F063E
:103490000E500F10D8B412D00E500A240C6E0F50DC
:1034A0000B200D6EFF0E0C24D96EFF0E0D20DA6E70
:1034B000DF5066EC1FF00009D8A4E7D70E500A24AD
:1034C000D96E0F500B20DA6EDF6A1200096E09C048
:1034D00007F0073A0F0E07160F0E07160750010FD9
:1034E000086E08C0F6FF080EF76E0650D96EDA6A4D
:1034F0000800F5CFDFFF09C007F00F0E07160750D1
:10350000010F086E08C0F6FF080EF76E0650D96E60
:10351000DA6A010ED9260800F5CFDFFF0650D96E12
:10352000DA6A020ED926DF6A1200376E37505B184E
:10353000D8B4120037C05BF010D0000ECEEC15F0FE
:103540001200010ECEEC15F01200030ECEEC15F0B9
:103550001200040ECEEC15F012005B50356E366A88
:103560003650000AD8A412003550010AD8B4E5D765
:10357000030AD8B4E6D7010AD8B4E7D7070AD8A413
:103580001200E7D70F6E0F505518D8B412000FC0B5
:1035900055F016D03FEC21F0096A000E086E0B6A58
:1035A000000E0A6E020EEFEC1AF01200096A010E0C
:1035B000086E0B6A000E0A6E020EEFEC1AF0120093
:1035C00055500D6E0E6A0E50000AD8A412000D5010
:1035D000000AD8B4DFD7010AD8A41200E7D70C6ECE
:1035E000C9EC20F00009D8A412005850050D500E67
:1035F000F324D96E030EF420DA6E0CC0DFFF5850AE
:10360000050D510EF324D96E030EF420DA6E08C0B6
:10361000DEFF09C0DDFF5850050D530EF324D96EAF
:10362000030EF420DA6E0AC0DEFF0BC0DDFF585037
:1036300048EC21F0586E12002E0E1F6402D02E0EA0
:103640001F6E206A0FD020501D24D96E000E1E2040
:10365000DA6E640E2024E16EE26A020EE222DFCF0F
:10366000E7FF202A1F50205CD8A0EDD71FC092F2A0
:10367000010E0201936F5C0E126E020E136E640E49
:10368000146E020E156E1FC016F0CBEC17F0120070
:103690000C6A000E0B6E08500910D8B41CD0010E35
:1036A0000A6E04D0D890083609360A2A09AEFAD72D
:1036B000D8900B360C360850065C09500758D8A035
:1036C00005D00850065E0950075A0B80D890093281
:1036D00008320A2EEDD70BC006F00CC007F012001E
:1036E0000650D96EDA6ADE50DE10D8B409D0065022
:1036F000D96EDA6A020ED926DE50DE10D8A402D0C6
:10370000000E12000650D96EDA6A040ED926DE5079
:10371000DE10D8B4F5D70650D96EDA6A060ED9266F
:10372000DE50DE10D8B4ECD7010E12000A6E10D0B5
:103730000A04D8A41200075004E1020E065CD8A0C7
:10374000120006C07BF007C07CF0010E7D6F1200F6
:103750000001A351086E096A0950000AD8A412009A
:103760000850100AD8B4E4D7010AD8B4E1D7050A42
:10377000D8A41200DDD7A2EC1FF00EC0D9FF0FC0F5
:10378000DAFF06C0DEFF07C0DEFF08C0DEFF09C0AB
:10379000DEFF20EE04F00E50D9260F50DA2210C0C2
:1037A000DEFF11C0DEFF12C0DEFF13C0DEFF20EE21
:1037B00008F00E50D9260F50DA22010EDF6E1200EB
:1037C00010501110D8B4120010C006F011C007F04C
:1037D00003C108F0096A48EC1BF00650126E0F0E88
:1037E000136E020E146E12C015F0130E066E076AE9
:1037F000040E086ED4EC1CF0166E130E096E040E47
:103800000A6E47EC1EF01200020E126002D0000E8B
:10381000120010C006F011C007F012C008F0D4EC7E
:103820001CF0156E12501024136E000E1120146E31
:10383000FF0E1324D96EFF0E1420DA6EDF50166EC1
:1038400016501518D8A402D0010E1200000E120056
:10385000846A836A826A816A806A956894689368D8
:1038600092680F0E966E92809282928492869288CF
:10387000929A93909392939493969398939A939CFD
:10388000939E8A908A92949C948E9580958295843A
:10389000969096821200096E0ED00904D8A41200E8
:1038A000010E06EC21F012000950D8A41200000EFF
:1038B00006EC21F012005450076E086A0850000A06
:1038C000D8A412000750000AD8B4E7D7010AD8B428
:1038D000EBD7030AD8B41200010A1200136A13507E
:1038E000020DF350600FD96EDA6ADECF08F0DDCF3B
:1038F00009F01350080DF3CF11F0010E11261150ED
:10390000330F126E12C0F6FF080EF76E0800F55066
:10391000A0EC19F0132A030E1364E1D762EC21F036
:1039200012005504D8A41200A2EC1FF0000170513F
:10393000065C156E71510758166E72510858176E55
:1039400073510958186E1850171006E1300E155CA7
:10395000750E1658D8A01200116A000E106E070ED0
:10396000AAEC13F012000AD0E10E1200E30E1200CE
:10397000DF0E1200E50E1200EB0E12006EEC21F0CD
:10398000086E096A0950000AD8A4F6D70850000A40
:10399000D8B4EAD7010AD8B4E9D7030AD8B4E8D72B
:1039A000010AD8B4E7D7E8D70E6A0F6A09D00F50DA
:1039B0000624D96E000E0720DA6EDF500E260F2A7D
:1039C000FF0E0824096E0A6AFF0E0A220F500B6EC2
:1039D0000C6A09500B5C0C50800A0D6E0A50800A6C
:1039E0000D58D8A0E4D70E50120008500910D8B4D2
:1039F00018D0010E0A6E04D0D890083609360A2A6B
:103A000009AEFAD70850065C09500758D8A004D070
:103A10000850065E0950075AD890093208320A2E1B
:103A2000F1D706C006F007C007F0120006C008F084
:103A300007C009F002D0064A072A06C0F6FF07C0F1
:103A4000F7FFF86A070EF76403D00800F55005D0B9
:103A5000F6CFE9FFF7CFEAFFEF500009D8A4EBD784
:103A60000850065C066E09500758076E1200106A6F
:103A70001050080DF3CF0EF0010E0E260E50330F2E
:103A80000F6E0FC0F6FF080EF76E0800F55087ECBA
:103A900017F01050020DF350600FD96EDA6A08C0AB
:103AA000DEFF09C0DDFF102A030E1064E1D712000B
:103AB0000AD0E10E1200F10E1200DF0E1200ED0E20
:103AC0001200EB0E12005450086E096A0950000AE9
:103AD000D8A4F7D70850000AD8B4EBD7010AD8B455
:103AE000EAD7030AD8B4E9D7010AD8B4E8D7E9D7A6
:103AF0000AD0F10E1200E30E1200E70E1200E50EDE
:103B00001200EB0E12005B50086E096A0950000AA1
:103B1000D8A4F7D70850010AD8B4EBD7030AD8B411
:103B2000EAD7010AD8B4E9D7070AD8B4E8D7E9D761
:103B30005A50525CD8A002D0000E12002E0E522411
:103B4000D96EDA6A020EDA220650E16EE26ADFCF3F
:103B5000E7FF000E5224D96EDA6A020EDA2207500D
:103B6000E16EE26ADFCFE7FF522A010E1200086A17
:103B7000096A0850140D000EF324066E030EF4209B
:103B8000076E09500624D96E000E0720DA6E200E4B
:103B9000DF6E092A130E0964ECD7082A030E0864A5
:103BA000E7D7010E0001F86F1200FEEC20F00009CB
:103BB000D8A412005950050D500EF324D96E030EEF
:103BC000F420DA6E10EE3EF0040EDBCFE3FFE806E1
:103BD000FCE2595048EC21F0596E3E0E3B6E7AECF7
:103BE00010F01200000EF2BE010E0A6EF29E06C028
:103BF000A9FF08C0A8FFA69EA69CA684550EA76E86
:103C0000AA0EA76EA6820950D8B402D0A6B2FED7DB
:103C1000A6940AB002D0F29E01D0F28E120008D013
:103C2000F10E1200EF0E1200ED0E1200EB0E12005C
:103C300072EC21F0086E096A0950000AD8A4F6D780
:103C40000850000AD8B4ECD7010AD8B4EBD7030A5D
:103C5000D8B4EAD7EBD70DC010F010D00BC006F0E7
:103C60000CC007F01050D96EDA6ADF50086E010EF2
:103C7000096EF2EC1DF0102A0B4A0C2A0E06D8A091
:103C80000F060E28EBE10F28D8B41200E7D79EA844
:103C9000FED7AC800950D96EDA6ADF50AD6EAC90B9
:103CA000010E0B6E0AD0000E066E09500B24D96E61
:103CB000DA6ADF50C7EC1FF00B2A0A500B5CD8B051
:103CC0001200F1D70AD076EC21F0C5EC12F0120008
:103CD000D3EC0BF00BEC20F012005650356E366A28
:103CE0003650000AD8A412003550000AD8B4EBD7D9
:103CF000010AD8B4EDD7030A120030C00EF031C06B
:103D00000FF0420E106E010E116E12EC14F0420E06
:103D10002E6E010E2F6EEBEC1FF00A0E0A6E420E95
:103D20000B6E010E0C6E010E66EC16F01200106E9A
:103D30005C0E066E020E076E096A000E086E0B6AB4
:103D4000380E0A6E24EC1FF0020E0F6402D0020E31
:103D50000F6E10C05CF20EC05DF20FC063F2120075
:103D60000AC00DF00DD00D50D96EDA6A08C006F009
:103D700009C007F01CEC21F0DF6E084A092A0D2A61
:103D80000B06D8A00C060B28EEE10C28D8B41200C4
:103D9000EAD757C0C2F2C2C212F0940E106E020EE1
:103DA000116E04EC1CF00009D8B402D0010E01D051
:103DB000000E0201C36F010E0001A96F576A1200C5
:103DC000086E05D00850D8A41200566A120056504A
:103DD000066E076A0750000AD8A412000650000AAF
:103DE000D8B41200010AD8B4EDD7030A12000001BA
:103DF0008B6B6BEC21F037EC1DF04E6A4D6A0001C5
:103E00008A6BA2EC1FF006C068F007C069F008C01A
:103E10006AF009C06BF0F0EC0CF012008A908A9204
:103E200000017A05D8A403D0DCEC20F005D0020E06
:103E30007A19D8B4D3EC20F0D9EC1FF000017A6BDA
:103E4000000E06EC21F0120006C00CF007C00DF0C9
:103E500008D00CC0D9FF0DC0DAFF08C0DFFF0C4A44
:103E60000D2A0A06D8A00B060A28F3E10B28D8B4BD
:103E70001200EFD706D0ED0E1200E90E1200EB0E85
:103E800012005550086E096A0950000AD8A4F7D7E5
:103E90000850000AD8B4EFD7010AD8B4EED7EFD74C
:103EA000030E0001BB6F200EBA6F070EBD6F080E28
:103EB000BC6FBF6B140EBE6FC16B3C0EC06FC36B8B
:103EC000000EC26FC56B000EC46F1200076E010EAC
:103ED000066E200E0718D8B40CD0090E0718D8B4F7
:103EE00008D00D0E0718D8B404D00A0E0718D8A4AD
:103EF000066A065012003AEC21F006C00BF007C02B
:103F00000CF00B500C10D8B412000BC006F00CC013
:103F100007F0010E96EC1BF03FEC21F01200166E3C
:103F2000140E0001A36F16C0A2F0820E0E6E010ED9
:103F30000F6E14C010F015C011F0126A136ABBECBA
:103F40001BF01200F29E74C00AF075C00BF076C030
:103F50000CF077C00DF0F28E0AC006F00BC007F02F
:103F60000CC008F00DC009F01200949C948EB88625
:103F7000B892040EB06EE10EAF6EAC84AC98AB8E0E
:103F8000AC8AAC8CAB8CAB96AB889D981200086E5B
:103F90009EA8FED70650D8B403D0076A072A01D0DE
:103FA000076AAC500718FE0B0718AC6E08C0ADFFCF
:103FB0001200BA0E066E70EC1BF00009D8B41200A5
:103FC0000C6A020E0B6EBA0E0D6E0F6A0C0E0E6EA0
:103FD0002BEC1EF012002E502F10D8B412002EC061
:103FE0000AF02FC00BF036EC1AF02EC02AF02FC0CA
:103FF0002BF0D3EC19F01200D59ED59CD59AD5980C
:10400000D586F80ED516D10ED76E200ED66EF29448
:10401000F28AD58E120000018B51D8A403D0F0ECA7
:104020000CF01200B7EC1DF000018B6B000EE0EC01
:104030001EF012000001A951D8A405D0000E066E92
:10404000000E076E1200940E066E020E076E12002E
:10405000000E116E080EDBEC0EF0030E156EE80E6E
:10406000146E000E8FEC1FF01200AD0E066E076A84
:10407000096A000E086E0B6A0D0E0A6E24EC1FF022
:10408000120006500001825D07508359D8A012002B
:104090000650825F0750835B120006500710D8A4B9
:1040A00002D0000E120006C0C0F007C0C1F0010E21
:1040B000120006500710D8A402D0000E120006C04D
:1040C000BEF007C0BFF0010E120006500710D8A4C2
:1040D00002D0000E120006C0BCF007C0BDF0010EF9
:1040E000120006500710D8A402D0000E120006C01D
:1040F000BAF007C0BBF0010E120006500001825D4D
:1041000007508359D8A002D0010E1200000E1200F1
:10411000AC9CAB9CAC84B886B06A4D0EAF6EAB8ED7
:10412000AC8AAB881200086E8A8408380F0B89ECC1
:1041300018F008500F0B89EC18F01200086E8A94E2
:1041400008380F0B89EC18F008500F0B89EC18F0A9
:104150001200A2EC1FF006C070F007C071F008C09A
:1041600072F009C073F012000001A851D8B4120017
:10417000A86BA76BF7EC1EF0010E566E1200030E33
:104180004F6E00018C6B4C6A000E4B6E806981692A
:104190001200585048EC21F05918D8A402D0010E52
:1041A0001200000E12000001C42903E1C529D8B491
:1041B0001200C44BC52B12000001C22903E1C32920
:1041C000D8B41200C24BC32B12008A86040EE82E0C
:1041D000FED78A96C80EE82EFED71200310ECD6E9D
:1041E0009E906D0ECF6E840ECE6E12005A50525CB1
:1041F000D8B002D0010E1200000E1200585059180B
:10420000D8A402D0010E1200000E1200066E065055
:104210005418D8B4120006C054F012000001796B93
:10422000000E786F7A6B546A1200B7EC1DF0000133
:104230008D6B506A516A120006C0A9FFA69EA69C0B
:10424000A680A8501200000E066E000EC7EC1FF0EC
:104250001200040E5B6E040ECEEC15F01200065038
:10426000000182270750832312000001836B000E98
:10427000826F120082C006F083C007F012000001B6
:10428000836B000E826F1200576A0001A96B120047
:10429000066E06280F0B12003FEC21F0556A120043
:1042A0000001A96B12000001A951120023EC21F0BA
:1042B00012000001A2511200526A5A6A1200586A92
:1042C000596A1200D9EC1FF0120000018F51120040
:1042D00000019051120033EC19F012004F501200FF
:1042E000526A120056501200BA0E1200120012004A
:0242F0000401C7
:020000040030CA
:0E000000240E1F1EFF8181FF0FC00FE00F4076
:00000001FF
