:0400000007EF00F016
:0A0008000182D2ED16F09FEF18F010
:10080000003031323334353637383941424344458C
:1008100046000F010C0000001C0CFFFFFFFF080C3E
:10082000000000000C0F05140F000F0B0B0A0A0943
:100830000908089900080040066400AD0112001084
:100840000E6400A3020A0032000100B7030A00C8C8
:1008500000010020202020202020202020202020F7
:1008600020202020202020004675657261206465CC
:1008700020536572766963696F00496E736572749F
:1008800065206D6F6E6564617300446573706163AC
:1008900068616E646F2E2E2E0050726563696F2042
:1008A000313A005469656D706F20313A00507265BD
:1008B00063696F20323A005469656D706F20323A77
:1008C0000043616E63656C617200437265646974B4
:1008D0006F3A0047756172646172002A003E0044FD
:1008E00000490043004F00560041003F0045004DC5
:1008F00000520000FEEF09F0A46B000E116E080E0E
:10090000C9EC0EF0156A050E146E010E67EC1FF0AF
:10091000C10E0E6E010E0F6E050E106E000E116EE2
:10092000000E126E000E136E95EC1BF0096A0B0E92
:10093000086E0B6A000E0A6E010EC9EC1AF0120066
:1009400021EC21F00009D8B42FD0F1EC1FF006C043
:1009500046F007C047F046C01DF047C01EF020EE2D
:100960002EF04650D9264750DA22DF501F6EF6ECA3
:100970001AF020EE2EF04650D9264750DA22DE0437
:10098000D8A40FD046C0D9FF47C0DAFFDF50D8A4A3
:1009900008D024EC21F0156AC80E146E020E67EC24
:1009A0001FF01EEC21F01200C10E0E6E010E0F6E34
:1009B00025EC18F00009D8B41200156AC80E146EA0
:1009C000000E67EC1FF01200000E116E0B0EC9EC4A
:1009D0000EF0B80E0E6E010E0F6E050E106E000EAC
:1009E000116E000E126E000E136E95EC1BF0156A60
:1009F000050E146E030E67EC1FF0120021EC21F0BF
:100A00000009D8B446D0F1EC1FF006C046F007C08C
:100A100047F00BEC20F046C01DF047C01EF020EE62
:100A20002EF04650D9264750DA22DF501F6EF6ECE2
:100A30001AF020EE2EF04650D9264750DA22DE0476
:100A4000D8A410D046C0D9FF47C0DAFFDF50D8A4E1
:100A500009D024EC21F0156AC80E146E040E67EC60
:100A60001FF09FD720EE2EF04650D9264750DA22AD
:100A7000DFB097D724EC21F0156AC80E146E040E6F
:100A800067EC1FF0156AC80E146E020E67EC1FF0BB
:100A900088D7B80E0E6E010E0F6E25EC18F0000907
:100AA000D8B41200156AC80E146E020E67EC1FF05F
:100AB0001200000E116E090EC9EC0EF0156A3C0E04
:100AC000146E050E67EC1FF0AF0E0E6E010E0F6E6A
:100AD000280E106E000E116E000E126E000E136EB8
:100AE00095EC1BF0120021EC21F00009D8B4CED017
:100AF000F1EC1FF006C046F007C047F046C01DF0FD
:100B000047C01EF020EE2EF04650D9264750DA227C
:100B1000DF501F6EF6EC1AF020EE2EF04650D9266C
:100B20004750DA22180EDE18D8A4A9D046C010F01B
:100B300047C011F020EE2EF04650D9264750DA2259
:100B4000DF50126EDEEC1BF00009D8B498D024EC14
:100B500021F046C0D9FF47C0DAFFDF500101006F26
:100B600020EE02F04650D9264750DA22DF50376E89
:100B700020EE01F04650D9264750DA22DF50386E79
:100B80003750016F38C002F120EE03F04650D926ED
:100B90004750DA22DF50036F20EE04F04650D9268A
:100BA0004750DA22DF50046F20EE06F04650D92677
:100BB0004750DA22DF50376E20EE05F04650D92636
:100BC0004750DA22DF50386E37503A6E38C03BF06B
:100BD000456A0F0E456401D018D0050E4524D96E24
:100BE000DA6A010EDA2245C037F03AC038F03BC06D
:100BF00039F0372A03D0D89039323832372EFBD724
:100C00003850010BDF6E452AE4D75850F80F010128
:100C1000256F100E256502D0100E256F456A15D080
:100C200045504624376E000E4720386E070E372495
:100C3000D96E000E3820DA6E150E4524E16EE26A98
:100C4000010EE222DFCFE7FF452A2551455CD8A0FF
:100C5000E7D725C145F00F0E456401D009D0150E28
:100C60004524D96EDA6A010EDA22DF6A452AF3D703
:100C7000156AC80E146E060E67EC1FF092D6156A40
:100C8000C80E146E040E67EC1FF08BD6AF0E0E6EFE
:100C9000010E0F6E25EC18F00009D8B4120046C002
:100CA0001DF047C01EF020EE2EF04650D9264750CA
:100CB000DA22DF501F6EF6EC1AF0156AC80E146EB9
:100CC000040E67EC1FF01200020E010100651AD03D
:100CD000156A640E146E070E67EC1FF0000E116E9D
:100CE0000F0EC9EC0EF0A60E0E6E010E0F6E460E24
:100CF000106E000E116E000E126E000E136E95EC4B
:100D00001BF01200156AC80E146E0A0E67EC1FF075
:100D1000120021EC21F00009D8B448D0F1EC1FF00A
:100D200006C046F007C047F046C01DF047C01EF0A1
:100D300020EE2EF04650D9264750DA22DF501F6EA3
:100D4000F6EC1AF020EE2EF04650D9264750DA2263
:100D5000220EDE18D8A425D6426A46C0D9FF47C065
:100D6000DAFF430EDE18D8A416D020EE01F046506C
:100D7000D9264750DA22410EDE18D8A40CD020EE36
:100D800002F04650D9264750DA22490EDE18D8A480
:100D900002D0010E426E42C0A5F024EC21F0156A8B
:100DA000C80E146E080E67EC1FF0FBD5A60E0E6E73
:100DB000010E0F6E25EC18F00009D8B41200156A68
:100DC000C80E146E060E67EC1FF01200030E010130
:100DD0000019D8A41AD0156A050E146E090E67EC16
:100DE0001FF0010E116E0F0EC9EC0EF09D0E0E6E6F
:100DF000010E0F6E050E106E000E116E000E126EBB
:100E0000000E136E95EC1BF01200156AC80E146EDE
:100E10000A0E67EC1FF0120021EC21F00009D8B493
:100E20002BD0F1EC1FF006C046F007C047F020EED3
:100E30002EF04650D9264750DA22DE04D8A4B1D588
:100E400046C0D9FF47C0DAFFDF50D8A4AAD5156A3B
:100E5000C80E146E0A0E67EC1FF046C01DF047C0A6
:100E60001EF020EE2EF04650D9264750DA22DF50F1
:100E70001F6EF6EC1AF095D59D0E0E6E010E0F6EDC
:100E800025EC18F00009D8B41200156AC80E146ECB
:100E9000080E67EC1FF01200000E116E0A0EC9EC6E
:100EA0000EF0156A320E146E0B0E67EC1FF0940EE6
:100EB0000E6E010E0F6E460E106E000E116E000EBD
:100EC000126E000E136E95EC1BF0120046C01DF062
:100ED00047C01EF020EE2EF04650D9264750DA22A9
:100EE000DF501F6EF6EC1AF021EC21F00009D8B4A7
:100EF0007BD0F1EC1FF006C046F007C047F046C0BB
:100F00001DF047C01EF020EE2EF04650D926475067
:100F1000DA22DF501F6EF6EC1AF046C010F047C020
:100F200011F020EE2EF04650D9264750DA22DF503D
:100F3000126EDEEC1BF00009D8B44FD024EC21F087
:100F400020EE01F04650D9264750DA22DF50376EA6
:100F500046C0D9FF47C0DAFFDF50386E3750010175
:100F6000266F38C027F120EE2EF04650D926475084
:100F7000DA22DF50FD0F386F436A15D04350462404
:100F8000376E000E4720386E020E3724D96E000EE1
:100F90003820DA6E280E4324E16EE26A010EE22266
:100FA000DFCFE7FF432A2551435CD8A0E7D725C10F
:100FB00044F00F0E446401D009D0280E4424D96EA9
:100FC000DA6A010EDA22DF6A442AF3D7156AC80EFC
:100FD000146E0C0E67EC1FF0E4D4156AC80E146E84
:100FE0000A0E67EC1FF0DDD4940E0E6E010E0F6E2C
:100FF00025EC18F00009D8B41200156AC80E146E5A
:101000000A0E67EC1FF01200156A0F0E146E0D0E1B
:1010100067EC1FF0010E116E0C0EC9EC0EF0E10E24
:101020000E6E0F6A0F0E106E000E116E000E126E15
:10103000000E136E95EC1BF0120021EC21F000095C
:10104000D8B438D0F1EC1FF006C046F007C047F026
:1010500046C01DF047C01EF020EE2EF04650D926A7
:101060004750DA22DF501F6EF6EC1AF020EE2EF019
:101070004650D9264750DA22DE04D8A492D446C07E
:10108000D9FF47C0DAFFDF50D8A48BD424EC21F07D
:101090000001A46B156AC80E146E100E67EC1FF0E9
:1010A000096A0C0E086E0B6A000E0A6E010EC9EC7E
:1010B0001AF077D4E10E0E6E0F6A25EC18F00009D5
:1010C000D8B41200156AC80E146E0C0E67EC1FF02F
:1010D0001200156A050E146E0F0E67EC1FF0000E5D
:1010E000116E0C0EC9EC0EF0E10E0E6E0F6A050EBD
:1010F000106E000E116E000E126E000E136E95EC47
:101100001BF0120021EC21F00009D8B42DD0F1EC35
:101110001FF006C046F007C047F046C01DF047C0AC
:101120001EF020EE2EF04650D9264750DA22DF502E
:101130001F6EF6EC1AF020EE2EF04650D9264750DE
:10114000DA22DE04D8A42DD446C0D9FF47C0DAFF86
:10115000DF50D8A426D424EC21F0156AC80E146EF2
:10116000100E67EC1FF01DD4E10E0E6E0F6A25EC19
:1011700018F00009D8B41200156AC80E146E0C0ECF
:1011800067EC1FF01200000E116E0B0EC9EC0EF092
:10119000156A0A0E146E110E67EC1FF08B0E0E6EA0
:1011A000010E0F6E0A0E106E000E116E000E126E02
:1011B000000E136E95EC1BF0120021EC21F00009DB
:1011C000D8B4E8D0F1EC1FF006C046F007C047F0F5
:1011D0000BEC20F046C007F047C008F020EE2EF0E0
:1011E0004650D9264750DA22DF50096EA3EC12F0A0
:1011F000406EBED000017D51D8B419D07B517C1116
:10120000D8B415D07BC010F07CC011F0BAEC1BF044
:1012100000017C6B000E7B6F7BC07DF0010E156EB4
:10122000F40E146E100E67EC1FF0D1EF04F0156A87
:10123000C80E146E100E67EC1FF0D1EF04F020EE14
:1012400002F04650D9264750DA2210EE01F04650FF
:10125000E1264750E222E750386E46C0E1FF47C022
:10126000E2FFE7503824396EDE503918D8A429D06F
:1012700024EC21F046C0D9FF47C0DAFFDF500F0B46
:10128000416E150E4124D96EDA6A010EDA22DF5062
:10129000376E375001010303F3CF3CF0F4CF3DF03C
:1012A000096A0D0E086E3CC00AF03DC00BF0010E3D
:1012B000C9EC1AF0156AC80E146E100E67EC1FF018
:1012C00008D024EC21F0156AC80E146E100E67ECDD
:1012D0001FF046C01DF047C01EF020EE2EF0465015
:1012E000D9264750DA22DF501F6EF6EC1AF0D1EF04
:1012F00004F024EC21F00001AD51D8B413D004EC7B
:1013000021F006C03EF007C03FF03EC006F03FC0EF
:1013100007F0010E70EC1BF0156AC80E146E100E6B
:1013200067EC1FF00001B151D8B408D024EC21F0D3
:10133000156AC80E146E000E67EC1FF00BEC20F05F
:10134000156AC80E146E100E67EC1FF0D1EF04F092
:1013500046C01DF047C01EF020EE2EF04650D926A4
:101360004750DA22DF501F6EF6EC1AF0D1EF04F08E
:101370004050376E386A3850000AD8A4E9D7375041
:10138000000AD8B437D70D0AD8B459D7020AD8B44E
:10139000B0D7DED78B0E0E6E010E0F6E25EC18F057
:1013A0000009D8B41200156AC80E146E100E67EC4E
:1013B0001FF012007D51D8B40DD07C5104E1020E13
:1013C0007B5DD8A007D07D6B7BC010F07CC011F096
:1013D000BAEC1BF0010E156EF40E146E100E67ECD5
:1013E0001FF01200820E0E6E010E0F6E25EC18F02B
:1013F0000009D8B41200A2C0A3F012000001A3514A
:10140000376E386A3850000AD8A412003750000AE4
:10141000D8B47CEF04F0010AD8B4A0EF04F0030ABA
:10142000D8B4E4EF04F0010AD8B4FEEF04F0070AE0
:10143000D8B459EF05F0010AD8B473EF05F0030AE8
:10144000D8B442D4010AD8B464D40F0AD8B4BED4F4
:10145000010AD8B4E1D4030AD8B41ED5010AD8B41D
:1014600035D5070AD8B4D0D5010AD8B4E6D5030AD1
:10147000D8B42FD6010AD8B445D61F0AD8B483D61B
:10148000010AD8B49AD6030AD8B494D7010AD8B4BA
:101490001200070AD8A41200A5D780A002D0010E1E
:1014A00001D0000E206E80A202D0010E01D0000EED
:1014B000216E80A402D0010E01D0000E226E83A006
:1014C00002D0010E01D0000E256E83A202D0010EC3
:1014D00001D0000E236E83A402D0010E01D0000EB5
:1014E000246E00019551D8A418D09B51D8B415D0C2
:1014F0002050D8A412D0010E956F010EA16F790E65
:101500000E6E010E0F6E1E0E106E000E116E000E8E
:10151000126E000E136E95EC1BF000019551D8B4BD
:101520000BD0790E0E6E010E0F6E25EC18F000092F
:10153000D8B402D00001956B00019451D8A418D002
:101540009A51D8B415D02150D8A412D0010E946F5E
:10155000010EA06F700E0E6E010E0F6E1E0E106E3D
:10156000000E116E000E126E000E136E95EC1BF045
:1015700000019451D8B40BD0700E0E6E010E0F6E98
:1015800025EC18F00009D8B402D00001946B0001DA
:101590009351D8A418D09951D8B415D02250D8A4BA
:1015A00012D0010E936F010E9F6F670E0E6E010E2B
:1015B0000F6E1E0E106E000E116E000E126E000EDB
:1015C000136E95EC1BF000019351D8B40BD0670E4D
:1015D0000E6E010E0F6E25EC18F00009D8B402D083
:1015E0000001936B5150D8A425D000019851D8B474
:1015F00021D02550D8A41ED0010E516E010EA76F28
:101600007AEC1FF006C06CF007C06DF008C06EF0F9
:1016100009C06FF000018E6B5E0E0E6E010E0F6E34
:101620001E0E106E000E116E000E126E000E136E66
:1016300095EC1BF05150D8B424D02550D8A421D01B
:1016400000018E51D8A41DD07AEC1FF000016C511E
:10165000065C1C6E6D5107581D6E6E5108581E6E4B
:101660006F5109581F6E1F501E1006E1B80E1C5C0A
:101670000B0E1D58D8A005D0010EA86FA76B010E48
:101680008E6F5150D8B40FD02550D8B40CD05E0E08
:101690000E6E010E0F6E25EC18F00009D8B403D0C1
:1016A000516A0001A86B00019251D8A418D097513B
:1016B000D8B415D02350D8A412D0010E926F010EC9
:1016C0009D6F550E0E6E010E0F6E1E0E106E000EEB
:1016D000116E000E126E000E136E95EC1BF00001E1
:1016E0009251D8B40BD0550E0E6E010E0F6E25EC34
:1016F00018F00009D8B402D00001926B000191519A
:10170000D8A418D09651D8B415D02450D8A412D04B
:10171000010E916F010E9C6F4C0E0E6E010E0F6E3E
:101720001E0E106E000E116E000E126E000E136E65
:1017300095EC1BF000019151D8B40BD04C0E0E6EFD
:10174000010E0F6E25EC18F00009D8B402D000018C
:10175000916B20C09BF021C09AF022C099F025C067
:1017600098F023C097F024C096F02350D8A402D05C
:10177000010E01D0000E0001906F2450D8A402D0B9
:10178000010E01D0000E8F6F12007AEC1FF00001E5
:101790006851065C226E69510758236E6A510858D9
:1017A000246E6B510958256E2550241006E12C0E2D
:1017B000225C010E2358D8A012D07AEC1FF006C08C
:1017C00068F007C069F008C06AF009C06BF000015A
:1017D0008A51D8A402D0010E01D0000E8A6FA75101
:1017E000D8B416D0A76BD76BCE6B040E4C6008D064
:1017F0004B50D8A402D0010E01D0000E4B6E08D081
:10180000040E4C18D8B448EC1CF0010E00018B6F8C
:101810002A6A9C51D8B405D09C6B010E2A6ED76BF6
:101820000BD0CF0E0E6E39EC21F0A9EC0FF00009B1
:10183000D8B402D0010E2A6E2A50D8B455D04B50DD
:10184000D8B44BD0040E4C6048D04C50080DF35027
:10185000330F2C6E4C50020DF350600FD96EDA6AC4
:10186000DECF22F0DDCF23F02CC024F0060E24269C
:1018700024C0F6FF080EF76E22500900F524256EED
:1018800023500900F520266E2CC027F0040E2726D1
:1018900027C0F6FF080EF76E25500900F55C2650AC
:1018A0000900F558D8A020D02CC022F0060E222620
:1018B00022C0F6FF080EF76E0900F5CF23F00900ED
:1018C000F5CF24F04C50020DF350600FD96EDA6A58
:1018D0002350DE262450DD2207D04C50D8B404D04B
:1018E0004C060001D76BCE6B2B6A00019D51D8B41A
:1018F00005D09D6B010E2B6ECE6B0BD0C60E0E6EFF
:101900003BEC21F0A9EC0FF00009D8B402D0010E95
:101910002B6E2B50D8B412004B50D8B44BD0040EC1
:101920004C6048D04C50080DF350330F2D6E2DC035
:1019300022F0060E222622C0F6FF080EF76E0900DE
:10194000F5CF23F00900F5CF24F02DC025F0020ECD
:10195000252625C0F6FF080EF76E23500900F52452
:10196000266E24500900F520276E4C50020DF350CE
:10197000600FD96EDA6A2650DE5C2750DE58D8A098
:1019800012002DC022F0060E222622C0F6FF080EFD
:10199000F76E0900F5CF23F00900F5CF24F04C5085
:1019A000020DF350600FD96EDA6A2350DE5E2450C8
:1019B000DD5A1200050E4C6012004C2A0001D76B54
:1019C000CE6B1200010E0101ED6F030E4C6004D0CE
:1019D000E96B000EE86F06D0FE0E4C24E86FE96B51
:1019E000FF0EE923E8C1ECF1ECC1EEF1DAD0EE51E3
:1019F0004C18D8B402D0660E01D0DD0EEA6F010E8D
:101A00000A6EEAC10BF00B50D8A4080E0C6EED5113
:101A100041EC16F0040E0101EE61A5D0D30E0A6E62
:101A2000010E0B6EEE51080DF350330F306E30C0C7
:101A3000F6FF080EF76E0800F5CF0CF0EE51080D1A
:101A4000F350330F316E31C0F6FF080EF76E090008
:101A5000F5CF06F0080E076EF0EC1CF0FF0E062422
:101A60000D6EFF0E07200E6EE0EC19F00101EE5135
:101A7000080DF350330F306E30C0F6FF080EF76ECE
:101A80000900F5CF06F0080E076EF0EC1CF0FF0E13
:101A90000624316EFF0E0720326ED30E3124D96E2C
:101AA000010E3220DA6EDF6A020E0A6ED30E0B6E62
:101AB000010E0C6E0101ED5141EC16F04B50D8B403
:101AC0001AD00101EE514C18D8A415D000018A514A
:101AD000D8A402D0DB0E01D0660E0101EB6F0D0E13
:101AE0000A6EEBC10BF00B50D8A4080E0C6EED5132
:101AF00041EC16F00CD00D0E0A6E660E0B6E0B50FC
:101B0000D8A4080E0C6E0101ED5141EC16F0010154
:101B1000EE51020DF350600FD96EDA6ADECF0DF090
:101B2000DDCF0EF0D30E0F6E010E106E59EC15F0D6
:101B3000D30E2E6E010E2F6EC3EC1FF0D30E0A6E65
:101B4000010E0B6E040E0C6E200E0D6E8AEC16F05C
:101B50000F0E0A6ED30E0B6E010E0C6E0101ED51CD
:101B600041EC16F01BD0040EEE19D8A40CD0020ED6
:101B70000A6ED30E0B6E0B50D8A4080E0C6EED51EE
:101B800041EC16F00BD0020E0A6EC10E0B6E0B501C
:101B9000D8A4080E0C6EED5141EC16F00101ED2BAE
:101BA000EE2BEC51306E316A040E3026000E3122DD
:101BB000EE51326E336A3050325C3350800A346EEC
:101BC0003150800A3458D8B01200050EEE650FD798
:101BD00012000F0EC16E070EB46E02EC1CF0D4ECB6
:101BE0001FF0BFEC20F0800E066E250E076E000E73
:101BF000086E000E096E53EC20F08DEC1FF035ECF2
:101C000021F00001F56B100E486E940EE82EFED701
:101C1000482EFCD700D00001F52BF529D8A4F3D726
:101C200044EC19F0F2EC20F0F66B100E486E940EB6
:101C3000E82EFED7482EFCD700D00001F62BF6295F
:101C4000D8A4F3D70DEC19F0F8EC20F042EC21F019
:101C500012EC21F0FEEC1FF01AEC21F0E6EC20F083
:101C60000EEC21F01AEC17F09DEC20F02AEC21F09C
:101C7000F76B100E486E940EE82EFED7482EFCD758
:101C800000D00001F72BF729D8A4F3D7D08EF18428
:101C90009F90F294F28A9E909D80F28CF28EF7ECE7
:101CA00015F07AEC04F06BEC1CF0B1EC11F0AFEC39
:101CB0001DF04DEC0AF093EC20F03CEC1EF005EC2E
:101CC00015F0D10E885D070E8959D8A0E8D7896B29
:101CD000000E886F37EC21F0F46FF4C00EF00F6A3D
:101CE000EA0E106E116AEDEC13F0EA0E2E6E2F6AFA
:101CF000C3EC1FF0010E0A6EEA0E0B6E0C6A040EA6
:101D000041EC16F0040E0A6E52EC1DF0486E48C00D
:101D10000BF00B50D8A4080E0C6E040E41EC16F01C
:101D2000060E0A6EE9EC1DF0486E48C00BF00B5031
:101D3000D8A4080E0C6E040E41EC16F0080E0A6EC4
:101D4000E7EC1EF0486E48C00BF00B50D8A4080E0C
:101D50000C6E040E41EC16F00A0E0A6E32EC1DF009
:101D6000486E48C00BF00B50D8A4080E0C6E040E41
:101D700041EC16F00C0E0A6E8DEC1CF0486E48C05B
:101D80000BF00B50D8A4080E0C6E040E41EC16F0AC
:101D900086D7366EB3D0310EF66E080EF76E090098
:101DA000F5CF2BF00A00F5CF2CF02B0E096E020EAA
:101DB0000A6E21EC1EF0B5D02F0EF66E080EF76EEF
:101DC0000900F5CF2DF00A00F5CF2EF02D0E096E8B
:101DD000020E0A6E21EC1EF0A4D02D0EF66E080E37
:101DE000F76E0900F5CF2FF00A00F5CF30F02F0E77
:101DF000096E020E0A6E21EC1EF093D02B0EF66EC9
:101E0000080EF76E0900F5CF31F00A00F5CF32F079
:101E1000310E096E020E0A6E21EC1EF082D01150B6
:101E2000D8A413D01F0EF66E080EF76E20EE19F030
:101E3000050E0900F5CFDEFFE806FBE2190E096E7C
:101E4000060E0A6E21EC1EF06CD0190EF66E080E0E
:101E5000F76E20EE1FF0050E0900F5CFDEFFE80655
:101E6000FBE21F0E096E060E0A6E21EC1EF059D021
:101E7000280EF66E080EF76E0900F5CF25F0090062
:101E8000F5CF26F00A00F5CF27F0250E096E030ED8
:101E90000A6E21EC1EF045D0120EF66E080EF76E9B
:101EA00020EE12F0060E0900F5CFDEFFE806FBE299
:101EB000120E096E070E0A6E21EC1EF032D0250EAE
:101EC000F66E080EF76E0900F5CF28F00900F5CF81
:101ED00029F00A00F5CF2AF0280E096E030E0A6ECB
:101EE00021EC1EF01ED01150000AD8B4C1D7010A4F
:101EF000D8B4D2D7040AD8B4E2D713D03650080ADF
:101F0000D8B449D7010AD8B457D7030AD8B465D78B
:101F1000010AD8B473D7070AD8B481D7030AD8B452
:101F2000E2D70C0E3618D8B407D00F0E3618D8B436
:101F300003D0356A010E02D0356A020E346E34C009
:101F400033F011C00EF033C00FF0365071EC1EF0BC
:101F500012001B6E7AEC1FF006C01EF007C01FF0C7
:101F600008C020F009C021F01B50D8A408D00E50A2
:101F7000D96EDA6A080ED926DF6A000E12000E50FA
:101F8000D96EDA6A080ED926DF50D8A420D00E50B8
:101F9000D96EDA6A080ED926010EDF6E0E50D96EA0
:101FA000DA6A1EC0DEFF1FC0DEFF20C0DEFF21C0D8
:101FB000DEFF0E50D96EDA6A040ED9261EC0DEFF8F
:101FC0001FC0DEFF20C0DEFF21C0DEFFD6D70E50CF
:101FD000D96EDA6ADECF0FF0DECF10F0DECF11F06F
:101FE000DECF12F00F501E5C136E10501F58146E8F
:101FF00011502058156E12502158166E165015109B
:1020000006E1F40E135C010E1458D8A0B6D70E509A
:10201000D96EDA6ADECF0FF0DECF10F0DECF11F02E
:10202000DECF12F00F501E5C136E10501F58146E4E
:1020300011502058156E12502158166E165015105A
:1020400009E1D10E135C070E1458D8B003D01D6AF5
:10205000C80E02D01D6A500E1C6E1CC017F01DC0A9
:1020600018F0000E18BEFF0E196E1A6E0E50D96EC3
:10207000DA6A040ED926DECF0FF0DECF10F0DECF05
:1020800011F0DECF12F00F501E5C136E10501F586F
:10209000146E11502058156E12502158166E17509C
:1020A000135C18501458195015581A501658D8A0C7
:1020B00064D70E50D96EDA6A040ED9261EC0DEFF30
:1020C0001FC0DEFF20C0DEFF21C0DEFF010E1200B8
:1020D0008DD0010E17EC13F01200060E17EC13F062
:1020E000116A000E106E080E85EC13F012003B50C2
:1020F000D96EDA6A030ED926DECF10F0DDCF11F0EB
:10210000030E85EC13F0010E25EC1CF012003B5081
:10211000D96EDA6A030ED926DECF06F0DDCF07F0DE
:10212000010E70EC1BF012003B50D96EDA6A010E02
:10213000D926DECF3CF0DDCF3DF03D50000AD8A4DB
:1021400012003C50010AD8B4E2D70A0AD8B4C5D765
:10215000070AD8B4BED7010AD8A41200C8D7020E05
:1021600017EC13F01200020EA9EC15F01200030E8A
:1021700017EC13F0000E25EC1CF012003B50D96E4A
:10218000DA6A010ED926DECF3CF0DDCF3DF03D50BE
:10219000000AD8A412003C50000AD8B4E8D7010ABB
:1021A000D8B4DDD7030AD8A41200DDD7050E17EC8A
:1021B00013F01200116A000E106E080E85EC13F079
:1021C00012003B50D96EDA6A010ED926DECF3CF000
:1021D000DDCF3DF03D50000AD8A412003C50040A67
:1021E000D8B4E4D7010AD8A41200E4D73B50D96E82
:1021F000DA6ADF503C6E3D6A3D50000AD8A41200F6
:102200003C50010AD8B490D7030AD8B4B7D7010A12
:10221000D8B4D7D7070AD8B41200010A1200000EAA
:10222000276E000E286E000E296E000E246E000E22
:10223000256E000E266E0CC024F00DC025F00AC0DD
:1022400027F00BC028F0FF0E2714106EFF0E281485
:10225000116E7F0E2914126EFF0E2414136EFF0EE2
:102260002514146E7F0E2614156E1050135C115039
:10227000145812501558D8B05CD0FF0E2414106EAC
:10228000FF0E2514116E7F0E2614126E1050136E61
:102290001150146E1250156E166A0E501324176EDC
:1022A0000F501420186E000E1520196E000E162007
:1022B0001A6EFF0E27141B6EFF0E28141C6E7F0E65
:1022C00029141D6E1B501E6E1C501F6E1D50206E5B
:1022D000216A17501E5C18501F5819502058215061
:1022E000800A226E1A50800A2258D8B022D00E508E
:1022F00024260F5025220E5027260F502822240670
:10230000D8A0250624C0D9FF25C0DAFFDF50236EF0
:102310002706D8A0280627C0D9FF28C0DAFF23C087
:10232000DFFF0E06D8A00F060E500F10D8B4120013
:10233000E6D70E500F10D8B4120024C0D9FF25C024
:10234000DAFFDF50236E244A252A27C0D9FF28C090
:10235000DAFF23C0DFFF274A282A0E06D8A00F067F
:10236000E8D768D000019F6BA06BA16B12003FEC17
:1023700021F01E6E0001A151D8B411D01E50D96EAB
:10238000DA6ADECF06F0DDCF07F07FEC20F000093F
:10239000D8B405D0A16B010EAFEC14F01200A0511F
:1023A000D8B413D01E50D96EDA6A020ED926DECF09
:1023B00006F0DDCF07F07FEC20F00009D8B405D09F
:1023C000A06B020EAFEC14F012009F51D8B41200B3
:1023D0009F6B096A050E086E04EC21F006C00AF036
:1023E00007C00BF0030EC9EC1AF0000ED7EC20F07A
:1023F0001200D80E0E6E0F6A25EC18F00009D8B442
:102400001200000178517911D8B411D07807D8A002
:102410007907D80E0E6E0F6AE80E106E030E116E5D
:10242000000E126E000E136E95EC1BF0120029ECDC
:102430001FF0120052501C6E1D6A1D50000AD8A4D5
:1024400012001C50000AD8B48DD7010AD8B48FD717
:10245000030AD8B4CED7010A120000018C514D18DE
:10246000D8A491EC1DF08C514D18D8A451D04950EE
:1024700080194EE14A508119D8B4120049D0010E9A
:102480000A6E7A0E0B6E0B50D8A4080E0C6E010E5D
:1024900041EC16F051D0010E0A6ECA0E0B6E0B50B5
:1024A000D8A4080E0C6E010E41EC16F049C00EF0D7
:1024B0004AC00FF0420E106E010E116EEDEC13F0DB
:1024C000420E2E6E010E2F6EC3EC1FF00A0E0A6E26
:1024D000420E0B6E010E0C6E010E41EC16F02CD06C
:1024E000010E0A6E8A0E0B6E0B50D8A4080E0C6EED
:1024F000010E41EC16F020D0010E0A6E680E0B6E34
:102500000B50D8A4080E0C6E010E41EC16F014D03E
:102510004D50306E316A3150000AD8A40DD0305081
:10252000000AD8B4ACD7010AD8B4B5D7030AD8B4D6
:10253000D7D7010AD8B4E0D74DC08CF049C080F09D
:102540004AC081F012000904D8A409D007C0D9FFFD
:1025500008C0DAFFDF50D8A402D0000E1200030E2C
:102560000918D8A426D007C0D9FF08C0DAFFDF5069
:10257000C00B400AD8A41DD020EE02F00750D92687
:102580000850DA2210EE01F00750E1260850E2224E
:10259000E7500B6E07C0E1FF08C0E2FFE7500B24D5
:1025A0000C6EDE500C18D8A402D00D0E12000E0EC8
:1025B000120009B021D007C0D9FF08C0DAFFDF50F0
:1025C000C00B400AD8B418D00E6A1AD00E50072497
:1025D0000A6E000E08200B6E010E0A24D96E000E42
:1025E0000B20DA6E0E500724E16E000E0820E26E1A
:1025F000DE50E618D8B402D0100E1200020E0E26DD
:1026000009500E5CD8A0E2D70E6A0BD00E500724FA
:10261000D96E000E0820DA6EDF5054EC14F0020E72
:102620000E2609500E5CD8A0F1D70F0E12003A6E9C
:1026300057D03A04D8A41200010E6FEC1AF0120021
:10264000020E6FEC1AF01200040E6FEC1AF012007A
:102650003A50386E396A3950000AD8A412003850FE
:10266000020AD8B4EDD7040AD8A41200EDD7030E9D
:102670006FEC1AF01200010E6FEC1AF01200040E4B
:102680006FEC1AF012003A50386E396A3950000A6D
:10269000D8A412003850030AD8B4EDD7070AD8B42A
:1026A000E6D7020AD8A41200EAD7010E6FEC1AF09E
:1026B0001200040E6FEC1AF012003A50386E396AAC
:1026C0003950000AD8A412003850050AD8B4EDD702
:1026D000030AD8A41200EDD7040E6FEC1AF0120012
:1026E0005950386E396A3950000AD8A4F5D7385095
:1026F000010AD8B4ADD7030AD8B4C5D7010AD8B4F3
:10270000DCD7070AD8B495D7E7D7146E57D0030E95
:102710001418D8A4120010501110D8B4120010C010
:1027200006F011C007F0FEEC20F074EC20F0010E72
:102730009CEC1AF0120010501110D8B4120010C006
:1027400006F011C007F0FEEC20F074EC20F0096AEE
:10275000020E086E04EC21F006C00AF007C00BF070
:10276000020EC9EC1AF0120010C006F011C007F0FA
:1027700017EC20F053EC1FF0000E9CEC1AF0120046
:1027800053EC1FF0000E9CEC1AF012001450126E65
:10279000136A1350000AD8A412001250030AD8B4C6
:1027A000CAD7070AD8B4E0D7010AD8B4DDD7020ADD
:1027B000D8B4E6D70F0AD8A41200E2D75350126E4D
:1027C000136A1350000AD8A412001250000AD8B499
:1027D0009ED7010AD8A41200D9D71B6A1A6A196AAF
:1027E0000E500F10D8A40ED010C0D9FF11C0DAFFC0
:1027F000300EDF6E20EE01F01050D9261150DA2293
:10280000DF6A12000FAE25D0010E196E0E6C0F1E7E
:10281000D8B00F2A1ED01B50120FD96EDA6A0EC024
:1028200006F00FC007F0096A0A0E086ED6EC18F021
:102830000650300FDF6E1B2A0EC006F00FC007F0E7
:10284000096A0A0E086EE5EC17F006C00EF007C024
:102850000FF00FBE05D00F50DEE10E04D8B0DBD76D
:102860001950D8B416D01B50120FD96EDA6A2D0E3B
:10287000DF6E1B2A0ED01B061B50120FD96EDA6AB0
:102880001A501024E16E000E1120E26EDFCFE7FF38
:102890001A2A1B50D8A4EFD71A501024D96E000E54
:1028A0001120DA6EDF6A1200066E30D0010E0001D0
:1028B000AD6F1200010E0001B06F1200010E000199
:1028C000AF6F1200010E0001B16F1200010E000186
:1028D000B26F1200010E0001B76F1200010E00016D
:1028E000B46F1200010E0001B86F1200010E00015A
:1028F000B66F1200010E0001B36F1200010E00014D
:10290000B56F1200010E0001B96F12000650010AE6
:10291000D8B4CCD7030AD8B4CDD7010AD8B4CED70F
:10292000070AD8B4D3D7010AD8B4E4D7030AD8B475
:10293000D1D7010AD8B4D2D70F0AD8B4D3D7010A55
:10294000D8B4DCD7030AD8B4B5D7010AD8B4BAD7FB
:10295000070AD8B4CBD7010AD8A41200D3D7176E70
:102960003FEC21F0186E32D01850D96EDA6A040E9E
:10297000D926DECF78F0DDCF79F0010E00017A6F35
:102980001850D96EDA6ADECF10F0DDCF11F0040EE8
:1029900085EC13F08A8028D01850D96EDA6A060EBA
:1029A000D926DECF78F0DDCF79F0020E00017A6F04
:1029B0001850D96EDA6A020ED926DECF10F0DDCFBC
:1029C00011F0050E85EC13F08A820ED01750156EAB
:1029D000166A1650000AD8A407D01550010AD8B4B8
:1029E000C3D7030AD8B4D8D7D80E0E6E0F6AE80E34
:1029F000106E030E116E000E126E000E136E95EC2B
:102A00001BF0020ED7EC20F012000001F851D8B4F0
:102A100012003DD04F50D8A403D04E50800F0FD09D
:102A20004F04D8A403D04E50C00F09D0020E4F1847
:102A3000D8A403D04E50940F02D04E50D40F0B6E3A
:102A40000B5069EC20F0020E00018D6F12004F5008
:102A5000140D000EF324096E030EF4200A6E4E507E
:102A60000924D96E000E0A20DA6EDF505EEC20F0E9
:102A70004E2A130E4E6402D04E6A4F2A030E4F6444
:102A800003D04F6A0001F86B00018D6B12008D516D
:102A9000096E0A6A0A50000AD8A412000950000AF6
:102AA000D8B4B8D7010AD8B41200030AD8A41200C7
:102AB000CED7176A166A0D500E10D8A42CD00FC0AE
:102AC000D9FF10C0DAFF300EDF6E20EE01F00F509C
:102AD000D9261050DA22DF6A12001750110FD96E72
:102AE000DA6A0DC006F00EC007F0096A0A0E086E19
:102AF000CFEC1CF00650300FDF6E172A0DC006F029
:102B00000EC007F0096A0A0E086E22EC1BF006C020
:102B10000DF007C00EF00D500E10D8B40FD0DDD759
:102B200017061750110FD96EDA6A16500F24E16E8E
:102B3000000E1020E26EDFCFE7FF162A1750D8A450
:102B4000EFD716500F24D96E000E1020DA6EDF6A10
:102B50001200346E34D04D6A120049C080F04AC071
:102B600081F004EC21F006C049F007C04AF0010EE4
:102B70004D6E010E0A6ECA0E0B6E0B50D8A4080ED5
:102B80000C6E010E41EC16F049C030F04AC031F035
:102B900057EC1EF012004D04D8A4120049C080F07A
:102BA0004AC081F004EC21F006C049F007C04AF0A9
:102BB000EBD7020E4D6E1200030E4D6E1200345014
:102BC000326E336A3350000AD8A412003250000A21
:102BD000D8B4C1D7010AD8B4C0D7030AD8B4DBD758
:102BE000010AD8B4E6D7070AD8A41200E5D736D030
:102BF0001D0E066E1C0E076E72EC1DF00009D8B497
:102C000032D0CA0E0E6E010E0F6E0A0E106E000E3E
:102C1000116E000E126E000E136E95EC1BF02D0E51
:102C2000556402D0556A1200940E5524D96EDA6AA2
:102C3000020EDA221DC0DFFF552A1C50D8B405D081
:102C4000A3EC1EF027EC21F012005504D8A406D006
:102C50001D50D8A403D0A3EC1EF01200C7EC20F046
:102C60000009D8A4C5D75550D8B41200CA0E0E6EAC
:102C7000010E0F6E25EC18F00009D8B41200556A49
:102C8000E1D7116E1150D8B41200040E116401D0B6
:102C9000120011040F6E0A04106E22D00BC0F6FF52
:102CA0000CC0F7FFF86A0F50140D000EF3240D6EE0
:102CB000030EF4200E6E10500D24D96E000E0E205F
:102CC000DA6E070EF76403D00800F55005D0F6CF92
:102CD000E9FFF7CFEAFFEF50DF6E0B4A0C2A102A0C
:102CE0000BC0F6FF0CC0F7FFF86A070EF76403D0BD
:102CF0000800F55005D0F6CFE9FFF7CFEAFFEF5017
:102D00000009D8B403D0130E1064C8D7010E000117
:102D1000F86F12000AC006F00BC007F0F0EC1CF0D0
:102D20000650166E0C50165CD8B01200140E0C64CF
:102D300002D0140E0C6E16500C5C146E16C017F0F8
:102D400017BE20D017C00EF00F6A0EBE0F060E5031
:102D50000A24D96E0F500B20DA6E17C010F0116ADA
:102D600010BE110610500A24126E11500B20136E63
:102D700014501224E16E000E1320E26EDFCFE7FF45
:102D80001706DED7156A09D015500A24D96E000E31
:102D90000B20DA6E0DC0DFFF152A1450155CD8B079
:102DA0001200F2D70600D9CF02F0DACF03F0F2A476
:102DB0000ED0F294D10ED76E200ED66E010E000109
:102DC0007427000E752376237723884B892B9EA0CA
:102DD00008D09E906D0ECF6E840ECE6E0001864B95
:102DE000872B9EAA21D0ABA203D0AB98AB881CD076
:102DF000000EABB0010E046EAECF05F0ABB414D034
:102E00002E0E586011D02E0E5824D96EDA6A020E9A
:102E1000DA2205C0DFFF000E5824D96EDA6A020EEE
:102E2000DA2204C0DFFF582A03C0DAFF02C0D9FF4C
:102E3000019211009F6BA06BA16B9C6B9D6BA76BAC
:102E4000A86B936B946B956B916B926B516A8E6BC5
:102E5000000E6C6F000E6D6F000E6E6F000E6F6FC8
:102E60000F0EC16E070EB46E92809282928495808E
:102E70009582958480A002D0010E01D0000E9B6F38
:102E800080A202D0010E01D0000E9A6F80A402D061
:102E9000010E01D0000E996F83A002D0010E01D067
:102EA000000E986F83A202D0010E01D0000E976F22
:102EB00083A402D0010E01D0000E966F906B8F6B31
:102EC00012000C6E3FEC21F00D6E2AD00D50D96E21
:102ED000DA6ADECF08F0DDCF09F012000D50D96EAE
:102EE000DA6A020ED926DECF08F0DDCF09F0120033
:102EF0000D50D96EDA6A040ED926DECF08F0DDCF88
:102F000009F012000D50D96EDA6A060ED926DECF0E
:102F100008F0DDCF09F01200096A000E086E1200F9
:102F20000C500A6E0B6A0B50000AD8A4F5D70A5051
:102F3000000AD8B4CBD7010AD8B4D0D7030AD8B482
:102F4000D7D7010AD8B4DED7E7D7010E1C6E010E21
:102F50000A6E530E0B6E0B50D8A4080E0C6E030EA7
:102F600041EC16F0170E066E12C0D9FF13C0DAFF3F
:102F7000DF5040EC1AF0010E0A6E170E0B6E0C6A51
:102F8000030E41EC16F0030E1C261B6A16D0170E1A
:102F9000066E1B501424D96E000E1520DA6EDF5019
:102FA00040EC1AF01CC00AF0170E0B6E0C6A030EF0
:102FB00041EC16F0030E1C261B2A16501B5CD8B0E1
:102FC0001200120E1C64E3D712000B6A09AE06D081
:102FD000086C091ED8B0092A010E0B6E07AE06D088
:102FE000066C071ED8B0072A010E0B1A0D6A000ED8
:102FF0000C6E08500910D8B41CD0010E0A6E04D013
:10300000D890083609360A2A09AEFAD7D8900C3675
:103010000D360850065C09500758D8A005D0085056
:10302000065E0950075A0C80D890093208320A2EE1
:10303000EDD70B50D8B404D00C6C0D1ED8B00D2AAF
:103040000CC006F00DC007F0120020EE08F00E5084
:10305000D9260F50DA22DF50D8A402D0000E120079
:1030600020EE04F00E50D9260F50DA220EC0E1FFF8
:103070000FC0E2FFE6CF14F0E6CF15F0E6CF16F072
:10308000E6CF17F07AEC1FF01450065C186E15505E
:103090000758196E165008581A6E175009581B6EAB
:1030A000DE50185CDE501958DE501A58DE501B589E
:1030B000D8A0D4D720EE08F00E50D9260F50DA222F
:1030C000DF6A010E1200076E07C006F0010E061639
:1030D000063A8A500618EF0B06188A6E07C006F0EB
:1030E000D8900632010E0616063A06468A50061891
:1030F000DF0B06188A6E07C006F0D8900632D8900B
:103100000632010E0616063A064606468A5006188C
:10311000BF0B06188A6E07C006F0D8900632D8900A
:103120000632D8900632010E0616063206328A5052
:1031300006187F0B06188A6EA6EC20F01200870E88
:10314000F66E420EF76E000EF86E0900F5CFF8F03D
:10315000860EF66E420EF76E000EF86E0900F5CF81
:1031600059F003EE00F0A00EEE6AE806FDE102EE73
:1031700000F0C40EEE6AE806FDE101EE00F0D30EA9
:10318000EE6AE806FDE100EE60F08A0EEE6AE806FF
:10319000FDE100EE49F0100EEE6AE806FDE1019057
:1031A0000192000EF86E0001E9EF0DF00B6A07AE18
:1031B00006D0066C071ED8B0072A010E0B6E09AEAA
:1031C00004D0086C091ED8B0092A08500910D8B4D8
:1031D00018D0010E0A6E04D0D890083609360A2A93
:1031E00009AEFAD70850065C09500758D8A004D099
:1031F0000850065E0950075AD890093208320A2E44
:10320000F1D70B50D8B404D0066C071ED8B0072AEB
:1032100006C006F007C007F01200096A000E086E2B
:10322000110E0A6E0C6A020E0B6E8AEC1EF05A0E1C
:10323000111804E1A50E1218D8B41BD013EC1FF01E
:10324000A50E126E5A0E116E0C6A020E0B6EBA0E9D
:103250000D6E0F6A0C0E0E6E05EC1EF00C6A000E61
:103260000B6E110E0D6E0F6A020E0E6E05EC1EF047
:103270001200096A020E086EBA0E0A6E0C6A0C0E73
:103280000B6E8AEC1EF01200936A8A6A020E0A6EB6
:10329000380E096EAD0EE82EFED7092EFCD70A2E89
:1032A000FAD700000B6A8A94030E63EC18F04E0EF6
:1032B000096EEB0EE82EFED7092EFCD700000B2A74
:1032C000020E0B64F0D7020E63EC18F0280E69ECC6
:1032D00020F00C0E69EC20F0060E69EC20F0010ED7
:1032E00069EC20F0200E096E2A0EE82EFED7092E7A
:1032F000FCD712000C6E1CD008C006F009C007F005
:1033000047EC20F0120008C006F009C007F03BECC3
:1033100020F0120008C006F009C007F02FEC20F0E2
:10332000120008C006F009C007F023EC20F01200DC
:103330000C500A6E0B6A0B50000AD8A412000A50F7
:10334000000AD8B4D9D7010AD8B4DDD7030AD8B453
:10335000E1D7010AD8A41200E4D72AC02CF02BC070
:103360002DF02A502B10D8B4120002D02C4A2D2A4E
:103370002CC0D9FF2DC0DAFFDF503EEC1FF0000952
:10338000D8A4F4D72A502C1804E12B502D18D8B407
:1033900012002AC00AF02BC00BF02CC00CF02DC07C
:1033A0000DF02CC006F02DC007F0F0EC1CF0010E63
:1033B00006240E6E000E07200F6E0FEC11F01200A7
:1033C0000AC010F00BC011F016D00D06D8A00E06E2
:1033D0000C2A0C040F6E0FC0F6FF080EF76E10C01B
:1033E000D9FF11C0DAFF104A112A0800F5CFDFFF1C
:1033F000DF50D8B40CD00D500E10D8B408D0E5D79B
:1034000010C0D9FF11C0DAFFDF6A104A112A0D0679
:10341000D8A00E060D28F4E10E28D8B41200F0D77B
:103420000A500B10D8B412000AC006F00BC007F007
:10343000F0EC1CF006C00EF007C00FF003D00E0633
:10344000D8A00F060E500F10D8B412D00E500A2478
:103450000C6E0F500B200D6EFF0E0C24D96EFF0E5C
:103460000D20DA6EDF503EEC1FF00009D8A4E7D73C
:103470000E500A24D96E0F500B20DA6EDF6A12004C
:10348000096E09C007F0073A0F0E07160F0E071650
:103490000750010F086E08C0F6FF080EF76E0650C1
:1034A000D96EDA6A0800F5CFDFFF09C007F00F0E0A
:1034B00007160750010F086E08C0F6FF080EF76EDA
:1034C0000650D96EDA6A010ED9260800F5CFDFFF63
:1034D0000650D96EDA6A020ED926DF6A1200376EFC
:1034E00037505918D8B4120037C059F010D0000E18
:1034F000A9EC15F01200010EA9EC15F01200030E54
:10350000A9EC15F01200040EA9EC15F012005950A8
:10351000356E366A3650000AD8A412003550010ABA
:10352000D8B4E5D7030AD8B4E6D7010AD8B4E7D7A8
:10353000070AD8A41200E7D70F6E0F505318D8B45B
:1035400012000FC053F016D009EC21F0096A000EEA
:10355000086E0B6A000E0A6E020EC9EC1AF0120019
:10356000096A010E086E0B6A000E0A6E020EC9ECA3
:103570001AF0120053500D6E0E6A0E50000AD8A4B5
:1035800012000D50000AD8B4DFD7010AD8A41200E7
:10359000E7D70C6E89EC20F00009D8A41200565031
:1035A000050D500EF324D96E030EF420DA6E0CC014
:1035B000DFFF5650050D510EF324D96E030EF42093
:1035C000DA6E08C0DEFF09C0DDFF5650050D530E50
:1035D000F324D96E030EF420DA6E0AC0DEFF0BC0AE
:1035E000DDFF565016EC21F0566E12002E0E1F64B1
:1035F00002D02E0E1F6E206A0FD020501D24D96ECF
:10360000000E1E20DA6E640E2024E16EE26A020EC5
:10361000E222DFCFE7FF202A1F50205CD8A0EDD7A1
:103620001FC092F2010E0201936F5C0E126E020E29
:10363000136E640E146E020E156E1FC016F0A5EC0C
:1036400017F012000C6A000E0B6E08500910D8B467
:103650001CD0010E0A6E04D0D890083609360A2A0A
:1036600009AEFAD7D8900B360C360850065C0950D4
:103670000758D8A005D00850065E0950075A0B809D
:10368000D890093208320A2EEDD70BC006F00CC0D4
:1036900007F012000650D96EDA6ADE50DE10D8B498
:1036A00009D00650D96EDA6A020ED926DE50DE1035
:1036B000D8A402D0000E12000650D96EDA6A040EA9
:1036C000D926DE50DE10D8B4F5D70650D96EDA6AA6
:1036D000060ED926DE50DE10D8B4ECD7010E12004B
:1036E0000A6E10D00A04D8A41200075004E1020E9A
:1036F000065CD8A0120006C07BF007C07CF0010E6B
:103700007D6F12000001A351086E096A0950000A7A
:10371000D8A412000850100AD8B4E4D7010AD8B4CB
:10372000E1D7050AD8A41200DDD77AEC1FF00EC04D
:10373000D9FF0FC0DAFF06C0DEFF07C0DEFF08C0FA
:10374000DEFF09C0DEFF20EE04F00E50D9260F5038
:10375000DA2210C0DEFF11C0DEFF12C0DEFF13C090
:10376000DEFF20EE08F00E50D9260F50DA22010EAF
:10377000DF6E120010501110D8B4120010C006F005
:1037800011C007F003C108F0096A22EC1BF00650D3
:10379000126E0F0E136E020E146E12C015F0130E81
:1037A000066E076A040E086EAEEC1CF0166E130E61
:1037B000096E040E0A6E21EC1EF01200020E126059
:1037C00002D0000E120010C006F011C007F012C0A7
:1037D00008F0AEEC1CF0156E12501024136E000EA3
:1037E0001120146EFF0E1324D96EFF0E1420DA6E12
:1037F000DF50166E16501518D8A402D0010E120014
:10380000000E1200846A836A826A816A806A9568FF
:103810009468936892680F0E966E9280928292845A
:1038200092869288929A9390939293949396939877
:10383000939A939C939E8A908A92949C948E95805E
:1038400095829584969096821200096E0ED0090496
:10385000D8A41200010ED7EC20F012000950D8A411
:103860001200000ED7EC20F012005250076E086ACA
:103870000850000AD8A412000750000AD8B4E7D7AD
:10388000010AD8B4EBD7030AD8B41200010A120017
:10389000136A1350020DF350600FD96EDA6ADECF4F
:1038A00008F0DDCF09F01350080DF3CF11F0010E31
:1038B00011261150330F126E12C0F6FF080EF76E6C
:1038C0000800F5507AEC19F0132A030E1364E1D7BF
:1038D0002DEC21F012005304D8A412007AEC1FF052
:1038E00000017051065C156E71510758166E7251C9
:1038F0000858176E73510958186E1850171006E1C2
:10390000300E155C750E1658D8A01200116A000E04
:10391000106E070E85EC13F012000AD0E10E1200B3
:10392000E30E1200DF0E1200E50E1200EB0E120085
:1039300033EC21F0086E096A0950000AD8A4F6D7C2
:103940000850000AD8B4EAD7010AD8B4E9D7030A64
:10395000D8B4E8D7010AD8B4E7D7E8D70E6A0F6A17
:1039600009D00F500624D96E000E0720DA6EDF5002
:103970000E260F2AFF0E0824096E0A6AFF0E0A227D
:103980000F500B6E0C6A09500B5C0C50800A0D6EC8
:103990000A50800A0D58D8A0E4D70E5012000850E3
:1039A0000910D8B418D0010E0A6E04D0D890083689
:1039B00009360A2A09AEFAD70850065C095007589A
:1039C000D8A004D00850065E0950075AD890093292
:1039D00008320A2EF1D706C006F007C007F0120021
:1039E00006C008F007C009F002D0064A072A06C040
:1039F000F6FF07C0F7FFF86A070EF76403D0080068
:103A0000F55005D0F6CFE9FFF7CFEAFFEF500009F8
:103A1000D8A4EBD70850065C066E09500758076E0D
:103A20001200106A1050080DF3CF0EF0010E0E2692
:103A30000E50330F0F6E0FC0F6FF080EF76E080022
:103A4000F55061EC17F01050020DF350600FD96E75
:103A5000DA6A08C0DEFF09C0DDFF102A030E106419
:103A6000E1D712000AD0E10E1200F10E1200DF0EB3
:103A70001200ED0E1200EB0E12005250086E096A91
:103A80000950000AD8A4F7D70850000AD8B4EBD7D9
:103A9000010AD8B4EAD7030AD8B4E9D7010AD8B4DE
:103AA000E8D7E9D70AD0F10E1200E30E1200E70EB4
:103AB0001200E50E1200EB0E12005950086E096A52
:103AC0000950000AD8A4F7D70850010AD8B4EBD798
:103AD000030AD8B4EAD7010AD8B4E9D7070AD8B498
:103AE000E8D7E9D75850505CD8A002D0000E120099
:103AF0002E0E5024D96EDA6A020EDA220650E16EDA
:103B0000E26ADFCFE7FF000E5024D96EDA6A020EB8
:103B1000DA220750E16EE26ADFCFE7FF502A010E9A
:103B20001200086A096A0850140D000EF324066E8C
:103B3000030EF420076E09500624D96E000E0720EC
:103B4000DA6E200EDF6E092A130E0964ECD7082AFC
:103B5000030E0864E7D7010E0001F86F1200CFECE6
:103B600020F00009D8A412005750050D500EF32480
:103B7000D96E030EF420DA6E10EE3EF0040EDBCFA9
:103B8000E3FFE806FCE2575016EC21F0576E3E0EBC
:103B90003B6E68EC10F01200000EF2BE010E0A6ED1
:103BA000F29E06C0A9FF08C0A8FFA69EA69CA684F8
:103BB000550EA76EAA0EA76EA6820950D8B402D0E1
:103BC000A6B2FED7A6940AB002D0F29E01D0F28E21
:103BD000120008D0F10E1200EF0E1200ED0E1200CE
:103BE000EB0E12003DEC21F0086E096A0950000A44
:103BF000D8A4F6D70850000AD8B4ECD7010AD8B434
:103C0000EBD7030AD8B4EAD7EBD70DC010F010D029
:103C10000BC006F00CC007F01050D96EDA6ADF5006
:103C2000086E010E096ECCEC1DF0102A0B4A0C2A0E
:103C30000E06D8A00F060E28EBE10F28D8B412000C
:103C4000E7D79EA8FED7AC800950D96EDA6ADF505C
:103C5000AD6EAC90010E0B6E0AD0000E066E0950D0
:103C60000B24D96EDA6ADF509FEC1FF00B2A0A5042
:103C70000B5CD8B01200F1D70AD041EC21F02DEC4A
:103C800012F01200C5EC0BF0E3EC1FF012005450E0
:103C9000356E366A3650000AD8A412003550000A34
:103CA000D8B4EBD7010AD8B4EDD7030A120030C05C
:103CB0000EF031C00FF0420E106E010E116EEDECE1
:103CC00013F0420E2E6E010E2F6EC3EC1FF00A0E83
:103CD0000A6E420E0B6E010E0C6E010E41EC16F0D8
:103CE0001200106E5C0E066E020E076E096A000E60
:103CF000086E0B6A380E0A6ED1EC1EF0020E0F64CD
:103D000002D0020E0F6E10C05CF20EC05DF20FC04A
:103D100063F212000AC00DF00DD00D50D96EDA6AB0
:103D200008C006F009C007F0DFEC20F0DF6E084A9B
:103D3000092A0D2A0B06D8A00C060B28EEE10C2848
:103D4000D8B41200EAD755C0C2F2C2C212F0940E23
:103D5000106E020E116EDEEC1BF00009D8B402D01A
:103D6000010E01D0000E0201C36F010E0001A96F08
:103D7000556A1200086E05D00850D8A41200546A83
:103D800012005450066E076A0750000AD8A41200A9
:103D90000650000AD8B41200010AD8B4EDD7030ABD
:103DA000120006C00CF007C00DF008D00CC0D9FFFF
:103DB0000DC0DAFF08C0DFFF0C4A0D2A0A06D8A0A2
:103DC0000B060A28F3E10B28D8B41200EFD706D06F
:103DD000ED0E1200E90E1200EB0E12005350086EA9
:103DE000096A0950000AD8A4F7D70850000AD8B4C5
:103DF000EFD7010AD8B4EED7EFD78B6B30EC21F0B8
:103E000011EC1DF04C6A4B6A00018A6B7AEC1FF0D2
:103E100006C068F007C069F008C06AF009C06BF01E
:103E2000E2EC0CF01200030E0001BB6F200EBA6F23
:103E3000070EBD6F080EBC6FBF6B140EBE6FC16B5B
:103E40003C0EC06FC36B000EC26FC56B000EC46F1B
:103E500012008A908A927A05D8A403D0B7EC20F099
:103E600005D0020E7A19D8B4AFEC20F0B1EC1FF0F7
:103E700000017A6B000ED7EC20F01200076E010EE5
:103E8000066E200E0718D8B40CD0090E0718D8B447
:103E900008D00D0E0718D8B404D00A0E0718D8A4FD
:103EA000066A0650120004EC21F006C00BF007C0B1
:103EB0000CF00B500C10D8B412000BC006F00CC064
:103EC00007F0010E70EC1BF009EC21F01200166EE9
:103ED000140E0001A36F16C0A2F0820E0E6E010E2A
:103EE0000F6E14C010F015C011F0126A136A95EC31
:103EF0001BF01200F29E74C00AF075C00BF076C081
:103F00000CF077C00DF0F28E0AC006F00BC007F07F
:103F10000CC008F00DC009F01200949C948EB88675
:103F2000B892040EB06EE10EAF6EAC84AC98AB8E5E
:103F3000AC8AAC8CAB8CAB96AB889D981200086EAB
:103F40009EA8FED70650D8B403D0076A072A01D02E
:103F5000076AAC500718FE0B0718AC6E08C0ADFF1F
:103F60001200BA0E066E4AEC1BF00009D8B412001B
:103F70000C6A020E0B6EBA0E0D6E0F6A0C0E0E6EF0
:103F800005EC1EF012002E502F10D8B412002EC0D7
:103F90000AF02FC00BF010EC1AF02EC02AF02FC040
:103FA0002BF0ADEC19F01200D59ED59CD59AD59882
:103FB000D586F80ED516D10ED76E200ED66EF29499
:103FC000F28AD58E120000018B51D8A403D0E2EC06
:103FD0000CF0120091EC1DF08B6B000EBAEC1EF091
:103FE0001200A951D8A405D0000E066E000E076E6F
:103FF0001200940E066E020E076E1200000E116E75
:10400000080EC9EC0EF0030E156EE80E146E000ECD
:1040100067EC1FF01200AD0E066E076A096A000E0B
:10402000086E0B6A0D0E0A6ED1EC1EF012000650DF
:104030000001825D07508359D8A012000650825FAC
:104040000750835B120006500710D8A402D0000E60
:10405000120006C0C0F007C0C1F0010E12000650E9
:104060000710D8A402D0000E120006C0BEF007C090
:10407000BFF0010E120006500710D8A402D0000EA7
:10408000120006C0BCF007C0BDF0010E12000650C1
:104090000710D8A402D0000E120006C0BAF007C064
:1040A000BBF0010E1200AC9CAB9CAC84B886B06A2D
:1040B0004D0EAF6EAB8EAC8AAB881200086E8A8450
:1040C00008380F0B63EC18F008500F0B63EC18F076
:1040D0001200086E8A9408380F0B63EC18F0085031
:1040E0000F0B63EC18F012007AEC1FF006C070F0B2
:1040F00007C071F008C072F009C073F012000650DA
:10410000825D07508359D8A002D0010E1200000E24
:104110001200565016EC21F05718D8A402D0010E08
:104120001200000E1200A851D8B41200A86BA76BA1
:10413000FDEC1EF0010E546E1200030E4D6E8C6BE2
:104140004A6A000E496E8069816912008A86040EEF
:10415000E82EFED78A96C80EE82EFED71200C42994
:1041600003E1C529D8B41200C44BC52B1200C229E3
:1041700003E1C329D8B41200C24BC32B1200310E85
:10418000CD6E9E906D0ECF6E840ECE6E1200585086
:10419000505CD8B002D0010E1200000E1200565032
:1041A0005718D8A402D0010E1200000E1200066E9D
:1041B00006505218D8B4120006C052F0120006C0C1
:1041C000A9FFA69EA69CA680A8501200796B000E9F
:1041D000786F7A6B526A1200000E066E000E9FEC2A
:1041E0001FF0120091EC1DF08D6B4E6A4F6A1200A9
:1041F000040E596E040EA9EC15F0120006500001D1
:10420000822707508323120082C006F083C007F084
:1042100012000001836B000E826F1200836B000E90
:10422000826F1200556A0001A96B1200066E062803
:104230000F0B120009EC21F0536A12000001A96B68
:1042400012000001A9511200ECEC20F01200506A9B
:10425000586A1200566A576A1200B1EC1FF0120039
:104260000DEC19F012004D501200506A1200A251CC
:1042700012008F5112009051120054501200BA0EC9
:084280001200120012000401FB
:020000040030CA
:0E000000240E1F1EFF8181FF0FC00FE00F4076
:00000001FF
